SIN            2020028473     00001S750           022252-VIS                                             0000010200          00000000189000PZ                                                00010834                 2020                     2334                     20200605                 00010200ssss
SIN            2020028473     00002S750           022442-VIS                                             0000000001          00000000189000PZ                                                00010834                 2020                     2334                     20200605                 00000001
SIN            2020028473     00003S750           022256-VIS                                             0000011400          00000000102000PZ                                                00010834                 2020                     2334                     20200605                 00011400
SIN            2020028473     00004S750           022442-VIS                                             0000000001          00000000102000PZ                                                00010834                 2020                     2334                     20200605                 00000001
SIN            2020028473     00005S750           022260-VIS                                             0000012300          00000000056000PZ                                                00010834                 2020                     2334                     20200605                 00012300
SIN            2020028473     00006S750           022442-VIS                                             0000000001          00000000056000PZ                                                00010834                 2020                     2334                     20200605                 00000001
SIN            2020028473     00007S750           022231-VIS                                             0000015075          00000000108000PZ                                                00010834                 2020                     2334                     20200605                 00015075
SIN            2020028473     00008S750           022442-VIS                                             0000000001          00000000108000PZ                                                00010834                 2020                     2334                     20200605                 00000001
