SIN            2022000001     00001S750           015070-C04                                             0000004267          00000000008000PZ                                                00028058                 2021                     -79482                   20211007                 00004267
SIN            2022000001     00002S750           015070-C04                                             0000004267          00000000008000PZ                                                00035802                 2021                     -82108                   20211202                 00004267
SIN            2022000002     00001S750           014135-FTO                                             0000181370          00000000001000PZ                                                00038406                 2021                     2717-82824               20211230                 00181370
SIN            2022000005     00001S750           009076-CU1                                             0000860000          00000000001000PZ                                                00031611                 2021                     2392-80780               20211103                 00860000
SIN            2022000005     00002S750           008859-CU0                                             0000864000          00000000002000PZ                                                00031611                 2021                     2392-80780               20211103                 00864000
SIN            2022000005     00003S750           009478-FTO                                             0000176800          00000000001000PZ                                                00034665                 2021                     2525-81762               20211125                 00176800
SIN            2022000010     00001S750           010587-LAT                                             0000017360          00000000020000PZ                                                00038168                 2021                     2709-82778               20211223                 00017360
SIN            2022000011     00001S750           008756-LAT                                             0000017960          00000000025000PZ                                                00035588                 2021                     2576-82026               20211201                 00017960
SIN            2022000016     00001S750           009727-C12                                             0000000850          00000000024000PZ                                                00037357                 2021                     2656-82489               20211214                 00000850
SIN            2022000019     00001S750           014642-LAT                                             0000016960          00000000002000PZ                                                00038293                 2021                     -82819                   20211229                 00016960
SIN            2022000019     00002S750           021940-LAT                                             0000017020          00000000002000PZ                                                00038293                 2021                     -82819                   20211229                 00017020
SIN            2022000019     00003S750           021939-LAT                                             0000017000          00000000001000PZ                                                00038293                 2021                     -82819                   20211229                 00017000
SIN            2022000019     00004S750           014656-LAT                                             0000017100          00000000002000PZ                                                00038293                 2021                     -82819                   20211229                 00017100
SIN            2022000019     00005S750           034482-LAT                                             0000016800          00000000001000PZ                                                00038293                 2021                     -82819                   20211229                 00016800
SIN            2022000021     00001S750           021524-C04                                             0000005275          00000000004000PZ                                                00038291                 2021                     -82817                   20211229                 00005275
SIN            2022000021     00002S750           021538-LAT                                             0000020000          00000000001000PZ                                                00038291                 2021                     -82817                   20211229                 00020000
SIN            2022000021     00003S750           008741-LAT                                             0000016940          00000000001000PZ                                                00038291                 2021                     -82817                   20211229                 00016940
SIN            2022000021     00004S750           014647-LAT                                             0000017020          00000000001000PZ                                                00038291                 2021                     -82817                   20211229                 00017020
SIN            2022000021     00005S750           014656-LAT                                             0000017100          00000000001000PZ                                                00038291                 2021                     -82817                   20211229                 00017100
SIN            2022000021     00006S750           014660-LAT                                             0000016880          00000000001000PZ                                                00038291                 2021                     -82817                   20211229                 00016880
SIN            2022000021     00007S750           033714-LAT                                             0000016800          00000000001000PZ                                                00038291                 2021                     -82817                   20211229                 00016800
SIN            2022000021     00008S750           034482-LAT                                             0000016800          00000000001000PZ                                                00038291                 2021                     -82817                   20211229                 00016800
SIN            2022000021     00009S750           022421-LAT                                             0000016680          00000000001000PZ                                                00038291                 2021                     -82817                   20211229                 00016680
SIN            2022000021     00010S750           021940-LAT                                             0000017020          00000000001000PZ                                                00038291                 2021                     -82817                   20211229                 00017020
SIN            2022000021     00011S750           021939-LAT                                             0000017000          00000000001000PZ                                                00038291                 2021                     -82817                   20211229                 00017000
SIN            2022000021     00012S750           014642-LAT                                             0000016960          00000000001000PZ                                                00038291                 2021                     -82817                   20211229                 00016960
SIN            2022000025     00001S750           014642-LAT                                             0000016960          00000000002000PZ                                                00038270                 2021                     -82796                   20211228                 00016960
SIN            2022000025     00002S750           033714-LAT                                             0000016800          00000000003000PZ                                                00038270                 2021                     -82796                   20211228                 00016800
SIN            2022000025     00003S750           022421-LAT                                             0000016680          00000000003000PZ                                                00038270                 2021                     -82796                   20211228                 00016680
SIN            2022000025     00004S750           014660-LAT                                             0000016880          00000000005000PZ                                                00038270                 2021                     -82796                   20211228                 00016880
SIN            2022000025     00005S750           014656-LAT                                             0000017100          00000000002000PZ                                                00038270                 2021                     -82796                   20211228                 00017100
SIN            2022000025     00006S750           021939-LAT                                             0000017000          00000000001000PZ                                                00038270                 2021                     -82796                   20211228                 00017000
SIN            2022000025     00007S750           034482-LAT                                             0000016800          00000000002000PZ                                                00038270                 2021                     -82796                   20211228                 00016800
SIN            2022000027     00001S750           021538-LAT                                             0000020000          00000000001000PZ                                                00038272                 2021                     -82798                   20211228                 00020000
SIN            2022000027     00002S750           014647-LAT                                             0000017020          00000000001000PZ                                                00038272                 2021                     -82798                   20211228                 00017020
SIN            2022000027     00003S750           022421-LAT                                             0000016680          00000000001000PZ                                                00038272                 2021                     -82798                   20211228                 00016680
SIN            2022000027     00004S750           014642-LAT                                             0000016960          00000000002000PZ                                                00038272                 2021                     -82798                   20211228                 00016960
SIN            2022000027     00005S750           014660-LAT                                             0000016880          00000000001000PZ                                                00038272                 2021                     -82798                   20211228                 00016880
SIN            2022000027     00006S750           014656-LAT                                             0000017100          00000000001000PZ                                                00038272                 2021                     -82798                   20211228                 00017100
SIN            2022000027     00007S750           021535-C24                                             0000000250          00000000072000PZ                                                00038272                 2021                     -82798                   20211228                 00000250
SIN            2022000027     00008S750           034482-LAT                                             0000016800          00000000001000PZ                                                00038272                 2021                     -82798                   20211228                 00016800
SIN            2022000029     00001S750           021524-C04                                             0000005275          00000000004000PZ                                                00038269                 2021                     -82795                   20211228                 00005275
SIN            2022000029     00002S750           021939-LAT                                             0000017000          00000000001000PZ                                                00038269                 2021                     -82795                   20211228                 00017000
SIN            2022000029     00003S750           021940-LAT                                             0000017020          00000000001000PZ                                                00038269                 2021                     -82795                   20211228                 00017020
SIN            2022000029     00004S750           034482-LAT                                             0000016800          00000000001000PZ                                                00038269                 2021                     -82795                   20211228                 00016800
SIN            2022000029     00005S750           014656-LAT                                             0000017100          00000000001000PZ                                                00038269                 2021                     -82795                   20211228                 00017100
SIN            2022000029     00006S750           008741-LAT                                             0000016940          00000000001000PZ                                                00038269                 2021                     -82795                   20211228                 00016940
SIN            2022000029     00007S750           014660-LAT                                             0000016880          00000000001000PZ                                                00038269                 2021                     -82795                   20211228                 00016880
SIN            2022000029     00008S750           033714-LAT                                             0000016800          00000000001000PZ                                                00038269                 2021                     -82795                   20211228                 00016800
SIN            2022000030     00001S750           008741-LAT                                             0000016940          00000000002000PZ                                                00038285                 2021                     -82810                   20211229                 00016940
SIN            2022000030     00002S750           021940-LAT                                             0000017020          00000000002000PZ                                                00038285                 2021                     -82810                   20211229                 00017020
SIN            2022000030     00003S750           014656-LAT                                             0000017100          00000000002000PZ                                                00038285                 2021                     -82810                   20211229                 00017100
SIN            2022000033     00001S750           021538-LAT                                             0000020000          00000000001000PZ                                                00038271                 2021                     -82797                   20211228                 00020000
SIN            2022000033     00002S750           014656-LAT                                             0000017100          00000000001000PZ                                                00038271                 2021                     -82797                   20211228                 00017100
SIN            2022000033     00003S750           014660-LAT                                             0000016880          00000000001000PZ                                                00038271                 2021                     -82797                   20211228                 00016880
SIN            2022000033     00004S750           033714-LAT                                             0000016800          00000000002000PZ                                                00038271                 2021                     -82797                   20211228                 00016800
SIN            2022000034     00001S750           021524-C04                                             0000005275          00000000004000PZ                                                00037339                 2021                     -82503                   20211214                 00005275
SIN            2022000034     00002S750           021538-LAT                                             0000020000          00000000001000PZ                                                00037339                 2021                     -82503                   20211214                 00020000
SIN            2022000034     00003S750           014642-LAT                                             0000016960          00000000001000PZ                                                00037339                 2021                     -82503                   20211214                 00016960
SIN            2022000034     00004S750           014647-LAT                                             0000017020          00000000001000PZ                                                00037339                 2021                     -82503                   20211214                 00017020
SIN            2022000034     00005S750           014656-LAT                                             0000017100          00000000001000PZ                                                00037339                 2021                     -82503                   20211214                 00017100
SIN            2022000034     00006S750           014660-LAT                                             0000016880          00000000001000PZ                                                00037339                 2021                     -82503                   20211214                 00016880
SIN            2022000034     00007S750           033714-LAT                                             0000016800          00000000001000PZ                                                00037339                 2021                     -82503                   20211214                 00016800
SIN            2022000034     00008S750           034482-LAT                                             0000016800          00000000001000PZ                                                00037339                 2021                     -82503                   20211214                 00016800
SIN            2022000034     00009S750           022421-LAT                                             0000016680          00000000001000PZ                                                00037339                 2021                     -82503                   20211214                 00016680
SIN            2022000034     00010S750           021940-LAT                                             0000017020          00000000001000PZ                                                00037339                 2021                     -82503                   20211214                 00017020
SIN            2022000034     00011S750           021939-LAT                                             0000017000          00000000001000PZ                                                00037339                 2021                     -82503                   20211214                 00017000
SIN            2022000040     00001S750           013994-FTO                                             0000177840          00000000002000PZ                                                00026372                 2021                     1994-78891               20210924                 00177840
SIN            2022000042     00001S750           031384-C20                                             0000000030          00000000100000PZ                                                00038302                 2021                     -82781                   20211224                 00000030
SIN            2022000043     00001S750           023372-VIS                                             0000001200          00000000003000PZ                                                00033050                 2021                     -81243                   20211111                 00001200
SIN            2022000043     00002S750           027857-VIS                                             0000001300          00000000002000PZ                                                00033050                 2021                     -81243                   20211111                 00001300
SIN            2022000043     00003S750           022250-VIS                                             0000008250          00000000002000PZ                                                00037438                 2021                     -82517                   20211214                 00008250
SIN            2022000044     00001S750           000560-C20                                             0000000870          00000000660000PZ                                                00038305                 2021                     -82805                   20211228                 00000870
SIN            2022000044     00002S750           026716-C20                                             0000000855          00000001320000PZ                                                00038305                 2021                     -82805                   20211228                 00000855
SIN            2022000044     00003S750           000560-C20                                             0000000870          00000000060000PZ                                                00038305                 2021                     -82805                   20211228                 00000870
SIN            2022000044     00004S750           026716-C20                                             0000000890          00000000120000PZ                                                00038305                 2021                     -82805                   20211228                 00000890
SIN            2022000045     00001S750           034583-C20                                             0000000880          00000000020000PZ                                                00038142                 2021                     -82761                   20211223                 00000880
SIN            2022000045     00002S750           029590-C12                                             0000000880          00000000024000PZ                                                00038142                 2021                     -82761                   20211223                 00000880
SIN            2022000045     00003S750           029588-C12                                             0000000880          00000000024000PZ                                                00038142                 2021                     -82761                   20211223                 00000880
SIN            2022000045     00004S750           031723-C12                                             0000000850          00000000024000PZ                                                00038142                 2021                     -82761                   20211223                 00000850
SIN            2022000045     00005S750           026808-C12                                             0000001000          00000000012000PZ                                                00038142                 2021                     -82761                   20211223                 00001000
SIN            2022000045     00006S750           026809-C12                                             0000001000          00000000012000PZ                                                00038142                 2021                     -82761                   20211223                 00001000
SIN            2022000046     00001S750           022260-VIS                                             0000016400          00000000006000PZ                                                00037292                 2021                     -82460                   20211214                 00016400
SIN            2022000046     00002S750           022260-VIS                                             0000016400          00000000001000PZ                                                00037292                 2021                     -82460                   20211214                 00016400
SIN            2022000047     00001S750           011789-LAT                                             0000017000          00000000001000PZ                                                00025248                 2021                     -78429                   20210914                 00017000
SIN            2022000047     00002S750           026777-C04                                             0000005000          00000000012000PZ                                                00025248                 2021                     -78429                   20210914                 00005000
SIN            2022000047     00003S750           026792-C12                                             0000000890          00000000048000PZ                                                00025248                 2021                     -78429                   20210914                 00000890
SIN            2022000048     00001S750           015701-C12                                             0000001000          00000000120000PZ                                                00038309                 2021                     -82821                   20211230                 00001000
SIN            2022000048     00002S750           015702-C12                                             0000001000          00000000120000PZ                                                00038309                 2021                     -82821                   20211230                 00001000
SIN            2022000048     00003S750           010521-C12                                             0000000860          00000000048000PZ                                                00038309                 2021                     -82821                   20211230                 00000860
SIN            2022000048     00004S750           010517-C12                                             0000000850          00000000120000PZ                                                00038309                 2021                     -82821                   20211230                 00000850
SIN            2022000049     00001S750           029588-C12                                             0000000880          00000000012000PZ                                                00023759                 2021                     -77873                   20210902                 00000880
SIN            2022000050     00001S750           032292-VIS                                             0000016080          00000000001000PZ                                                00037902                 2021                     -82688                   20211220                 00016080
SIN            2022000050     00002S750           010512-C04                                             0000003440          00000000020000PZ                                                00037902                 2021                     -82688                   20211220                 00003440
SIN            2022000051     00001S750           000307-C10                                             0000001750          00000000010000PZ                                                00031674                 2021                     SEVE-80799               20211103                 00001750
SIN            2022000052     00001S750           029622-C10                                             0000000150          00000000030000PZ                                                00034824                 2021                     -81832                   20211126                 00000150
SIN            2022000053     00001S750           009074-LAT                                             0000017720          00000000004000PZ                                                00037021                 2021                     -82413                   20211213                 00017720
SIN            2022000054     00001S750           026792-C12                                             0000000890          00000000060000PZ                                                00038308                 2021                     -82811                   20211229                 00000890
SIN            2022000054     00002S750           034583-C20                                             0000000880          00000000020000PZ                                                00038308                 2021                     -82811                   20211229                 00000880
SIN            2022000057     00001S750           026785-C12                                             0000000880          00000000036000PZ                                                00000004                 2022                     -82861                   20220103                 00000880
SIN            2022000057     00002S750           031725-C12                                             0000000850          00000000060000PZ                                                00000004                 2022                     -82861                   20220103                 00000850
SIN            2022000057     00003S750           031723-C12                                             0000000850          00000000060000PZ                                                00000004                 2022                     -82861                   20220103                 00000850
SIN            2022000057     00004S750           031256-C12                                             0000000200          00000000012000PZ                                                00000004                 2022                     -82861                   20220103                 00000200
SIN            2022000057     00005S750           029728-C12                                             0000000870          00000000120000PZ                                                00000004                 2022                     -82861                   20220103                 00000870
SIN            2022000058     00001S750           008751-FTO                                             0000183660          00000000001000PZ                                                00038144                 2021                     -82769                   20211223                 00183660
SIN            2022000059     00001S750           017353-FTO                                             0000178048          00000000004000PZ                                                00038297                 2021                     21/91044-82793           20211228                 00178048
SIN            2022000061     00001S750           008795-FTO                                             0000181790          00000000003000PZ                                                00027542                 2021                     -79310                   20211004                 00181790
SIN            2022000061     00002S750           008795-FTO                                             0000181790          00000000001000PZ                                                00027542                 2021                     -79310                   20211004                 00181790
SIN            2022000061     00003S750           026792-C12                                             0000000890          00000000660000PZ                                                00037713                 2021                     -82621                   20211217                 00000890
SIN            2022000062     00001S750           031817-VIS                                             0000011175          00000000025000PZ                                                00035339                 2021                     -81943                   20211129                 00011175
SIN            2022000062     00002S750           031818-VIS                                             0000011643          00000000012000PZ                                                00035339                 2021                     -81943                   20211129                 00011643
SIN            2022000062     00003S750           031817-VIS                                             0000012069          00000000005000PZ                                                00035339                 2021                     -81943                   20211129                 00012069
SIN            2022000062     00004S750           031818-VIS                                             0000015525          00000000005000PZ                                                00035339                 2021                     -81943                   20211129                 00015525
SIN            2022000063     00001S750           014642-LAT                                             0000016960          00000000002000PZ                                                00038188                 2021                     -82786                   20211227                 00016960
SIN            2022000063     00002S750           014660-LAT                                             0000016880          00000000002000PZ                                                00038188                 2021                     -82786                   20211227                 00016880
SIN            2022000063     00003S750           014647-LAT                                             0000017020          00000000001000PZ                                                00038188                 2021                     -82786                   20211227                 00017020
SIN            2022000063     00004S750           014656-LAT                                             0000017100          00000000002000PZ                                                00038188                 2021                     -82786                   20211227                 00017100
SIN            2022000063     00005S750           034482-LAT                                             0000016800          00000000003000PZ                                                00038188                 2021                     -82786                   20211227                 00016800
SIN            2022000063     00006S750           021940-LAT                                             0000017020          00000000003000PZ                                                00038188                 2021                     -82786                   20211227                 00017020
SIN            2022000064     00001S750           013874-FTO                                             0000170000          00000000004000PZ                                                00035745                 2021                     -82031                   20211201                 00170000
SIN            2022000064     00002S750           013876-FTO                                             0000170000          00000000004000PZ                                                00035745                 2021                     -82031                   20211201                 00170000
SIN            2022000064     00003S750           010312-C12                                             0000000850          00000000288000PZ                                                00035745                 2021                     -82031                   20211201                 00000850
SIN            2022000064     00004S750           010316-C12                                             0000000850          00000000288000PZ                                                00035745                 2021                     -82031                   20211201                 00000850
SIN            2022000065     00001S750           017312-LAT                                             0000017280          00000000001000PZ                                                00038419                 2021                     -82838                   20211231                 00017280
SIN            2022000065     00002S750           018679-FTO                                             0000172000          00000000001000PZ                                                00038419                 2021                     -82838                   20211231                 00172000
SIN            2022000065     00003S750           021745-FTO                                             0000170000          00000000003000PZ                                                00038419                 2021                     -82838                   20211231                 00170000
SIN            2022000065     00004S750           026792-C12                                             0000000890          00000000024000PZ                                                00038419                 2021                     -82838                   20211231                 00000890
SIN            2022000067     00001S750           011835-FTO                                             0000170000          00000000001000PZ                                                00038146                 2021                     -82775                   20211223                 00170000
SIN            2022000068     00001S750           009816-LAT                                             0000017760          00000000001000PZ                                                00038131                 2021                     -82765                   20211223                 00017760
SIN            2022000068     00002S750           008736-LAT                                             0000017060          00000000002000PZ                                                00038131                 2021                     -82765                   20211223                 00017060
SIN            2022000068     00003S750           014656-LAT                                             0000017100          00000000006000PZ                                                00038131                 2021                     -82765                   20211223                 00017100
SIN            2022000069     00001S750           010114-LAT                                             0000017520          00000000003000PZ                                                00038181                 2021                     -82783                   20211224                 00017520
SIN            2022000069     00002S750           010112-LAT                                             0000017440          00000000001000PZ                                                00038181                 2021                     -82783                   20211224                 00017440
SIN            2022000070     00001S750           014642-LAT                                             0000016960          00000000010000PZ                                                00038407                 2021                     2101603-82825            20211230                 00016960
SIN            2022000070     00002S750           014660-LAT                                             0000016880          00000000010000PZ                                                00038407                 2021                     2101603-82825            20211230                 00016880
SIN            2022000070     00003S750           014655-FTO                                             0000177840          00000000001000PZ                                                00038407                 2021                     2101603-82825            20211230                 00177840
SIN            2022000070     00004S750           014651-FTO                                             0000177840          00000000002000PZ                                                00038407                 2021                     2101603-82825            20211230                 00177840
SIN            2022000071     00001S750           026792-C12                                             0000000890          00000000324000PZ                                                00033025                 2021                     -81265                   20211112                 00000890
SIN            2022000072     00001S750           010313-C04                                             0000003400          00000000040000PZ                                                00038304                 2021                     -82790                   20211227                 00003400
SIN            2022000072     00002S750           010317-C04                                             0000003480          00000000040000PZ                                                00038304                 2021                     -82790                   20211227                 00003480
SIN            2022000072     00003S750           013866-C12                                             0000000850          00000000060000PZ                                                00038304                 2021                     -82790                   20211227                 00000850
SIN            2022000072     00004S750           010476-C12                                             0000000854          00000000120000PZ                                                00038304                 2021                     -82790                   20211227                 00000854
SIN            2022000072     00005S750           016312-C12                                             0000000850          00000000060000PZ                                                00038304                 2021                     -82790                   20211227                 00000850
SIN            2022000072     00006S750           010454-C12                                             0000000850          00000000012000PZ                                                00038304                 2021                     -82790                   20211227                 00000850
SIN            2022000073     00001S750           010454-C12                                             0000000850          00000000048000PZ                                                00038304                 2021                     -82790                   20211227                 00000850
SIN            2022000073     00002S750           010308-C12                                             0000000850          00000000060000PZ                                                00038304                 2021                     -82790                   20211227                 00000850
SIN            2022000073     00003S750           022633-VIS                                             0000012525          00000000010000PZ                                                00038304                 2021                     -82790                   20211227                 00012525
SIN            2022000073     00004S750           029471-VIS                                             0000010350          00000000020000PZ                                                00038304                 2021                     -82790                   20211227                 00010350
SIN            2022000073     00005S750           029472-VIS                                             0000013200          00000000020000PZ                                                00038304                 2021                     -82790                   20211227                 00013200
SIN            2022000074     00001S750           026792-C12                                             0000000890          00000000552000PZ                                                00038116                 2021                     -82756                   20211222                 00000890
SIN            2022000075     00001S750           026792-C12                                             0000000890          00000000552000PZ                                                00038116                 2021                     -82756                   20211222                 00000890
SIN            2022000076     00001S750           026792-C12                                             0000000890          00000000216000PZ                                                00038116                 2021                     -82756                   20211222                 00000890
SIN            2022000076     00002S750           032328-LAT                                             0000020000          00000000001000PZ                                                00038116                 2021                     -82756                   20211222                 00020000
SIN            2022000077     00001S750           011835-FTO                                             0000170000          00000000005000PZ                                                00036655                 2021                                              20211209                 00170000
SIN            2022000078     00001S750           010516-C04                                             0000003480          00000000080000PZ                                                00035392                 2021                     -81970                   20211130                 00003480
SIN            2022000081     00001S750           022421-LAT                                             0000016680          00000000002000PZ                                                00038299                 2021                     82715                    20211222                 00016680
SIN            2022000081     00002S750           033714-LAT                                             0000016800          00000000008000PZ                                                00038299                 2021                     82715                    20211222                 00016800
SIN            2022000081     00003S750           021940-LAT                                             0000017020          00000000003000PZ                                                00038299                 2021                     82715                    20211222                 00017020
SIN            2022000081     00004S750           034482-LAT                                             0000016860          00000000003000PZ                                                00038299                 2021                     82715                    20211222                 00016860
SIN            2022000081     00005S750           014660-LAT                                             0000016880          00000000003000PZ                                                00038299                 2021                     82715                    20211222                 00016880
SIN            2022000083     00001S750           016655-C20                                             0000000843          00000000080000PZ                                                00030944                 2021                     -80498                   20211027                 00000843
SIN            2022000083     00002S750           016655-C20                                             0000000880          00000000020000PZ                                                00030944                 2021                     -80498                   20211027                 00000880
SIN            2022000084     00001S750           015033-C20                                             0000000850          00000000140000PZ                                                00035399                 2021                     -81987                   20211130                 00000850
SIN            2022000085     00001S750           009041-LAT                                             0000018000          00000000003000PZ                                                00038298                 2021                     13333/ZB/RT/BD-82799     20211228                 00018000
SIN            2022000085     00002S750           010293-LAT                                             0000018000          00000000011000PZ                                                00038298                 2021                     13333/ZB/RT/BD-82799     20211228                 00018000
SIN            2022000087     00001S750           031805-C12                                             0000000880          00000000012000PZ                                                00037280                 2021                     -82396                   20211211                 00000880
SIN            2022000088     00001S750           013488-VIS                                             0000039825          00000000006000PZ                                                00035348                 2021                     -81968                   20211130                 00039825
SIN            2022000088     00002S750           013488-VIS                                             0000039825          00000000001000PZ                                                00035348                 2021                     -81968                   20211130                 00039825
SIN            2022000089     00001S750           013488-VIS                                             0000039825          00000000022000PZ                                                00038092                 2021                     -82725                   20211222                 00039825
SIN            2022000089     00002S750           013488-VIS                                             0000039825          00000000002000PZ                                                00038092                 2021                     -82725                   20211222                 00039825
SIN            2022000092     00001S750           008743-C12                                             0000000868          00000000012000PZ                                                00037207                 2021                     ODA21IT00102602-82474    20211214                 00000868
SIN            2022000092     00002S750           010106-LAT                                             0000017340          00000000003000PZ                                                00037207                 2021                     ODA21IT00102602-82474    20211214                 00017340
SIN            2022000092     00003S750           009412-LAT                                             0000017400          00000000004000PZ                                                00037207                 2021                     ODA21IT00102602-82474    20211214                 00017400
SIN            2022000092     00004S750           008735-LAT                                             0000018040          00000000004000PZ                                                00037207                 2021                     ODA21IT00102602-82474    20211214                 00018040
SIN            2022000093     00001S750           010540-C12                                             0000000860          00000000012000PZ                                                00037998                 2021                     motorcar-82698           20211221                 00000860
SIN            2022000094     00001S750           014323-C12                                             0000000850          00000000024000PZ                                                00037892                 2021                     1970/LU-82669            20211220                 00000850
SIN            2022000095     00001S750           026800-LAT                                             0000017400          00000000028000PZ                                                00038301                 2021                     -82777                   20211223                 00017400
SIN            2022000096     00001S750           026800-LAT                                             0000017400          00000000008000PZ                                                00038301                 2021                     -82777                   20211223                 00017400
SIN            2022000096     00002S750           026800-LAT                                             0000017400          00000000003000PZ                                                00038301                 2021                     -82777                   20211223                 00017400
SIN            2022000097     00001S750           009854-FTO                                             0000180000          00000000002000PZ                                                00027081                 2021                     -79138                   20211030                 00180000
SIN            2022000097     00002S750           009854-FTO                                             0000180000          00000000002000PZ                                                00027081                 2021                     -79138                   20211030                 00180000
SIN            2022000098     00001S750           021524-C04                                             0000005275          00000000004000PZ                                                00038056                 2021                     -82716                   20211222                 00005275
SIN            2022000098     00002S750           021538-LAT                                             0000020000          00000000001000PZ                                                00038056                 2021                     -82716                   20211222                 00020000
SIN            2022000098     00003S750           014642-LAT                                             0000016960          00000000001000PZ                                                00038056                 2021                     -82716                   20211222                 00016960
SIN            2022000098     00004S750           008741-LAT                                             0000016940          00000000001000PZ                                                00038056                 2021                     -82716                   20211222                 00016940
SIN            2022000098     00005S750           014647-LAT                                             0000017020          00000000001000PZ                                                00038056                 2021                     -82716                   20211222                 00017020
SIN            2022000098     00006S750           014656-LAT                                             0000017100          00000000001000PZ                                                00038056                 2021                     -82716                   20211222                 00017100
SIN            2022000098     00007S750           014660-LAT                                             0000016880          00000000001000PZ                                                00038056                 2021                     -82716                   20211222                 00016880
SIN            2022000098     00008S750           033714-LAT                                             0000016800          00000000001000PZ                                                00038056                 2021                     -82716                   20211222                 00016800
SIN            2022000098     00009S750           034482-LAT                                             0000016860          00000000001000PZ                                                00038056                 2021                     -82716                   20211222                 00016860
SIN            2022000098     00010S750           022421-LAT                                             0000016680          00000000001000PZ                                                00038056                 2021                     -82716                   20211222                 00016680
SIN            2022000098     00011S750           021940-LAT                                             0000017020          00000000001000PZ                                                00038056                 2021                     -82716                   20211222                 00017020
SIN            2022000098     00012S750           021939-LAT                                             0000017000          00000000001000PZ                                                00038056                 2021                     -82716                   20211222                 00017000
SIN            2022000098     00013S750           021535-C24                                             0000000250          00000000024000PZ                                                00038056                 2021                     -82716                   20211222                 00000250
SIN            2022000099     00001S750           021524-C04                                             0000005275          00000000004000PZ                                                00038057                 2021                     -82717                   20211222                 00005275
SIN            2022000099     00002S750           021538-LAT                                             0000020000          00000000001000PZ                                                00038057                 2021                     -82717                   20211222                 00020000
SIN            2022000099     00003S750           014642-LAT                                             0000016960          00000000001000PZ                                                00038057                 2021                     -82717                   20211222                 00016960
SIN            2022000099     00004S750           008741-LAT                                             0000016940          00000000001000PZ                                                00038057                 2021                     -82717                   20211222                 00016940
SIN            2022000099     00005S750           014647-LAT                                             0000017020          00000000001000PZ                                                00038057                 2021                     -82717                   20211222                 00017020
SIN            2022000099     00006S750           014656-LAT                                             0000017100          00000000001000PZ                                                00038057                 2021                     -82717                   20211222                 00017100
SIN            2022000099     00007S750           014660-LAT                                             0000016880          00000000001000PZ                                                00038057                 2021                     -82717                   20211222                 00016880
SIN            2022000099     00008S750           033714-LAT                                             0000016800          00000000001000PZ                                                00038057                 2021                     -82717                   20211222                 00016800
SIN            2022000099     00009S750           034482-LAT                                             0000016860          00000000001000PZ                                                00038057                 2021                     -82717                   20211222                 00016860
SIN            2022000099     00010S750           022421-LAT                                             0000016680          00000000001000PZ                                                00038057                 2021                     -82717                   20211222                 00016680
SIN            2022000099     00011S750           021940-LAT                                             0000017020          00000000001000PZ                                                00038057                 2021                     -82717                   20211222                 00017020
SIN            2022000099     00012S750           021939-LAT                                             0000017000          00000000001000PZ                                                00038057                 2021                     -82717                   20211222                 00017000
SIN            2022000099     00013S750           021535-C24                                             0000000250          00000000024000PZ                                                00038057                 2021                     -82717                   20211222                 00000250
SIN            2022000100     00001S750           014660-LAT                                             0000016880          00000000005000PZ                                                00038410                 2021                     01/2022-82831            20211230                 00016880
SIN            2022000100     00002S750           014656-LAT                                             0000017100          00000000004000PZ                                                00038410                 2021                     01/2022-82831            20211230                 00017100
SIN            2022000100     00003S750           022421-LAT                                             0000016680          00000000003000PZ                                                00038410                 2021                     01/2022-82831            20211230                 00016680
SIN            2022000101     00001S750           014323-C12                                             0000000850          00000000024000PZ                                                00036459                 2021                     -82271                   20211207                 00000850
SIN            2022000102     00001S750           010316-C12                                             0000000850          00000000036000PZ                                                00035104                 2021                     -81865                   20211126                 00000850
SIN            2022000102     00002S750           015063-C12                                             0000000850          00000000024000PZ                                                00035104                 2021                     -81865                   20211126                 00000850
SIN            2022000102     00003S750           010312-C12                                             0000000850          00000000012000PZ                                                00035104                 2021                     -81865                   20211126                 00000850
SIN            2022000102     00004S750           013866-C12                                             0000000850          00000000012000PZ                                                00035104                 2021                     -81865                   20211126                 00000850
SIN            2022000102     00005S750           010318-LAT                                             0000017400          00000000004000PZ                                                00035104                 2021                     -81865                   20211126                 00017400
SIN            2022000102     00006S750           022373-LAT                                             0000018000          00000000003000PZ                                                00035104                 2021                     -81865                   20211126                 00018000
SIN            2022000102     00007S750           010310-LAT                                             0000017000          00000000002000PZ                                                00035104                 2021                     -81865                   20211126                 00017000
SIN            2022000102     00008S750           010314-LAT                                             0000017000          00000000002000PZ                                                00035104                 2021                     -81865                   20211126                 00017000
SIN            2022000102     00009S750           016315-C04                                             0000003373          00000000004000PZ                                                00035104                 2021                     -81865                   20211126                 00003373
SIN            2022000102     00010S750           013867-LAT                                             0000017200          00000000001000PZ                                                00035104                 2021                     -81865                   20211126                 00017200
SIN            2022000103     00001S750           031816-VIS                                             0000008400          00000000006000PZ                                                00037996                 2021                     -82650                   20211218                 00008400
SIN            2022000103     00002S750           031816-VIS                                             0000008400          00000000001000PZ                                                00037996                 2021                     -82650                   20211218                 00008400
SIN            2022000104     00001S750           026792-C12                                             0000000890          00000000072000PZ                                                00038307                 2021                     -82808                   20211229                 00000890
SIN            2022000104     00002S750           026865-C12                                             0000000871          00000000060000PZ                                                00038307                 2021                     -82808                   20211229                 00000871
SIN            2022000106     00001S750           011542-FTO                                             0000183240          00000000002000PZ                                                00038162                 2021                     656-82752                20211222                 00183240
SIN            2022000107     00001S750           008741-LAT                                             0000016940          00000000002000PZ                                                00038183                 2021                     -82785                   20211224                 00016940
SIN            2022000107     00002S750           022421-LAT                                             0000016680          00000000002000PZ                                                00038183                 2021                     -82785                   20211224                 00016680
SIN            2022000107     00003S750           014471-LAT                                             0000016840          00000000001000PZ                                                00038183                 2021                     -82785                   20211224                 00016840
SIN            2022000107     00004S750           021939-LAT                                             0000017000          00000000002000PZ                                                00038183                 2021                     -82785                   20211224                 00017000
SIN            2022000107     00005S750           014656-LAT                                             0000017100          00000000003000PZ                                                00038183                 2021                     -82785                   20211224                 00017100
SIN            2022000107     00006S750           010106-LAT                                             0000017340          00000000001000PZ                                                00038183                 2021                     -82785                   20211224                 00017340
SIN            2022000107     00007S750           010284-LAT                                             0000017560          00000000001000PZ                                                00038183                 2021                     -82785                   20211224                 00017560
SIN            2022000109     00001S750           029471-VIS                                             0000010350          00000000063000PZ                                                00036326                 2021                     -82218                   20211206                 00010350
SIN            2022000109     00002S750           010313-C04                                             0000003400          00000000008000PZ                                                00000005                 2022                     -82862                   20220103                 00003400
SIN            2022000109     00003S750           010316-C12                                             0000000850          00000000036000PZ                                                00000005                 2022                     -82862                   20220103                 00000850
SIN            2022000109     00004S750           010317-C04                                             0000003480          00000000016000PZ                                                00000005                 2022                     -82862                   20220103                 00003480
SIN            2022000109     00005S750           010318-LAT                                             0000017400          00000000002000PZ                                                00000005                 2022                     -82862                   20220103                 00017400
SIN            2022000109     00006S750           010476-C12                                             0000000854          00000000012000PZ                                                00000005                 2022                     -82862                   20220103                 00000854
SIN            2022000109     00007S750           013866-C12                                             0000000850          00000000012000PZ                                                00000005                 2022                     -82862                   20220103                 00000850
SIN            2022000109     00008S750           022566-C04                                             0000003400          00000000004000PZ                                                00000005                 2022                     -82862                   20220103                 00003400
SIN            2022000109     00009S750           016313-C04                                             0000003400          00000000004000PZ                                                00000005                 2022                     -82862                   20220103                 00003400
SIN            2022000109     00010S750           013867-LAT                                             0000017200          00000000002000PZ                                                00000005                 2022                     -82862                   20220103                 00017200
SIN            2022000110     00001S750           026807-C20                                             0000001000          00000000060000PZ                                                00034614                 2021                     -81661                   20211123                 00001000
SIN            2022000111     00001S750           015070-C04                                             0000004267          00000000008000PZ                                                00026313                 2021                     LS210921PUR1E1ad-78785   20210922                 00004267
SIN            2022000111     00002S750           015070-C04                                             0000004400          00000000008000PZ                                                00026316                 2021                                              20210922                 00004400
SIN            2022000111     00003S750           015070-C04                                             0000004400          00000000012000PZ                                                00026318                 2021                                              20210922                 00004400
SIN            2022000113     00001S750           026856-C04                                             0000004325          00000000004000PZ                                                00037890                 2021                     -82645                   20211217                 00004325
SIN            2022000113     00002S750           026798-C12                                             0000000890          00000000024000PZ                                                00037890                 2021                     -82645                   20211217                 00000890
SIN            2022000113     00003S750           026855-C12                                             0000000865          00000000024000PZ                                                00037890                 2021                     -82645                   20211217                 00000865
SIN            2022000113     00004S750           026805-C12                                             0000001217          00000000060000PZ                                                00037890                 2021                     -82645                   20211217                 00001217
SIN            2022000113     00005S750           026868-C04                                             0000005000          00000000020000PZ                                                00037890                 2021                     -82645                   20211217                 00005000
SIN            2022000113     00006S750           026810-C04                                             0000005000          00000000020000PZ                                                00037890                 2021                     -82645                   20211217                 00005000
SIN            2022000113     00007S750           026808-C12                                             0000001000          00000000060000PZ                                                00037890                 2021                     -82645                   20211217                 00001000
SIN            2022000113     00008S750           026809-C12                                             0000001145          00000000012000PZ                                                00037890                 2021                     -82645                   20211217                 00001145
SIN            2022000114     00001S750           010308-C12                                             0000000850          00000000012000PZ                                                00038306                 2021                     -82807                   20211228                 00000850
SIN            2022000114     00002S750           010309-C04                                             0000003400          00000000008000PZ                                                00038306                 2021                     -82807                   20211228                 00003400
SIN            2022000114     00003S750           010312-C12                                             0000000850          00000000012000PZ                                                00038306                 2021                     -82807                   20211228                 00000850
SIN            2022000114     00004S750           010313-C04                                             0000003400          00000000008000PZ                                                00038306                 2021                     -82807                   20211228                 00003400
SIN            2022000114     00005S750           010316-C12                                             0000000850          00000000012000PZ                                                00038306                 2021                     -82807                   20211228                 00000850
SIN            2022000114     00006S750           010317-C04                                             0000003480          00000000004000PZ                                                00038306                 2021                     -82807                   20211228                 00003480
SIN            2022000114     00007S750           012826-C12                                             0000001122          00000000012000PZ                                                00038306                 2021                     -82807                   20211228                 00001122
SIN            2022000117     00001S750           026712-C24                                             0000001000          00000000120000PZ                                                00038143                 2021                     -82768                   20211223                 00001000
SIN            2022000117     00002S750           026867-C04                                             0000005000          00000000016000PZ                                                00038143                 2021                     -82768                   20211223                 00005000
SIN            2022000118     00001S750           022256-VIS                                             0000011400          00000000002000PZ                                                00037286                 2021                     -82421                   20211213                 00011400
SIN            2022000118     00002S750           022252-VIS                                             0000010200          00000000001000PZ                                                00037286                 2021                     -82421                   20211213                 00010200
SIN            2022000118     00003S750           022248-VIS                                             0000008470          00000000006000PZ                                                00037286                 2021                     -82421                   20211213                 00008470
SIN            2022000119     00001S750           013488-VIS                                             0000039825          00000000010000PZ                                                00037496                 2021                     57928 - 57949            20211214                 00039825
SIN            2022000120     00001S750           026797-FTO                                             0000170000          00000000001000PZ                                                00038154                 2021                                              20211227                 00170000
SIN            2022000121     00001S750           014642-LAT                                             0000016960          00000000002000PZ                                                00038404                 2021                     -82822                   20211230                 00016960
SIN            2022000121     00002S750           034482-LAT                                             0000016800          00000000001000PZ                                                00038404                 2021                     -82822                   20211230                 00016800
SIN            2022000121     00003S750           014656-LAT                                             0000017100          00000000001000PZ                                                00038404                 2021                     -82822                   20211230                 00017100
SIN            2022000121     00004S750           008741-LAT                                             0000016940          00000000001000PZ                                                00038404                 2021                     -82822                   20211230                 00016940
SIN            2022000123     00001S750           031251-VIS                                             0000022600          00000000001000PZ                                                00038423                 2021                     29808-82841              20220103                 00022600
SIN            2022000124     00001S750           014091-C12                                             0000000851          00000000180000PZ                                                00038287                 2021                     29787-82813              20211229                 00000851
SIN            2022000126     00001S750           026969-VIS                                             0000001300          00000000003000PZ                                                00037931                 2021                     29720                    20211220                 00001300
SIN            2022000126     00002S750           026971-VIS                                             0000001300          00000000002000PZ                                                00037931                 2021                     29720                    20211220                 00001300
SIN            2022000126     00003S750           026972-VIS                                             0000001300          00000000004000PZ                                                00037931                 2021                     29720                    20211220                 00001300
SIN            2022000126     00004S750           026974-VIS                                             0000001300          00000000001000PZ                                                00037931                 2021                     29720                    20211220                 00001300
SIN            2022000126     00005S750           026975-VIS                                             0000001300          00000000001000PZ                                                00037931                 2021                     29720                    20211220                 00001300
SIN            2022000126     00006S750           033727-VIS                                             0000001200          00000000002000PZ                                                00037931                 2021                     29720                    20211220                 00001200
SIN            2022000126     00007S750           033728-VIS                                             0000001200          00000000002000PZ                                                00037931                 2021                     29720                    20211220                 00001200
SIN            2022000126     00008S750           033729-VIS                                             0000001200          00000000003000PZ                                                00037931                 2021                     29720                    20211220                 00001200
SIN            2022000127     00001S750           026971-VIS                                             0000001300          00000000002000PZ                                                00037932                 2021                     29719                    20211220                 00001300
SIN            2022000127     00002S750           026972-VIS                                             0000001300          00000000001000PZ                                                00037932                 2021                     29719                    20211220                 00001300
SIN            2022000127     00003S750           026973-VIS                                             0000001300          00000000002000PZ                                                00037932                 2021                     29719                    20211220                 00001300
SIN            2022000127     00004S750           026974-VIS                                             0000001300          00000000002000PZ                                                00037932                 2021                     29719                    20211220                 00001300
SIN            2022000127     00005S750           033726-VIS                                             0000001200          00000000001000PZ                                                00037932                 2021                     29719                    20211220                 00001200
SIN            2022000127     00006S750           033727-VIS                                             0000001200          00000000002000PZ                                                00037932                 2021                     29719                    20211220                 00001200
SIN            2022000127     00007S750           033728-VIS                                             0000001200          00000000002000PZ                                                00037932                 2021                     29719                    20211220                 00001200
SIN            2022000127     00008S750           033729-VIS                                             0000001200          00000000002000PZ                                                00037932                 2021                     29719                    20211220                 00001200
SIN            2022000127     00009S750           033730-VIS                                             0000001200          00000000002000PZ                                                00037932                 2021                     29719                    20211220                 00001200
SIN            2022000127     00010S750           033731-VIS                                             0000001200          00000000002000PZ                                                00037932                 2021                     29719                    20211220                 00001200
SIN            2022000128     00001S750           026967-VIS                                             0000000200          00000000001000PZ                                                00037933                 2021                     29718                    20211220                 00000200
SIN            2022000128     00002S750           026968-VIS                                             0000001300          00000000001000PZ                                                00037933                 2021                     29718                    20211220                 00001300
SIN            2022000128     00003S750           026969-VIS                                             0000001300          00000000001000PZ                                                00037933                 2021                     29718                    20211220                 00001300
SIN            2022000128     00004S750           026970-VIS                                             0000001300          00000000002000PZ                                                00037933                 2021                     29718                    20211220                 00001300
SIN            2022000128     00005S750           026973-VIS                                             0000001300          00000000002000PZ                                                00037933                 2021                     29718                    20211220                 00001300
SIN            2022000128     00006S750           026974-VIS                                             0000001300          00000000002000PZ                                                00037933                 2021                     29718                    20211220                 00001300
SIN            2022000128     00007S750           026975-VIS                                             0000001300          00000000002000PZ                                                00037933                 2021                     29718                    20211220                 00001300
SIN            2022000128     00008S750           026976-VIS                                             0000000200          00000000002000PZ                                                00037933                 2021                     29718                    20211220                 00000200
SIN            2022000128     00009S750           033725-VIS                                             0000001200          00000000002000PZ                                                00037933                 2021                     29718                    20211220                 00001200
SIN            2022000128     00010S750           033727-VIS                                             0000001200          00000000002000PZ                                                00037933                 2021                     29718                    20211220                 00001200
SIN            2022000128     00011S750           033728-VIS                                             0000001200          00000000002000PZ                                                00037933                 2021                     29718                    20211220                 00001200
SIN            2022000129     00001S750           026730-VIS                                             0000011168          00000000020000PZ                                                00037936                 2021                     29705                    20211219                 00011168
SIN            2022000129     00002S750           026729-VIS                                             0000013298          00000000020000PZ                                                00037936                 2021                     29705                    20211219                 00013298
SIN            2022000129     00003S750           026731-VIS                                             0000009668          00000000020000PZ                                                00037936                 2021                     29705                    20211219                 00009668
SIN            2022000129     00004S750           032990-C05                                             0000001600          00000000005000PZ                                                00037936                 2021                     29705                    20211219                 00001600
SIN            2022000129     00005S750           029375-VIS                                             0000010570          00000000020000PZ                                                00037936                 2021                     29705                    20211219                 00010570
SIN            2022000129     00006S750           026759-VIS                                             0000008760          00000000010000PZ                                                00037936                 2021                     29705                    20211219                 00008760
SIN            2022000129     00007S750           029468-VIS                                             0000000850          00000000001000PZ                                                00037936                 2021                     29705                    20211219                 00000850
SIN            2022000146     00001S750           026793-C04                                             0000003520          00000000004000PZ                                                00038171                 2021                     29757                    20211224                 00003520
SIN            2022000146     00002S750           026730-VIS                                             0000011168          00000000006000PZ                                                00038171                 2021                     29757                    20211224                 00011168
SIN            2022000146     00003S750           026729-VIS                                             0000013298          00000000008000PZ                                                00038171                 2021                     29757                    20211224                 00013298
SIN            2022000146     00004S750           026759-VIS                                             0000008760          00000000006000PZ                                                00038171                 2021                     29757                    20211224                 00008760
SIN            2022000146     00005S750           026792-C12                                             0000000890          00000000012000PZ                                                00038171                 2021                     29757                    20211224                 00000890
SIN            2022000147     00001S750           033712-C12                                             0000000880          00000000024000PZ                                                00038172                 2021                     29756                    20211224                 00000880
SIN            2022000147     00002S750           026761-C12                                             0000000892          00000000012000PZ                                                00038172                 2021                     29756                    20211224                 00000892
SIN            2022000147     00003S750           026759-VIS                                             0000008760          00000000006000PZ                                                00038172                 2021                     29756                    20211224                 00008760
SIN            2022000147     00004S750           026792-C12                                             0000000890          00000000024000PZ                                                00038172                 2021                     29756                    20211224                 00000890
SIN            2022000149     00001S750           034316-C04                                             0000003559          00000000004000PZ                                                00038174                 2021                     29736                    20211223                 00003559
SIN            2022000149     00002S750           026793-C04                                             0000003520          00000000004000PZ                                                00038174                 2021                     29736                    20211223                 00003520
SIN            2022000149     00003S750           026730-VIS                                             0000011168          00000000007000PZ                                                00038174                 2021                     29736                    20211223                 00011168
SIN            2022000149     00004S750           026971-VIS                                             0000001300          00000000001000PZ                                                00038174                 2021                     29736                    20211223                 00001300
SIN            2022000149     00005S750           026980-VIS                                             0000001300          00000000001000PZ                                                00038174                 2021                     29736                    20211223                 00001300
SIN            2022000149     00006S750           026981-VIS                                             0000001300          00000000001000PZ                                                00038174                 2021                     29736                    20211223                 00001300
SIN            2022000149     00007S750           026986-VIS                                             0000000200          00000000001000PZ                                                00038174                 2021                     29736                    20211223                 00000200
SIN            2022000149     00008S750           026988-VIS                                             0000001300          00000000001000PZ                                                00038174                 2021                     29736                    20211223                 00001300
SIN            2022000150     00001S750           026730-VIS                                             0000011168          00000000008000PZ                                                00038176                 2021                     29734                    20211223                 00011168
SIN            2022000150     00002S750           026729-VIS                                             0000013298          00000000010000PZ                                                00038176                 2021                     29734                    20211223                 00013298
SIN            2022000150     00003S750           026731-VIS                                             0000009668          00000000010000PZ                                                00038176                 2021                     29734                    20211223                 00009668
SIN            2022000150     00004S750           029725-C04                                             0000003492          00000000004000PZ                                                00038176                 2021                     29734                    20211223                 00003492
SIN            2022000150     00005S750           029724-C12                                             0000000866          00000000024000PZ                                                00038176                 2021                     29734                    20211223                 00000866
SIN            2022000150     00006S750           026784-C12                                             0000000859          00000000012000PZ                                                00038176                 2021                     29734                    20211223                 00000859
SIN            2022000150     00007S750           026973-VIS                                             0000001300          00000000002000PZ                                                00038176                 2021                     29734                    20211223                 00001300
