SIN            2023054372     00001S750           032390-C12                                             0000000857          00000000036000PZ                                                00028923                 2023                     8096684                  20230825                 000008571386315
SIN            2023062025     00001S750           029652-C05                                             0000000150          00000000005000PZ                                                00032892                 2023                     -112254                  20230921                 00000150
SIN            2023062025     00002S750           029651-C05                                             0000000150          00000000005000PZ                                                00032892                 2023                     -112254                  20230921                 00000150
SIN            2023062025     00003S750           029643-C05                                             0000000150          00000000005000PZ                                                00032892                 2023                     -112254                  20230921                 00000150
SIN            2023062025     00004S750           029642-C05                                             0000000150          00000000005000PZ                                                00032892                 2023                     -112254                  20230921                 00000150
SIN            2023062025     00005S750           029630-C10                                             0000000150          00000000010000PZ                                                00032892                 2023                     -112254                  20230921                 00000150
SIN            2023062025     00006S750           029628-C10                                             0000000150          00000000010000PZ                                                00032892                 2023                     -112254                  20230921                 00000150
SIN            2023062025     00007S750           029629-C10                                             0000000150          00000000010000PZ                                                00032892                 2023                     -112254                  20230921                 00000150
SIN            2023062025     00008S750           029627-C10                                             0000000150          00000000010000PZ                                                00032892                 2023                     -112254                  20230921                 00000150
SIN            2023062025     00009S750           029626-C10                                             0000000150          00000000010000PZ                                                00032892                 2023                     -112254                  20230921                 00000150
SIN            2023062025     00010S750           029625-C10                                             0000000150          00000000010000PZ                                                00032892                 2023                     -112254                  20230921                 00000150
SIN            2023062025     00011S750           029624-C10                                             0000000150          00000000010000PZ                                                00032892                 2023                     -112254                  20230921                 00000150
SIN            2023062025     00012S750           029622-C10                                             0000000150          00000000010000PZ                                                00032892                 2023                     -112254                  20230921                 00000150
SIN            2023062025     00013S750           029623-C10                                             0000000150          00000000010000PZ                                                00032892                 2023                     -112254                  20230921                 00000150
SIN            2023062025     00014S750           029621-C10                                             0000000150          00000000010000PZ                                                00032892                 2023                     -112254                  20230921                 00000150
SIN            2023062025     00015S750           007924-VIS                                             0000000001          00000000001000PZ                                                00032892                 2023                     -112254                  20230921                 00000001
SIN            2023064309     00001S750           026881-LAT                                             0000008500          00000000120000PZ                                                00034084                 2023                                              20231003                 00008500
SIN            2023065068     00001S750           029747-C04                                             0000003488          00000000008000PZ                                                00034566                 2023                     852-112967               20230930                 000034880918838
SIN            2023065068     00002S750           029750-C12                                             0000000851          00000000024000PZ                                                00034566                 2023                     852-112967               20230930                 000008510918841
SIN            2023065068     00003S750           029766-C04                                             0000003488          00000000008000PZ                                                00034566                 2023                     852-112967               20230930                 000034880791309
SIN            2023065068     00004S750           029769-C12                                             0000000870          00000000048000PZ                                                00034566                 2023                     852-112967               20230930                 000008700772049
SIN            2023065068     00005S750           037491-C12                                             0000000880          00000000048000PZ                                                00034566                 2023                     852-112967               20230930                 00000880
SIN            2023065075     00001S750           026777-C04                                             0000005000          00000000080000PZ                                                00034663                 2023                     -113006                  20231005                 00005000
SIN            2023065075     00002S750           026781-C12                                             0000001000          00000000120000PZ                                                00034663                 2023                     -113006                  20231005                 00001000
SIN            2023065075     00003S750           029387-C04                                             0000005000          00000000020000PZ                                                00034663                 2023                     -113006                  20231005                 00005000
SIN            2023065075     00004S750           032384-C12                                             0000001000          00000000060000PZ                                                00034663                 2023                     -113006                  20231005                 00001000
SIN            2023065075     00005S750           022378-VIS                                             0000000001          00000000001000PZ                                                00034663                 2023                     -113006                  20231005                 00000001
SIN            2023065075     00006S750           032384-C12                                             0000001000          00000000012000PZ                                                00034663                 2023                     -113006                  20231005                 00001000
SIN            2023065075     00007S750           026777-C04                                             0000005000          00000000024000PZ                                                00034663                 2023                     -113006                  20231005                 00005000
SIN            2023065075     00008S750           026781-C12                                             0000001000          00000000048000PZ                                                00034663                 2023                     -113006                  20231005                 00001000
SIN            2023065075     00009S750           029387-C04                                             0000005000          00000000004000PZ                                                00034663                 2023                     -113006                  20231005                 00005000
SIN            2023065077     00001S750           033699-LAT                                             0000016960          00000000001000PZ                                                00034615                 2023                     -112974                  20231004                 00016960
SIN            2023065077     00002S750           029815-LAT                                             0000016820          00000000003000PZ                                                00034615                 2023                     -112974                  20231004                 00016820
SIN            2023065077     00003S750           014660-LAT                                             0000016880          00000000002000PZ                                                00034615                 2023                     -112974                  20231004                 00016880
SIN            2023065077     00004S750           029816-LAT                                             0000017100          00000000002000PZ                                                00034615                 2023                     -112974                  20231004                 00017100
SIN            2023065077     00005S750           014652-LAT                                             0000017100          00000000002000PZ                                                00034615                 2023                     -112974                  20231004                 00017100
SIN            2023065077     00006S750           032988-LAT                                             0000017000          00000000001000PZ                                                00034615                 2023                     -112974                  20231004                 00017000
SIN            2023065077     00007S750           033701-LAT                                             0000017020          00000000001000PZ                                                00034615                 2023                     -112974                  20231004                 00017020
SIN            2023065077     00008S750           033714-LAT                                             0000016800          00000000001000PZ                                                00034615                 2023                     -112974                  20231004                 00016800
SIN            2023065078     00001S750           026881-LAT                                             0000008500          00000000060000PZ                                                00034662                 2023                     -113003                  20231005                 00008500
SIN            2023065078     00002S750           022378-VIS                                             0000000001          00000000001000PZ                                                00034662                 2023                     -113003                  20231005                 00000001
SIN            2023065079     00001S750           026881-LAT                                             0000008500          00000000060000PZ                                                00034661                 2023                     -113001                  20231005                 00008500
SIN            2023065079     00002S750           022378-VIS                                             0000000001          00000000001000PZ                                                00034661                 2023                     -113001                  20231005                 00000001
SIN            2023065086     00001S750           032297-C10                                             0000000030          00000000010000PZ                                                00034605                 2023                     OF202363631              20230926                 00000030
SIN            2023065086     00002S750           031706-C10                                             0000000030          00000000010000PZ                                                00034605                 2023                     OF202363631              20230926                 00000030
SIN            2023065086     00003S750           031236-C10                                             0000000030          00000000010000PZ                                                00034605                 2023                     OF202363631              20230926                 00000030
SIN            2023065086     00004S750           031708-C10                                             0000000030          00000000010000PZ                                                00034605                 2023                     OF202363631              20230926                 00000030
SIN            2023065086     00005S750           031702-C10                                             0000000030          00000000010000PZ                                                00034605                 2023                     OF202363631              20230926                 00000030
SIN            2023065086     00006S750           029672-VIS                                             0000013100          00000000002000PZ                                                00034605                 2023                     OF202363631              20230926                 00013100
SIN            2023065086     00007S750           029377-VIS                                             0000011200          00000000002000PZ                                                00034605                 2023                     OF202363631              20230926                 00011200
SIN            2023065086     00008S750           032356-VIS                                             0000008400          00000000002000PZ                                                00034605                 2023                     OF202363631              20230926                 00008400
SIN            2023065086     00009S750           032357-VIS                                             0000008925          00000000002000PZ                                                00034605                 2023                     OF202363631              20230926                 00008925
SIN            2023065086     00010S750           031704-C10                                             0000000030          00000000010000PZ                                                00034605                 2023                     OF202363631              20230926                 00000030
SIN            2023065086     00011S750           032347-C10                                             0000000030          00000000010000PZ                                                00034605                 2023                     OF202363631              20230926                 00000030
SIN            2023065086     00012S750           032350-C10                                             0000000030          00000000010000PZ                                                00034605                 2023                     OF202363631              20230926                 00000030
SIN            2023065086     00013S750           031240-C10                                             0000000060          00000000010000PZ                                                00034605                 2023                     OF202363631              20230926                 00000060
SIN            2023065086     00014S750           031705-C10                                             0000000030          00000000010000PZ                                                00034605                 2023                     OF202363631              20230926                 00000030
SIN            2023065086     00015S750           031241-C10                                             0000000030          00000000010000PZ                                                00034605                 2023                     OF202363631              20230926                 00000030
SIN            2023065086     00016S750           029651-C05                                             0000000150          00000000005000PZ                                                00034605                 2023                     OF202363631              20230926                 00000150
SIN            2023065086     00017S750           029654-C05                                             0000000150          00000000005000PZ                                                00034605                 2023                     OF202363631              20230926                 00000150
SIN            2023065086     00018S750           032341-C20                                             0000000030          00000000020000PZ                                                00034605                 2023                     OF202363631              20230926                 00000030
SIN            2023065086     00019S750           032345-C10                                             0000000030          00000000010000PZ                                                00034605                 2023                     OF202363631              20230926                 00000030
SIN            2023065086     00020S750           032346-C10                                             0000000030          00000000010000PZ                                                00034605                 2023                     OF202363631              20230926                 00000030
SIN            2023065086     00021S750           032349-C10                                             0000000030          00000000010000PZ                                                00034605                 2023                     OF202363631              20230926                 00000030
SIN            2023065086     00022S750           032352-C10                                             0000000030          00000000010000PZ                                                00034605                 2023                     OF202363631              20230926                 00000030
SIN            2023065086     00023S750           032353-C10                                             0000000030          00000000010000PZ                                                00034605                 2023                     OF202363631              20230926                 00000030
SIN            2023065086     00024S750           026759-VIS                                             0000008760          00000000002000PZ                                                00034605                 2023                     OF202363631              20230926                 00008760
SIN            2023065086     00025S750           026732-VIS                                             0000016658          00000000002000PZ                                                00034605                 2023                     OF202363631              20230926                 00016658
SIN            2023065100     00001S750           017092-C04                                             0000003373          00000000004000PZ                                                00034664                 2023                     -113011                  20231005                 00003373
SIN            2023065100     00002S750           011655-C04                                             0000003400          00000000004000PZ                                                00034664                 2023                     -113011                  20231005                 00003400
SIN            2023065100     00003S750           013995-C12                                             0000000870          00000000012000PZ                                                00034664                 2023                     -113011                  20231005                 00000870
SIN            2023065100     00004S750           026852-VIS                                             0000009825          00000000008000PZ                                                00034664                 2023                     -113011                  20231005                 00009825
SIN            2023065100     00005S750           026846-VIS                                             0000015075          00000000004000PZ                                                00034664                 2023                     -113011                  20231005                 00015075
SIN            2023065100     00006S750           026763-C04                                             0000003388          00000000004000PZ                                                00034664                 2023                     -113011                  20231005                 00003388
SIN            2023065100     00007S750           022378-VIS                                             0000000001          00000000001000PZ                                                00034664                 2023                     -113011                  20231005                 00000001
SIN            2023065103     00001S750           029816-LAT                                             0000017100          00000000002000PZ                                                00034616                 2023                     -112977                  20231004                 00017100
SIN            2023065103     00002S750           033699-LAT                                             0000016960          00000000003000PZ                                                00034616                 2023                     -112977                  20231004                 00016960
SIN            2023065106     00001S750           037240-LAT                                             0000016920          00000000002000PZ                                                00034619                 2023                     -112989                  20231005                 00016920
SIN            2023065106     00002S750           029815-LAT                                             0000016820          00000000001000PZ                                                00034619                 2023                     -112989                  20231005                 00016820
SIN            2023065106     00003S750           033525-LAT                                             0000017020          00000000001000PZ                                                00034619                 2023                     -112989                  20231005                 00017020
SIN            2023065106     00004S750           032988-LAT                                             0000017000          00000000001000PZ                                                00034619                 2023                     -112989                  20231005                 00017000
SIN            2023065106     00005S750           033699-LAT                                             0000016960          00000000002000PZ                                                00034619                 2023                     -112989                  20231005                 00016960
SIN            2023065107     00001S750           037240-LAT                                             0000016920          00000000001000PZ                                                00034620                 2023                     -112990                  20231005                 00016920
SIN            2023065107     00002S750           008736-LAT                                             0000017060          00000000001000PZ                                                00034620                 2023                     -112990                  20231005                 00017060
SIN            2023065107     00003S750           010113-FTO                                             0000182210          00000000001000PZ                                                00034620                 2023                     -112990                  20231005                 00182210
SIN            2023065109     00001S750           015243-VIS                                             0000013200          00000000006000PZ                                                00034579                 2023                     -112992                  20231005                 00013200
SIN            2023065109     00002S750           022344-VIS                                             0000016280          00000000005000PZ                                                00034579                 2023                     -112992                  20231005                 00016280
SIN            2023065109     00003S750           022378-VIS                                             0000000001          00000000001000PZ                                                00034579                 2023                     -112992                  20231005                 00000001
SIN            2023065110     00001S750           011648-C12                                             0000000870          00000000012000PZ                                                00034564                 2023                     -112988                  20231005                 00000870
SIN            2023065110     00002S750           011664-C12                                             0000000840          00000000012000PZ                                                00034564                 2023                     -112988                  20231005                 00000840
SIN            2023065110     00003S750           013995-C12                                             0000000870          00000000024000PZ                                                00034564                 2023                     -112988                  20231005                 00000870
SIN            2023065110     00004S750           011843-C12                                             0000000850          00000000024000PZ                                                00034564                 2023                     -112988                  20231005                 00000850
SIN            2023065110     00005S750           035530-C12                                             0000000850          00000000024000PZ                                                00034564                 2023                     -112988                  20231005                 00000850
SIN            2023065110     00006S750           032325-C12                                             0000000880          00000000012000PZ                                                00034564                 2023                     -112988                  20231005                 00000880
SIN            2023065110     00007S750           036358-C12                                             0000000850          00000000012000PZ                                                00034564                 2023                     -112988                  20231005                 00000850
SIN            2023065110     00008S750           022378-VIS                                             0000000001          00000000001000PZ                                                00034564                 2023                     -112988                  20231005                 00000001
SIN            2023065112     00001S750           026784-C12                                             0000000859          00000000012000PZ                                                00034567                 2023                     0093548                  20231004                 0000085969919
SIN            2023065112     00002S750           029770-C04                                             0000003045          00000000004000PZ                                                00034567                 2023                     0093548                  20231004                 00003045308896
SIN            2023065112     00003S750           031254-C24                                             0000000082          00000000024000PZ                                                00034567                 2023                     0093548                  20231004                 00000082308940
SIN            2023065112     00004S750           032395-C03                                             0000003556          00000000003000PZ                                                00034567                 2023                     0093548                  20231004                 00003556333836
SIN            2023065112     00005S750           031259-C12                                             0000000200          00000000024000PZ                                                00034567                 2023                     0093548                  20231004                 00000200655389
SIN            2023065112     00006S750           029735-C12                                             0000000848          00000000012000PZ                                                00034567                 2023                     0093548                  20231004                 00000848655433
SIN            2023065112     00007S750           029767-C12                                             0000000875          00000000012000PZ                                                00034567                 2023                     0093548                  20231004                 00000875655457
SIN            2023065112     00008S750           029758-C04                                             0000003408          00000000004000PZ                                                00034567                 2023                     0093548                  20231004                 00003408896416
SIN            2023065112     00009S750           031728-C03                                             0000003428          00000000003000PZ                                                00034567                 2023                     0093548                  20231004                 000034283011168
SIN            2023065112     00010S750           026792-C12                                             0000000848          00000000012000PZ                                                00034567                 2023                     0093548                  20231004                 000008483150041
SIN            2023065112     00011S750           026776-C24                                             0000000088          00000000024000PZ                                                00034567                 2023                     0093548                  20231004                 000000883858480
SIN            2023065112     00012S750           031243-C12                                             0000000528          00000000012000PZ                                                00034567                 2023                     0093548                  20231004                 000005283858527
SIN            2023065112     00013S750           031812-C12                                             0000000865          00000000012000PZ                                                00034567                 2023                     0093548                  20231004                 000008653858558
SIN            2023065112     00014S750           029757-C12                                             0000000850          00000000012000PZ                                                00034567                 2023                     0093548                  20231004                 000008504159500
SIN            2023065112     00015S750           032398-C12                                             0000000847          00000000012000PZ                                                00034567                 2023                     0093548                  20231004                 000008475162042
SIN            2023065112     00016S750           032399-C03                                             0000003388          00000000003000PZ                                                00034567                 2023                     0093548                  20231004                 000033885162226
SIN            2023065112     00017S750           032396-C03                                             0000003504          00000000003000PZ                                                00034567                 2023                     0093548                  20231004                 000035047107126
SIN            2023065112     00018S750           026872-C04                                             0000003338          00000000004000PZ                                                00034567                 2023                     0093548                  20231004                 000033388621423
SIN            2023065112     00019S750           029761-C12                                             0000000872          00000000012000PZ                                                00034567                 2023                     0093548                  20231004                 000008728777250
SIN            2023065112     00020S750           029769-C12                                             0000000870          00000000012000PZ                                                00034567                 2023                     0093548                  20231004                 000008708777311
SIN            2023065112     00021S750           026793-C04                                             0000003392          00000000004000PZ                                                00034567                 2023                     0093548                  20231004                 000033929174775
SIN            2023065113     00001S750           035706-C04                                             0000003464          00000000020000PZ                                                00034576                 2023                     -110784                  20230828                 00003464
SIN            2023065113     00002S750           035705-C12                                             0000000866          00000000060000PZ                                                00034576                 2023                     -110784                  20230828                 00000866
SIN            2023065113     00003S750           022378-VIS                                             0000000001          00000000001000PZ                                                00034576                 2023                     -110784                  20230828                 00000001
SIN            2023065113     00004S750           026881-LAT                                             0000008500          00000000017000PZ                                                00034576                 2023                     -110784                  20230828                 00008500
SIN            2023065113     00005S750           011799-C04                                             0000003480          00000000016000PZ                                                00034577                 2023                     -112751                  20231002                 00003480
SIN            2023065113     00006S750           026872-C04                                             0000003338          00000000004000PZ                                                00034577                 2023                     -112751                  20231002                 00003338
SIN            2023065113     00007S750           036349-C04                                             0000003600          00000000008000PZ                                                00034577                 2023                     -112751                  20231002                 00003600
SIN            2023065113     00008S750           026871-C12                                             0000000880          00000000024000PZ                                                00034577                 2023                     -112751                  20231002                 00000880
SIN            2023065113     00009S750           032327-C12                                             0000000880          00000000060000PZ                                                00034577                 2023                     -112751                  20231002                 00000880
SIN            2023065113     00010S750           036359-C12                                             0000000850          00000000012000PZ                                                00034577                 2023                     -112751                  20231002                 00000850
SIN            2023065113     00011S750           036360-C12                                             0000000850          00000000012000PZ                                                00034577                 2023                     -112751                  20231002                 00000850
SIN            2023065113     00012S750           036314-C03                                             0000000900          00000000006000PZ                                                00034577                 2023                     -112751                  20231002                 00000900
SIN            2023065113     00013S750           035530-C12                                             0000000850          00000000024000PZ                                                00034577                 2023                     -112751                  20231002                 00000850
SIN            2023065113     00014S750           036357-C12                                             0000000850          00000000024000PZ                                                00034577                 2023                     -112751                  20231002                 00000850
SIN            2023065113     00015S750           036314-C03                                             0000000900          00000000003000PZ                                                00034577                 2023                     -112751                  20231002                 00000900
SIN            2023065116     00001S750           008243-C12                                             0000000875          00000000012000PZ                                                00034578                 2023                     -112982                  20231004                 00000875
SIN            2023065116     00002S750           027367-C12                                             0000000840          00000000012000PZ                                                00034578                 2023                     -112982                  20231004                 00000840
SIN            2023065116     00003S750           029604-C12                                             0000000880          00000000012000PZ                                                00034578                 2023                     -112982                  20231004                 00000880
SIN            2023065116     00004S750           033542-C12                                             0000000880          00000000012000PZ                                                00034578                 2023                     -112982                  20231004                 00000880
SIN            2023065116     00005S750           029619-C12                                             0000000880          00000000012000PZ                                                00034578                 2023                     -112982                  20231004                 00000880
SIN            2023065116     00006S750           026752-C12                                             0000000850          00000000012000PZ                                                00034578                 2023                     -112982                  20231004                 00000850
SIN            2023065116     00007S750           016869-C12                                             0000000840          00000000012000PZ                                                00034578                 2023                     -112982                  20231004                 00000840
SIN            2023065116     00008S750           026749-C12                                             0000000860          00000000012000PZ                                                00034578                 2023                     -112982                  20231004                 00000860
SIN            2023065116     00009S750           026784-C12                                             0000000859          00000000024000PZ                                                00034578                 2023                     -112982                  20231004                 00000859
SIN            2023065116     00010S750           029590-C12                                             0000000851          00000000012000PZ                                                00034578                 2023                     -112982                  20231004                 00000851
SIN            2023065116     00011S750           029605-C12                                             0000000880          00000000012000PZ                                                00034578                 2023                     -112982                  20231004                 00000880
SIN            2023065116     00012S750           029728-C12                                             0000000870          00000000024000PZ                                                00034578                 2023                     -112982                  20231004                 00000870
SIN            2023065116     00013S750           022378-VIS                                             0000000001          00000000001000PZ                                                00034578                 2023                     -112982                  20231004                 00000001
SIN            2023065116     00014S750           026805-C12                                             0000001217          00000000024000PZ                                                00034578                 2023                     -112982                  20231004                 00001217
SIN            2023065118     00001S750           026759-VIS                                             0000008760          00000000020000PZ                                                00034626                 2023                     37946                    20231005                 00008760
SIN            2023065119     00001S750           026759-VIS                                             0000008760          00000000008000PZ                                                00034627                 2023                     37945                    20231005                 00008760
SIN            2023065120     00001S750           026759-VIS                                             0000008760          00000000007000PZ                                                00034628                 2023                     37944                    20231005                 00008760
SIN            2023065121     00001S750           018320-VIS                                             0000000200          00000000001000PZ                                                00034635                 2023                     37931                    20231004                 00000200
SIN            2023065121     00002S750           034861-VIS                                             0000001200          00000000001000PZ                                                00034635                 2023                     37931                    20231004                 00001200
SIN            2023065121     00003S750           034860-VIS                                             0000001200          00000000001000PZ                                                00034635                 2023                     37931                    20231004                 00001200
SIN            2023065121     00004S750           026970-VIS                                             0000001300          00000000001000PZ                                                00034635                 2023                     37931                    20231004                 00001300
SIN            2023065122     00001S750           033730-VIS                                             0000001200          00000000007000PZ                                                00034636                 2023                     37930                    20231004                 00001200
SIN            2023065122     00002S750           033729-VIS                                             0000001200          00000000010000PZ                                                00034636                 2023                     37930                    20231004                 00001200
SIN            2023065122     00003S750           033728-VIS                                             0000001200          00000000002000PZ                                                00034636                 2023                     37930                    20231004                 00001200
SIN            2023065122     00004S750           033728-VIS                                             0000001200          00000000010000PZ                                                00034636                 2023                     37930                    20231004                 00001200
SIN            2023065122     00005S750           033727-VIS                                             0000001200          00000000002000PZ                                                00034636                 2023                     37930                    20231004                 00001200
SIN            2023065122     00006S750           033727-VIS                                             0000001200          00000000010000PZ                                                00034636                 2023                     37930                    20231004                 00001200
SIN            2023065122     00007S750           033726-VIS                                             0000001200          00000000001000PZ                                                00034636                 2023                     37930                    20231004                 00001200
SIN            2023065122     00008S750           033726-VIS                                             0000001200          00000000005000PZ                                                00034636                 2023                     37930                    20231004                 00001200
SIN            2023065122     00009S750           033725-VIS                                             0000001200          00000000005000PZ                                                00034636                 2023                     37930                    20231004                 00001200
SIN            2023065122     00010S750           033724-VIS                                             0000001200          00000000005000PZ                                                00034636                 2023                     37930                    20231004                 00001200
SIN            2023065122     00011S750           026975-VIS                                             0000001300          00000000003000PZ                                                00034636                 2023                     37930                    20231004                 00001300
SIN            2023065122     00012S750           026974-VIS                                             0000001300          00000000005000PZ                                                00034636                 2023                     37930                    20231004                 00001300
SIN            2023065122     00013S750           026973-VIS                                             0000001300          00000000001000PZ                                                00034636                 2023                     37930                    20231004                 00001300
SIN            2023065122     00014S750           026973-VIS                                             0000001300          00000000005000PZ                                                00034636                 2023                     37930                    20231004                 00001300
SIN            2023065122     00015S750           026972-VIS                                             0000001300          00000000005000PZ                                                00034636                 2023                     37930                    20231004                 00001300
SIN            2023065122     00016S750           026971-VIS                                             0000001300          00000000001000PZ                                                00034636                 2023                     37930                    20231004                 00001300
SIN            2023065122     00017S750           026971-VIS                                             0000001300          00000000005000PZ                                                00034636                 2023                     37930                    20231004                 00001300
SIN            2023065122     00018S750           026970-VIS                                             0000001300          00000000001000PZ                                                00034636                 2023                     37930                    20231004                 00001300
SIN            2023065122     00019S750           026970-VIS                                             0000001300          00000000005000PZ                                                00034636                 2023                     37930                    20231004                 00001300
SIN            2023065122     00020S750           026969-VIS                                             0000001300          00000000005000PZ                                                00034636                 2023                     37930                    20231004                 00001300
SIN            2023065123     00001S750           026759-VIS                                             0000008760          00000000030000PZ                                                00034637                 2023                     37927                    20231004                 00008760
SIN            2023065123     00002S750           026731-VIS                                             0000009668          00000000040000PZ                                                00034637                 2023                     37927                    20231004                 00009668
SIN            2023065123     00003S750           026729-VIS                                             0000013298          00000000020000PZ                                                00034637                 2023                     37927                    20231004                 00013298
SIN            2023065123     00004S750           026730-VIS                                             0000011168          00000000020000PZ                                                00034637                 2023                     37927                    20231004                 00011168
SIN            2023065123     00005S750           029376-VIS                                             0000022480          00000000005000PZ                                                00034637                 2023                     37927                    20231004                 00022480
SIN            2023065124     00001S750           036843-C12                                             0000000870          00000000012000PZ                                                00034124                 2023                     37914                    20231003                 00000870
SIN            2023065124     00002S750           036837-C04                                             0000003460          00000000004000PZ                                                00034124                 2023                     37914                    20231003                 00003460
SIN            2023065124     00003S750           034858-VIS                                             0000001200          00000000001000PZ                                                00034124                 2023                     37914                    20231003                 00001200
SIN            2023065124     00004S750           035043-C12                                             0000000400          00000000012000PZ                                                00034124                 2023                     37914                    20231003                 00000400
SIN            2023065124     00005S750           026793-C04                                             0000003392          00000000004000PZ                                                00034124                 2023                     37914                    20231003                 00003392
SIN            2023065124     00006S750           026741-C12                                             0000000864          00000000012000PZ                                                00034124                 2023                     37914                    20231003                 00000864
SIN            2023065124     00007S750           034642-VIS                                             0000000850          00000000001000PZ                                                00034124                 2023                     37914                    20231003                 00000850
SIN            2023065124     00008S750           029438-VIS                                             0000000850          00000000001000PZ                                                00034124                 2023                     37914                    20231003                 00000850
SIN            2023065125     00001S750           029345-C05                                             0000002120          00000000005000PZ                                                00034127                 2023                     37911                    20231003                 00002120
SIN            2023065125     00002S750           026792-C12                                             0000000848          00000000012000PZ                                                00034127                 2023                     37911                    20231003                 00000848
SIN            2023065125     00003S750           037237-C12                                             0000000880          00000000012000PZ                                                00034127                 2023                     37911                    20231003                 00000880
SIN            2023065125     00004S750           034664-VIS                                             0000000850          00000000005000PZ                                                00034127                 2023                     37911                    20231003                 00000850
SIN            2023065125     00005S750           018506-VIS                                             0000000200          00000000001000PZ                                                00034127                 2023                     37911                    20231003                 00000200
SIN            2023065125     00006S750           034663-VIS                                             0000000850          00000000005000PZ                                                00034127                 2023                     37911                    20231003                 00000850
SIN            2023065125     00007S750           026983-VIS                                             0000001300          00000000001000PZ                                                00034127                 2023                     37911                    20231003                 00001300
SIN            2023065125     00008S750           029455-VIS                                             0000000850          00000000002000PZ                                                00034127                 2023                     37911                    20231003                 00000850
SIN            2023065125     00009S750           033727-VIS                                             0000001200          00000000001000PZ                                                00034127                 2023                     37911                    20231003                 00001200
SIN            2023065126     00001S750           037237-C12                                             0000000880          00000000012000PZ                                                00034623                 2023                     37949                    20231005                 00000880
SIN            2023065126     00002S750           036838-C12                                             0000000905          00000000012000PZ                                                00034623                 2023                     37949                    20231005                 00000905
SIN            2023065126     00003S750           036836-C12                                             0000000865          00000000012000PZ                                                00034623                 2023                     37949                    20231005                 00000865
SIN            2023065126     00004S750           036835-C04                                             0000003380          00000000004000PZ                                                00034623                 2023                     37949                    20231005                 00003380
SIN            2023065126     00005S750           036834-C12                                             0000000890          00000000012000PZ                                                00034623                 2023                     37949                    20231005                 00000890
SIN            2023065126     00006S750           034864-VIS                                             0000001200          00000000001000PZ                                                00034623                 2023                     37949                    20231005                 00001200
SIN            2023065126     00007S750           034633-VIS                                             0000000850          00000000001000PZ                                                00034623                 2023                     37949                    20231005                 00000850
SIN            2023065126     00008S750           033728-VIS                                             0000001200          00000000001000PZ                                                00034623                 2023                     37949                    20231005                 00001200
SIN            2023065126     00009S750           026985-VIS                                             0000001300          00000000001000PZ                                                00034623                 2023                     37949                    20231005                 00001300
SIN            2023065126     00010S750           026977-VIS                                             0000000200          00000000001000PZ                                                00034623                 2023                     37949                    20231005                 00000200
SIN            2023065126     00011S750           026792-C12                                             0000000848          00000000024000PZ                                                00034623                 2023                     37949                    20231005                 00000848
SIN            2023065126     00012S750           026759-VIS                                             0000008760          00000000002000PZ                                                00034623                 2023                     37949                    20231005                 00008760
SIN            2023065126     00013S750           029723-C04                                             0000003416          00000000004000PZ                                                00034623                 2023                     37949                    20231005                 00003416
SIN            2023065126     00014S750           026741-C12                                             0000000864          00000000012000PZ                                                00034623                 2023                     37949                    20231005                 00000864
SIN            2023065127     00001S750           036842-C12                                             0000000890          00000000012000PZ                                                00034625                 2023                     37947                    20231005                 00000890
SIN            2023065127     00002S750           036841-C04                                             0000003440          00000000004000PZ                                                00034625                 2023                     37947                    20231005                 00003440
SIN            2023065127     00003S750           036840-C12                                             0000000890          00000000012000PZ                                                00034625                 2023                     37947                    20231005                 00000890
SIN            2023065127     00004S750           036838-C12                                             0000000905          00000000024000PZ                                                00034625                 2023                     37947                    20231005                 00000905
SIN            2023065127     00005S750           036837-C04                                             0000003360          00000000012000PZ                                                00034625                 2023                     37947                    20231005                 00003360
SIN            2023065127     00006S750           036836-C12                                             0000000865          00000000012000PZ                                                00034625                 2023                     37947                    20231005                 00000865
SIN            2023065127     00007S750           036835-C04                                             0000003380          00000000004000PZ                                                00034625                 2023                     37947                    20231005                 00003380
SIN            2023065127     00008S750           036834-C12                                             0000000890          00000000012000PZ                                                00034625                 2023                     37947                    20231005                 00000890
SIN            2023065127     00009S750           031728-C03                                             0000003392          00000000003000PZ                                                00034625                 2023                     37947                    20231005                 00003392
SIN            2023065127     00010S750           029438-VIS                                             0000000850          00000000001000PZ                                                00034625                 2023                     37947                    20231005                 00000850
SIN            2023065127     00011S750           026741-C12                                             0000000864          00000000012000PZ                                                00034625                 2023                     37947                    20231005                 00000864
SIN            2023065127     00012S750           026793-C04                                             0000003392          00000000008000PZ                                                00034625                 2023                     37947                    20231005                 00003392
SIN            2023065128     00001S750           026793-C04                                             0000003392          00000000012000PZ                                                00034630                 2023                     37942                    20231005                 00003392
SIN            2023065129     00001S750           031727-C12                                             0000000880          00000000012000PZ                                                00034631                 2023                     37941                    20231005                 00000880
SIN            2023065129     00002S750           036841-C04                                             0000003440          00000000004000PZ                                                00034631                 2023                     37941                    20231005                 00003440
SIN            2023065129     00003S750           036838-C12                                             0000000905          00000000012000PZ                                                00034631                 2023                     37941                    20231005                 00000905
SIN            2023065129     00004S750           036837-C04                                             0000003360          00000000004000PZ                                                00034631                 2023                     37941                    20231005                 00003360
SIN            2023065129     00005S750           036835-C04                                             0000003380          00000000004000PZ                                                00034631                 2023                     37941                    20231005                 00003380
SIN            2023065129     00006S750           031728-C03                                             0000003392          00000000003000PZ                                                00034631                 2023                     37941                    20231005                 00003392
SIN            2023065129     00007S750           034859-VIS                                             0000001200          00000000002000PZ                                                00034631                 2023                     37941                    20231005                 00001200
SIN            2023065129     00008S750           033489-C04                                             0000003400          00000000004000PZ                                                00034631                 2023                     37941                    20231005                 00003400
SIN            2023065129     00009S750           029377-VIS                                             0000011200          00000000004000PZ                                                00034631                 2023                     37941                    20231005                 00011200
SIN            2023065130     00001S750           032398-C12                                             0000000880          00000000012000PZ                                                00034632                 2023                     37940                    20231005                 00000880
SIN            2023065130     00002S750           031727-C12                                             0000000880          00000000012000PZ                                                00034632                 2023                     37940                    20231005                 00000880
SIN            2023065130     00003S750           036842-C12                                             0000000890          00000000012000PZ                                                00034632                 2023                     37940                    20231005                 00000890
SIN            2023065130     00004S750           036837-C04                                             0000003360          00000000004000PZ                                                00034632                 2023                     37940                    20231005                 00003360
SIN            2023065130     00005S750           036836-C12                                             0000000865          00000000012000PZ                                                00034632                 2023                     37940                    20231005                 00000865
SIN            2023065130     00006S750           036835-C04                                             0000003380          00000000004000PZ                                                00034632                 2023                     37940                    20231005                 00003380
SIN            2023065130     00007S750           036834-C12                                             0000000890          00000000012000PZ                                                00034632                 2023                     37940                    20231005                 00000890
SIN            2023065130     00008S750           036466-C03                                             0000002550          00000000003000PZ                                                00034632                 2023                     37940                    20231005                 00002550
SIN            2023065130     00009S750           031728-C03                                             0000003392          00000000006000PZ                                                00034632                 2023                     37940                    20231005                 00003392
SIN            2023065130     00010S750           029377-VIS                                             0000011200          00000000003000PZ                                                00034632                 2023                     37940                    20231005                 00011200
SIN            2023065131     00001S750           032398-C12                                             0000000880          00000000012000PZ                                                00034633                 2023                     37939                    20231005                 00000880
SIN            2023065131     00002S750           031727-C12                                             0000000880          00000000012000PZ                                                00034633                 2023                     37939                    20231005                 00000880
SIN            2023065131     00003S750           032394-C12                                             0000000880          00000000024000PZ                                                00034633                 2023                     37939                    20231005                 00000880
SIN            2023065131     00004S750           036842-C12                                             0000000890          00000000012000PZ                                                00034633                 2023                     37939                    20231005                 00000890
SIN            2023065131     00005S750           036838-C12                                             0000000905          00000000012000PZ                                                00034633                 2023                     37939                    20231005                 00000905
SIN            2023065131     00006S750           034663-VIS                                             0000000850          00000000005000PZ                                                00034633                 2023                     37939                    20231005                 00000850
SIN            2023065131     00007S750           029455-VIS                                             0000000850          00000000001000PZ                                                00034633                 2023                     37939                    20231005                 00000850
SIN            2023065131     00008S750           026987-VIS                                             0000000200          00000000001000PZ                                                00034633                 2023                     37939                    20231005                 00000200
SIN            2023065131     00009S750           026970-VIS                                             0000001300          00000000002000PZ                                                00034633                 2023                     37939                    20231005                 00001300
SIN            2023065131     00010S750           026759-VIS                                             0000008760          00000000006000PZ                                                00034633                 2023                     37939                    20231005                 00008760
SIN            2023065131     00011S750           035706-C04                                             0000003464          00000000004000PZ                                                00034633                 2023                     37939                    20231005                 00003464
SIN            2023065131     00012S750           033715-C12                                             0000000840          00000000012000PZ                                                00034633                 2023                     37939                    20231005                 00000840
SIN            2023065132     00001S750           036842-C12                                             0000000890          00000000024000PZ                                                00034634                 2023                     37938                    20231005                 00000890
SIN            2023065132     00002S750           036838-C12                                             0000000905          00000000012000PZ                                                00034634                 2023                     37938                    20231005                 00000905
SIN            2023065132     00003S750           036834-C12                                             0000000890          00000000012000PZ                                                00034634                 2023                     37938                    20231005                 00000890
SIN            2023065132     00004S750           031728-C03                                             0000003392          00000000012000PZ                                                00034634                 2023                     37938                    20231005                 00003392
SIN            2023065132     00005S750           026974-VIS                                             0000001300          00000000001000PZ                                                00034634                 2023                     37938                    20231005                 00001300
SIN            2023065132     00006S750           026784-C12                                             0000000859          00000000012000PZ                                                00034634                 2023                     37938                    20231005                 00000859
SIN            2023065132     00007S750           026792-C12                                             0000000848          00000000024000PZ                                                00034634                 2023                     37938                    20231005                 00000848
SIN            2023065134     00001S750           026761-C12                                             0000000871          00000000012000PZ                                                00034587                 2023                     049300-112997            20231005                 000008711166041
SIN            2023065134     00002S750           029591-C12                                             0000000867          00000000012000PZ                                                00034587                 2023                     049300-112997            20231005                 000008671816963
SIN            2023065134     00003S750           032386-C12                                             0000000880          00000000012000PZ                                                00034587                 2023                     049300-112997            20231005                 000008801565038
SIN            2023065134     00004S750           034480-C12                                             0000000847          00000000012000PZ                                                00034587                 2023                     049300-112997            20231005                 000008471848114
SIN            2023065135     00001S750           034480-C12                                             0000000847          00000000012000PZ                                                00034589                 2023                     049298/2023-112999       20231005                 000008471848114
SIN            2023065135     00002S750           026761-C12                                             0000000871          00000000012000PZ                                                00034589                 2023                     049298/2023-112999       20231005                 000008711166041
SIN            2023065135     00003S750           032386-C12                                             0000000880          00000000012000PZ                                                00034589                 2023                     049298/2023-112999       20231005                 000008801565038
SIN            2023065135     00004S750           026716-C20                                             0000000890          00000000020000PZ                                                00034589                 2023                     049298/2023-112999       20231005                 000008901240022
SIN            2023065136     00001S750           005021-C20                                             0000000880          00000000020000PZ                                                00034588                 2023                     049299/2023-112998       20231005                 000008800163030
SIN            2023065136     00002S750           034480-C12                                             0000000847          00000000012000PZ                                                00034588                 2023                     049299/2023-112998       20231005                 000008471848114
SIN            2023065136     00003S750           026761-C12                                             0000000871          00000000024000PZ                                                00034588                 2023                     049299/2023-112998       20231005                 000008711166041
SIN            2023065138     00001S750           026804-LAT                                             0000017200          00000000002000PZ                                                00034546                 2023                     -112944                  20231004                 00017200
SIN            2023065138     00002S750           014060-LAT                                             0000017300          00000000004000PZ                                                00034546                 2023                     -112944                  20231004                 00017300
SIN            2023065138     00003S750           026800-LAT                                             0000016900          00000000004000PZ                                                00034546                 2023                     -112944                  20231004                 00016900
SIN            2023065138     00004S750           026855-C12                                             0000000840          00000000048000PZ                                                00034546                 2023                     -112944                  20231004                 00000840
SIN            2023065138     00005S750           011648-C12                                             0000000870          00000000024000PZ                                                00034546                 2023                     -112944                  20231004                 00000870
SIN            2023065138     00006S750           026784-C12                                             0000000859          00000000012000PZ                                                00034546                 2023                     -112944                  20231004                 00000859
SIN            2023065138     00007S750           026813-C04                                             0000005000          00000000016000PZ                                                00034546                 2023                     -112944                  20231004                 00005000
SIN            2023065138     00008S750           022378-VIS                                             0000000001          00000000001000PZ                                                00034546                 2023                     -112944                  20231004                 00000001
SIN            2023065138     00009S750           026847-VIS                                             0000008775          00000000020000PZ                                                00034547                 2023                     -112970                  20231004                 00008775
SIN            2023065138     00010S750           026848-VIS                                             0000010350          00000000020000PZ                                                00034547                 2023                     -112970                  20231004                 00010350
SIN            2023065138     00011S750           026850-VIS                                             0000010350          00000000020000PZ                                                00034547                 2023                     -112970                  20231004                 00010350
SIN            2023065138     00012S750           026869-VIS                                             0000015225          00000000020000PZ                                                00034547                 2023                     -112970                  20231004                 00015225
SIN            2023065138     00013S750           015242-VIS                                             0000016275          00000000004000PZ                                                00034561                 2023                     -112983                  20231004                 00016275
SIN            2023065138     00014S750           012810-VIS                                             0000016800          00000000001000PZ                                                00034561                 2023                     -112983                  20231004                 00016800
SIN            2023065146     00001S750           015702-C12                                             0000001000          00000000120000PZ                                                00033726                 2023                     -112638                  20230929                 00001000
SIN            2023065147     00001S750           029530-FTO                                             0000180270          00000000004000PZ                                                00034682                 2023                     -113013                  20231005                 00180270
SIN            2023065148     00001S750           010517-C12                                             0000000850          00000000084000PZ                                                00034674                 2023                     -112557                  20230927                 00000850
SIN            2023065148     00002S750           009459-LAT                                             0000017200          00000000003000PZ                                                00034674                 2023                     -112557                  20230927                 00017200
SIN            2023065148     00003S750           009456-LAT                                             0000016800          00000000003000PZ                                                00034674                 2023                     -112557                  20230927                 00016800
SIN            2023065148     00004S750           022378-VIS                                             0000000001          00000000001000PZ                                                00034674                 2023                     -112557                  20230927                 00000001
SIN            2023065149     00001S750           010318-LAT                                             0000016900          00000000003000PZ                                                00034683                 2023                     CORSICO 10/23-113015     20231005                 00016900
SIN            2023065149     00002S750           015063-C12                                             0000000850          00000000048000PZ                                                00034683                 2023                     CORSICO 10/23-113015     20231005                 00000850
SIN            2023065149     00003S750           013866-C12                                             0000000850          00000000024000PZ                                                00034683                 2023                     CORSICO 10/23-113015     20231005                 00000850
SIN            2023065149     00004S750           015062-FTO                                             0000170000          00000000002000PZ                                                00034683                 2023                     CORSICO 10/23-113015     20231005                 00170000
SIN            2023065149     00005S750           022378-VIS                                             0000000001          00000000001000PZ                                                00034683                 2023                     CORSICO 10/23-113015     20231005                 00000001
SIN            2023065151     00001S750           013484-VIS                                             0000030900          00000000010000PZ                                                00034673                 2023                     -112290                  20230922                 00030900
SIN            2023065151     00002S750           022378-VIS                                             0000000001          00000000001000PZ                                                00034673                 2023                     -112290                  20230922                 00000001
SIN            2023065157     00001S750           036231-LAT                                             0000017960          00000000001000PZ                                                00034684                 2023                     -113018                  20231005                 00017960
SIN            2023065158     00001S750           015702-C12                                             0000001000          00000000084000PZ                                                00032814                 2023                     -112241                  20230921                 00001000
SIN            2023065160     00001S750           015702-C12                                             0000001000          00000000024000PZ                                                00032964                 2023                     -112308                  20230922                 00001000
SIN            2023065161     00001S750           032394-C12                                             0000000880          00000000024000PZ                                                00034675                 2023                     37926                    20231004                 00000880
SIN            2023065161     00002S750           036834-C12                                             0000000890          00000000012000PZ                                                00034675                 2023                     37926                    20231004                 00000890
SIN            2023065161     00003S750           036468-C02                                             0000002000          00000000002000PZ                                                00034675                 2023                     37926                    20231004                 00002000
SIN            2023065161     00004S750           034664-VIS                                             0000000850          00000000005000PZ                                                00034675                 2023                     37926                    20231004                 00000850
SIN            2023065161     00005S750           034663-VIS                                             0000000850          00000000005000PZ                                                00034675                 2023                     37926                    20231004                 00000850
SIN            2023065161     00006S750           034662-VIS                                             0000000850          00000000005000PZ                                                00034675                 2023                     37926                    20231004                 00000850
SIN            2023065161     00007S750           018507-VIS                                             0000000200          00000000001000PZ                                                00034675                 2023                     37926                    20231004                 00000200
SIN            2023065161     00008S750           033728-VIS                                             0000001200          00000000002000PZ                                                00034675                 2023                     37926                    20231004                 00001200
SIN            2023065161     00009S750           029453-VIS                                             0000000850          00000000001000PZ                                                00034675                 2023                     37926                    20231004                 00000850
SIN            2023065161     00010S750           029454-VIS                                             0000000850          00000000001000PZ                                                00034675                 2023                     37926                    20231004                 00000850
SIN            2023065161     00011S750           026983-VIS                                             0000001300          00000000001000PZ                                                00034675                 2023                     37926                    20231004                 00001300
SIN            2023065161     00012S750           026792-C12                                             0000000848          00000000012000PZ                                                00034675                 2023                     37926                    20231004                 00000848
SIN            2023065161     00013S750           035706-C04                                             0000003464          00000000004000PZ                                                00034675                 2023                     37926                    20231004                 00003464
SIN            2023065161     00014S750           026865-C12                                             0000000836          00000000012000PZ                                                00034675                 2023                     37926                    20231004                 00000836
SIN            2023065161     00015S750           026741-C12                                             0000000864          00000000012000PZ                                                00034675                 2023                     37926                    20231004                 00000864
SIN            2023065161     00016S750           026793-C04                                             0000003392          00000000012000PZ                                                00034675                 2023                     37926                    20231004                 00003392
SIN            2023065162     00001S750           031727-C12                                             0000000880          00000000012000PZ                                                00034676                 2023                     37925                    20231004                 00000880
SIN            2023065162     00002S750           032394-C12                                             0000000880          00000000012000PZ                                                00034676                 2023                     37925                    20231004                 00000880
SIN            2023065162     00003S750           036842-C12                                             0000000890          00000000012000PZ                                                00034676                 2023                     37925                    20231004                 00000890
SIN            2023065162     00004S750           036836-C12                                             0000000865          00000000012000PZ                                                00034676                 2023                     37925                    20231004                 00000865
SIN            2023065162     00005S750           026784-C12                                             0000000859          00000000012000PZ                                                00034676                 2023                     37925                    20231004                 00000859
SIN            2023065162     00006S750           026793-C04                                             0000003392          00000000020000PZ                                                00034676                 2023                     37925                    20231004                 00003392
SIN            2023065163     00001S750           036839-C04                                             0000003340          00000000032000PZ                                                00034677                 2023                     37924                    20231004                 00003340
SIN            2023065164     00001S750           036844-C12                                             0000000870          00000000012000PZ                                                00034678                 2023                     37923                    20231004                 00000870
SIN            2023065164     00002S750           036466-C03                                             0000002550          00000000003000PZ                                                00034678                 2023                     37923                    20231004                 00002550
SIN            2023065164     00003S750           034860-VIS                                             0000001200          00000000001000PZ                                                00034678                 2023                     37923                    20231004                 00001200
SIN            2023065164     00004S750           018504-VIS                                             0000000200          00000000001000PZ                                                00034678                 2023                     37923                    20231004                 00000200
SIN            2023065164     00005S750           033729-VIS                                             0000001200          00000000001000PZ                                                00034678                 2023                     37923                    20231004                 00001200
SIN            2023065164     00006S750           033727-VIS                                             0000001200          00000000001000PZ                                                00034678                 2023                     37923                    20231004                 00001200
SIN            2023065164     00007S750           026988-VIS                                             0000000200          00000000001000PZ                                                00034678                 2023                     37923                    20231004                 00000200
SIN            2023065164     00008S750           026972-VIS                                             0000001300          00000000002000PZ                                                00034678                 2023                     37923                    20231004                 00001300
SIN            2023065164     00009S750           026971-VIS                                             0000001300          00000000002000PZ                                                00034678                 2023                     37923                    20231004                 00001300
SIN            2023065164     00010S750           032990-C05                                             0000001600          00000000005000PZ                                                00034678                 2023                     37923                    20231004                 00001600
