SIN            2020055330     00001S750           026810-C04                                             0000005000          00000000004000PZ                                                00020793                 2020                     -64810                   20200922                 00005000
SIN            2020055330     00002S750           026808-C12                                             0000001000          00000000012000PZ                                                00020793                 2020                     -64810                   20200922                 00001000
SIN            2020055330     00003S750           026809-C12                                             0000001000          00000000012000PZ                                                00020793                 2020                     -64810                   20200922                 00001000
SIN            2020055330     00004S750           022250-VIS                                             0000008910          00000000012000PZ                                                00021709                 2020                     -65188                   20200930                 00008910
SIN            2020055330     00005S750           022275-VIS                                             0000000001          00000000012000PZ                                                00021709                 2020                     -65188                   20200930                 00000001
SIN            2020055330     00006S750           022251-VIS                                             0000009000          00000000012000PZ                                                00021709                 2020                     -65188                   20200930                 00009000
SIN            2020055330     00007S750           022275-VIS                                             0000000001          00000000012000PZ                                                00021709                 2020                     -65188                   20200930                 00000001
SIN            2020055330     00008S750           022256-VIS                                             0000011400          00000000012000PZ                                                00021709                 2020                     -65188                   20200930                 00011400
SIN            2020055330     00009S750           022275-VIS                                             0000000001          00000000012000PZ                                                00021709                 2020                     -65188                   20200930                 00000001
SIN            2020055330     00010S750           022260-VIS                                             0000012300          00000000012000PZ                                                00021709                 2020                     -65188                   20200930                 00012300
SIN            2020055330     00011S750           022275-VIS                                             0000000001          00000000012000PZ                                                00021709                 2020                     -65188                   20200930                 00000001
SIN            2020055330     00012S750           022250-VIS                                             0000008910          00000000001000PZ                                                00021709                 2020                     -65188                   20200930                 00008910
SIN            2020055330     00013S750           022275-VIS                                             0000000001          00000000001000PZ                                                00021709                 2020                     -65188                   20200930                 00000001
SIN            2020055330     00014S750           022251-VIS                                             0000009000          00000000001000PZ                                                00021709                 2020                     -65188                   20200930                 00009000
SIN            2020055330     00015S750           022275-VIS                                             0000000001          00000000001000PZ                                                00021709                 2020                     -65188                   20200930                 00000001
SIN            2020055330     00016S750           022256-VIS                                             0000011400          00000000001000PZ                                                00021709                 2020                     -65188                   20200930                 00011400
SIN            2020055330     00017S750           022275-VIS                                             0000000001          00000000001000PZ                                                00021709                 2020                     -65188                   20200930                 00000001
SIN            2020055330     00018S750           022260-VIS                                             0000012300          00000000001000PZ                                                00021709                 2020                     -65188                   20200930                 00012300
SIN            2020055330     00019S750           022275-VIS                                             0000000001          00000000001000PZ                                                00021709                 2020                     -65188                   20200930                 00000001
SIN            2020055330     00020S750           031384-C20                                             0000000030          00000000060000PZ                                                00021709                 2020                     -65188                   20200930                 00000030
SIN            2020057711     00001S750           022248-VIS                                             0000009150          00000000144000PZ                                                00022734                 2020                     20OA004225               20201008                 00009150
SIN            2020057711     00002S750           022442-VIS                                             0000000001          00000000144000PZ                                                00022734                 2020                     20OA004225               20201008                 00000001
SIN            2020057713     00001S750           022248-VIS                                             0000009150          00000000036000PZ                                                00022737                 2020                     1638                     20201008                 00009150
SIN            2020057713     00002S750           022442-VIS                                             0000000001          00000000036000PZ                                                00022737                 2020                     1638                     20201008                 00000001
SIN            2020057714     00001S750           022248-VIS                                             0000009150          00000000144000PZ                                                00022736                 2020                     1665                     20201008                 00009150
SIN            2020057714     00002S750           022442-VIS                                             0000000001          00000000144000PZ                                                00022736                 2020                     1665                     20201008                 00000001
SIN            2020058170     00001S750           005594-C20                                             0000000855          00000000100000PZ                                                00023188                 2020                     -65747                   20201013                 00000855
SIN            2020058170     00002S750           026740-C04                                             0000004320          00000000012000PZ                                                00023188                 2020                     -65747                   20201013                 00004320
SIN            2020058170     00003S750           026737-C12                                             0000000840          00000000060000PZ                                                00023188                 2020                     -65747                   20201013                 00000840
SIN            2020058170     00004S750           026807-C20                                             0000001000          00000000100000PZ                                                00023188                 2020                     -65747                   20201013                 00001000
SIN            2020058170     00005S750           026879-C12                                             0000000880          00000000060000PZ                                                00023188                 2020                     -65747                   20201013                 00000880
SIN            2020058208     00001S750           026710-C10                                             0000001710          00000000010000PZ                                                00023400                 2020                     -65863                   20201016                 00001710
SIN            2020058208     00002S750           000280-C20                                             0000000880          00000000060000PZ                                                00023400                 2020                     -65863                   20201016                 00000880
SIN            2020058208     00003S750           026708-C12                                             0000000848          00000000012000PZ                                                00023400                 2020                     -65863                   20201016                 00000848
SIN            2020058208     00004S750           026871-C12                                             0000000859          00000000024000PZ                                                00023400                 2020                     -65863                   20201016                 00000859
SIN            2020058208     00005S750           031236-C10                                             0000000030          00000000010000PZ                                                00023400                 2020                     -65863                   20201016                 00000030
SIN            2020058208     00006S750           011518-C10                                             0000000030          00000000010000PZ                                                00023400                 2020                     -65863                   20201016                 00000030
SIN            2020058225     00001S750           026799-C12                                             0000000850          00000000060000PZ                                                00022953                 2020                     -65684                   20201013                 00000850
SIN            2020058225     00002S750           026796-C12                                             0000000850          00000000060000PZ                                                00022953                 2020                     -65684                   20201013                 00000850
SIN            2020058225     00003S750           011773-C12                                             0000000860          00000000012000PZ                                                00022953                 2020                     -65684                   20201013                 00000860
SIN            2020058225     00004S750           007924-VIS                                             0000000001          00000000001000PZ                                                00022953                 2020                     -65684                   20201013                 00000001
SIN            2020058547     00001S750           022256-VIS                                             0000011400          00000000042000PZ                                                00016964                 2020                     85457                    20200803                 00011400
SIN            2020058547     00002S750           022442-VIS                                             0000000001          00000000042000PZ                                                00016964                 2020                     85457                    20200803                 00000001
SIN            2020058547     00003S750           022260-VIS                                             0000012300          00000000051000PZ                                                00016964                 2020                     85457                    20200803                 00012300
SIN            2020058547     00004S750           022442-VIS                                             0000000001          00000000051000PZ                                                00016964                 2020                     85457                    20200803                 00000001
SIN            2020058547     00005S750           022233-VIS                                             0000022575          00000000024000PZ                                                00016964                 2020                     85457                    20200803                 00022575
SIN            2020058547     00006S750           022442-VIS                                             0000000001          00000000024000PZ                                                00016964                 2020                     85457                    20200803                 00000001
SIN            2020058552     00001S750           022252-VIS                                             0000010200          00000000040000PZ                                                00014681                 2020                     218821                   20200710                 00010200
SIN            2020058552     00002S750           022442-VIS                                             0000000001          00000000040000PZ                                                00014681                 2020                     218821                   20200710                 00000001
SIN            2020058552     00003S750           022256-VIS                                             0000011400          00000000080000PZ                                                00014681                 2020                     218821                   20200710                 00011400
SIN            2020058552     00004S750           022442-VIS                                             0000000001          00000000080000PZ                                                00014681                 2020                     218821                   20200710                 00000001
SIN            2020059240     00001S750           014660-LAT                                             0000016880          00000000001000PZ                                                00023809                 2020                     -65950                   20201019                 00016880
SIN            2020059240     00002S750           029815-LAT                                             0000016820          00000000001000PZ                                                00023809                 2020                     -65950                   20201019                 00016820
SIN            2020059240     00003S750           008741-LAT                                             0000016940          00000000001000PZ                                                00023809                 2020                     -65950                   20201019                 00016940
SIN            2020059240     00004S750           021538-LAT                                             0000020000          00000000001000PZ                                                00023809                 2020                     -65950                   20201019                 00020000
SIN            2020059240     00005S750           007924-VIS                                             0000000001          00000000001000PZ                                                00023809                 2020                     -65950                   20201019                 00000001
SIN            2020059241     00001S750           026786-C12                                             0000000857          00000000036000PZ                                                00023814                 2020                     -65939                   20201019                 00000857
SIN            2020059241     00002S750           026733-C12                                             0000000850          00000000012000PZ                                                00023814                 2020                     -65939                   20201019                 00000850
SIN            2020059241     00003S750           026792-C12                                             0000000848          00000000012000PZ                                                00023814                 2020                     -65939                   20201019                 00000848
SIN            2020059241     00004S750           027367-C12                                             0000000850          00000000012000PZ                                                00023814                 2020                     -65939                   20201019                 00000850
SIN            2020059241     00005S750           026784-C12                                             0000000859          00000000036000PZ                                                00023814                 2020                     -65939                   20201019                 00000859
SIN            2020059241     00006S750           022378-VIS                                             0000000001          00000000001000PZ                                                00023814                 2020                     -65939                   20201019                 00000001
SIN            2020059242     00001S750           011835-FTO                                             0000170000          00000000001000PZ                                                00023772                 2020                                              20201019                 00170000
SIN            2020059243     00001S750           026731-VIS                                             0000009668          00000000334000PZ                                                00022991                 2020                     2007348                  20201013                 00009668
SIN            2020059243     00002S750           026730-VIS                                             0000011168          00000000189000PZ                                                00022991                 2020                     2007348                  20201013                 00011168
SIN            2020059243     00003S750           026729-VIS                                             0000013298          00000000103000PZ                                                00022991                 2020                     2007348                  20201013                 00013298
SIN            2020059246     00001S750           008964-CU0                                             0000881000          00000000001000PZ                                                00023786                 2020                     20101683-65923           20201019                 00881000
SIN            2020059248     00001S750           027345-C10                                             0000000150          00000000050000PZ                                                00023791                 2020                     -65927                   20201019                 00000150
SIN            2020059248     00002S750           027346-C10                                             0000000150          00000000050000PZ                                                00023791                 2020                     -65927                   20201019                 00000150
SIN            2020059248     00003S750           027350-C10                                             0000000150          00000000100000PZ                                                00023791                 2020                     -65927                   20201019                 00000150
SIN            2020059248     00004S750           027349-C10                                             0000000150          00000000050000PZ                                                00023791                 2020                     -65927                   20201019                 00000150
SIN            2020059248     00005S750           027348-C10                                             0000000150          00000000100000PZ                                                00023791                 2020                     -65927                   20201019                 00000150
SIN            2020059248     00006S750           007924-VIS                                             0000000001          00000000001000PZ                                                00023791                 2020                     -65927                   20201019                 00000001
SIN            2020059251     00001S750           017812-LAT                                             0000016800          00000000005000PZ                                                00023816                 2020                     -65964                   20201019                 00016800
SIN            2020059251     00002S750           007924-VIS                                             0000000001          00000000001000PZ                                                00023816                 2020                     -65964                   20201019                 00000001
SIN            2020059251     00003S750           022378-VIS                                             0000000001          00000000001000PZ                                                00023816                 2020                     -65964                   20201019                 00000001
SIN            2020059252     00001S750           022421-LAT                                             0000016680          00000000001000PZ                                                00023787                 2020                     -65922                   20201019                 00016680
SIN            2020059253     00001S750           026842-C10                                             0000000150          00000000010000PZ                                                00022495                 2020                     -65474                   20201007                 00000150
SIN            2020059255     00001S750           026881-LAT                                             0000010000          00000000040000PZ                                                00023793                 2020                     25571-65929              20201019                 00010000
SIN            2020059258     00001S750           026979-VIS                                             0000001300          00000000003000PZ                                                00023802                 2020                     25572-65938              20201019                 00001300
SIN            2020059258     00002S750           026980-VIS                                             0000001300          00000000003000PZ                                                00023802                 2020                     25572-65938              20201019                 00001300
SIN            2020059258     00003S750           026981-VIS                                             0000001300          00000000003000PZ                                                00023802                 2020                     25572-65938              20201019                 00001300
SIN            2020059258     00004S750           026982-VIS                                             0000001300          00000000003000PZ                                                00023802                 2020                     25572-65938              20201019                 00001300
SIN            2020059258     00005S750           026983-VIS                                             0000000200          00000000003000PZ                                                00023802                 2020                     25572-65938              20201019                 00000200
SIN            2020059258     00006S750           026984-VIS                                             0000000200          00000000003000PZ                                                00023802                 2020                     25572-65938              20201019                 00000200
SIN            2020059258     00007S750           029453-VIS                                             0000000850          00000000004000PZ                                                00023802                 2020                     25572-65938              20201019                 00000850
SIN            2020059258     00008S750           029437-VIS                                             0000000850          00000000004000PZ                                                00023802                 2020                     25572-65938              20201019                 00000850
SIN            2020059259     00001S750           010587-LAT                                             0000017360          00000000006000PZ                                                00023790                 2020                     4506609296-65925         20201019                 00017360
SIN            2020059260     00001S750           008756-LAT                                             0000017840          00000000010000PZ                                                00023789                 2020                     4506609292-65924         20201019                 00017840
SIN            2020059263     00001S750           022541-FTO                                             0000178043          00000000001000PZ                                                00023798                 2020                     10205719639 IT1022115-65920201019                 00178043
SIN            2020059270     00001S750           029378-FTO                                             0000176000          00000000006000PZ                                                00022924                 2020                     ALEXIA -65665            20201012                 00176000
SIN            2020059270     00002S750           029483-FNO                                             0000052800          00000000010000PZ                                                00022924                 2020                     ALEXIA -65665            20201012                 00052800
SIN            2020059270     00003S750           029381-FTO                                             0000176000          00000000001000PZ                                                00022924                 2020                     ALEXIA -65665            20201012                 00176000
SIN            2020059270     00004S750           029379-FTO                                             0000176000          00000000001000PZ                                                00022924                 2020                     ALEXIA -65665            20201012                 00176000
SIN            2020059270     00005S750           011824-FTO                                             0000170000          00000000001000PZ                                                00022924                 2020                     ALEXIA -65665            20201012                 00170000
SIN            2020059275     00001S750           010539-C12                                             0000000860          00000000024000PZ                                                00023146                 2020                     -65716                   20201013                 00000860
SIN            2020059276     00001S750           026855-C12                                             0000000860          00000000060000PZ                                                00022643                 2020                     -65531                   20201009                 00000860
SIN            2020059276     00002S750           026855-C12                                             0000000860          00000000012000PZ                                                00022643                 2020                     -65531                   20201009                 00000860
SIN            2020059277     00001S750           026841-VIS                                             0000007950          00000000012000PZ                                                00023868                 2020                     -65940                   20201019                 00007950
SIN            2020059277     00002S750           026825-C10                                             0000000150          00000000010000PZ                                                00023868                 2020                     -65940                   20201019                 00000150
SIN            2020059277     00003S750           026816-C10                                             0000000150          00000000020000PZ                                                00023868                 2020                     -65940                   20201019                 00000150
SIN            2020059277     00004S750           026818-C10                                             0000000150          00000000010000PZ                                                00023868                 2020                     -65940                   20201019                 00000150
SIN            2020059277     00005S750           026844-VIS                                             0000000500          00000000001000PZ                                                00023868                 2020                     -65940                   20201019                 00000500
SIN            2020059277     00006S750           026841-VIS                                             0000007950          00000000001000PZ                                                00023868                 2020                     -65940                   20201019                 00007950
SIN            2020059278     00001S750           015227-VIS                                             0000015600          00000000004000PZ                                                00021760                 2020                     0934-65222               20201001                 00015600
SIN            2020059283     00001S750           027008-FTO                                             0000176000          00000000002000PZ                                                00021298                 2020                     0911-65009               20200925                 00176000
SIN            2020059284     00001S750           027008-FTO                                             0000176000          00000000001000PZ                                                00021298                 2020                     0911-65009               20200925                 00176000
SIN            2020059286     00001S750           026794-LAT                                             0000017200          00000000002000PZ                                                00023853                 2020                     -65969                   20201020                 00017200
SIN            2020059287     00001S750           026855-C12                                             0000000860          00000000048000PZ                                                00022823                 2020                     -65596                   20201010                 00000860
SIN            2020059287     00002S750           026855-C12                                             0000000865          00000000012000PZ                                                00022823                 2020                     -65596                   20201010                 00000865
SIN            2020059288     00001S750           011835-FTO                                             0000170000          00000000001000PZ                                                00023864                 2020                                              20201020                 00170000
SIN            2020059289     00001S750           026855-C12                                             0000000860          00000000024000PZ                                                00023046                 2020                     -65674                   20201013                 00000860
SIN            2020059292     00001S750           010318-LAT                                             0000017400          00000000006000PZ                                                00023874                 2020                     -65984                   20201020                 00017400
SIN            2020059292     00002S750           010316-C12                                             0000000850          00000000024000PZ                                                00023874                 2020                     -65984                   20201020                 00000850
SIN            2020059292     00003S750           010314-LAT                                             0000017000          00000000002000PZ                                                00023874                 2020                     -65984                   20201020                 00017000
SIN            2020059292     00004S750           022378-VIS                                             0000000001          00000000001000PZ                                                00023874                 2020                     -65984                   20201020                 00000001
SIN            2020059293     00001S750           026730-VIS                                             0000011168          00000000010000PZ                                                00023846                 2020                     -65941                   20201019                 00011168
SIN            2020059293     00002S750           026737-C12                                             0000000840          00000000036000PZ                                                00023846                 2020                     -65941                   20201019                 00000840
SIN            2020059293     00003S750           022378-VIS                                             0000000001          00000000001000PZ                                                00023846                 2020                     -65941                   20201019                 00000001
SIN            2020059294     00001S750           016314-C12                                             0000000843          00000000012000PZ                                                00021716                 2020                     -65211                   20201001                 00000843
SIN            2020059294     00002S750           022369-LAT                                             0000018000          00000000002000PZ                                                00021716                 2020                     -65211                   20201001                 00018000
SIN            2020059298     00001S750           026855-C12                                             0000000860          00000000012000PZ                                                00022045                 2020                     -65298                   20201003                 00000860
SIN            2020059299     00001S750           016630-C20                                             0000000854          00000000060000PZ                                                00023870                 2020                     -65979                   20201020                 00000854
SIN            2020059299     00002S750           022378-VIS                                             0000000001          00000000001000PZ                                                00023870                 2020                     -65979                   20201020                 00000001
SIN            2020059301     00001S750           009852-FTO                                             0000175000          00000000001000PZ                                                00021527                 2020                     ord. 3277-65162          20200930                 00175000
SIN            2020059302     00001S750           014655-FTO                                             0000177840          00000000001000PZ                                                00023865                 2020                     3473-65982               20201020                 00177840
SIN            2020059302     00002S750           008744-FTO                                             0000180540          00000000001000PZ                                                00023865                 2020                     3473-65982               20201020                 00180540
SIN            2020059302     00003S750           017326-FTO                                             0000183040          00000000002000PZ                                                00023865                 2020                     3473-65982               20201020                 00183040
SIN            2020059302     00004S750           008886-C24                                             0000000400          00000000024000PZ                                                00023865                 2020                     3473-65982               20201020                 00000400
SIN            2020059302     00005S750           009411-C24                                             0000000400          00000000024000PZ                                                00023865                 2020                     3473-65982               20201020                 00000400
SIN            2020059302     00006S750           008893-LAT                                             0000016920          00000000002000PZ                                                00023865                 2020                     3473-65982               20201020                 00016920
SIN            2020059302     00007S750           010112-LAT                                             0000017440          00000000004000PZ                                                00023865                 2020                     3473-65982               20201020                 00017440
SIN            2020059302     00008S750           010113-FTO                                             0000182208          00000000004000PZ                                                00023865                 2020                     3473-65982               20201020                 00182208
SIN            2020059302     00009S750           008938-FTO                                             0000182830          00000000002000PZ                                                00023865                 2020                     3473-65982               20201020                 00182830
SIN            2020059303     00001S750           014652-LAT                                             0000017093          00000000001000PZ                                                00023842                 2020                     3478-65970               20201020                 00017093
SIN            2020059303     00002S750           029815-LAT                                             0000016820          00000000001000PZ                                                00023842                 2020                     3478-65970               20201020                 00016820
SIN            2020059303     00003S750           021538-LAT                                             0000020000          00000000001000PZ                                                00023842                 2020                     3478-65970               20201020                 00020000
SIN            2020059305     00001S750           026730-VIS                                             0000011168          00000000025000PZ                                                00023845                 2020                     -65936                   20201019                 00011168
SIN            2020059305     00002S750           022378-VIS                                             0000000001          00000000001000PZ                                                00023845                 2020                     -65936                   20201019                 00000001
SIN            2020059306     00001S750           010309-C04                                             0000003400          00000000008000PZ                                                00023170                 2020                     139-65745                20201013                 00003400
SIN            2020059307     00001S750           026881-LAT                                             0000010000          00000000120000PZ                                                00023848                 2020                     -65959                   20201019                 00010000
SIN            2020059307     00002S750           022378-VIS                                             0000000001          00000000001000PZ                                                00023848                 2020                     -65959                   20201019                 00000001
SIN            2020059307     00003S750           026881-LAT                                             0000010000          00000000010000PZ                                                00023848                 2020                     -65959                   20201019                 00010000
SIN            2020059308     00001S750           011835-FTO                                             0000170000          00000000001000PZ                                                00023839                 2020                     -65958                   20201019                 00170000
SIN            2020059309     00001S750           016993-LAT                                             0000017180          00000000004000PZ                                                00023867                 2020                     -65983                   20201020                 00017180
SIN            2020059311     00001S750           029474-VIS                                             0000015075          00000000015000PZ                                                00023645                 2020                     -65894                   20201016                 00015075
SIN            2020059311     00002S750           029473-VIS                                             0000015225          00000000010000PZ                                                00023645                 2020                     -65894                   20201016                 00015225
SIN            2020059311     00003S750           029471-VIS                                             0000010350          00000000013000PZ                                                00023645                 2020                     -65894                   20201016                 00010350
SIN            2020059311     00004S750           029472-VIS                                             0000013200          00000000010000PZ                                                00023645                 2020                     -65894                   20201016                 00013200
SIN            2020059311     00005S750           022378-VIS                                             0000000001          00000000001000PZ                                                00023645                 2020                     -65894                   20201016                 00000001
SIN            2020059311     00006S750           019830-VIS                                             0000010350          00000000001000PZ                                                00023645                 2020                     -65894                   20201016                 00010350
SIN            2020059312     00001S750           013867-LAT                                             0000017200          00000000003000PZ                                                00023873                 2020                     -65985                   20201020                 00017200
SIN            2020059312     00002S750           013876-FTO                                             0000170000          00000000002000PZ                                                00023873                 2020                     -65985                   20201020                 00170000
SIN            2020059312     00003S750           022378-VIS                                             0000000001          00000000001000PZ                                                00023873                 2020                     -65985                   20201020                 00000001
SIN            2020059313     00001S750           010454-C12                                             0000000850          00000000024000PZ                                                00021475                 2020                     -65112                   20200929                 00000850
SIN            2020059315     00001S750           011664-C12                                             0000000860          00000000036000PZ                                                00023354                 2020                     -65827                   20201015                 00000860
SIN            2020059320     00001S750           029717-C04                                             0000003480          00000000004000PZ                                                00023826                 2020                     77413                    20201019                 00003480730798
SIN            2020059320     00002S750           029783-C04                                             0000003500          00000000004000PZ                                                00023826                 2020                     77413                    20201019                 00003500734291
SIN            2020059320     00003S750           029787-C04                                             0000003400          00000000004000PZ                                                00023826                 2020                     77413                    20201019                 000034001330575
SIN            2020059323     00001S750           029655-C06                                             0000001780          00000000006000PZ                                                00023818                 2020                     04907                    20201019                 000017801358856
SIN            2020059323     00002S750           029694-C04                                             0000000026          00000000004000PZ                                                00023818                 2020                     04907                    20201019                 000000261617648
SIN            2020059323     00003S750           029632-C05                                             0000000150          00000000005000PZ                                                00023818                 2020                     04907                    20201019                 000001501621809
SIN            2020059323     00004S750           029640-C05                                             0000000150          00000000005000PZ                                                00023818                 2020                     04907                    20201019                 000001501621819
SIN            2020059323     00005S750           029671-VIS                                             0000019030          00000000001000PZ                                                00023818                 2020                     04907                    20201019                 000190301704703
SIN            2020059323     00006S750           029752-C12                                             0000000854          00000000012000PZ                                                00023818                 2020                     04907                    20201019                 000008541715265
SIN            2020059323     00007S750           031245-C12                                             0000000860          00000000012000PZ                                                00023818                 2020                     04907                    20201019                 000008601734986
SIN            2020059325     00001S750           029630-C10                                             0000000150          00000000010000PZ                                                00023822                 2020                     00945                    20201019                 000001501437505
SIN            2020059325     00002S750           029769-C12                                             0000000870          00000000036000PZ                                                00023822                 2020                     00945                    20201019                 000008701492512
SIN            2020059325     00003S750           029774-C12                                             0000000873          00000000012000PZ                                                00023822                 2020                     00945                    20201019                 000008731492713
SIN            2020059325     00004S750           029688-C04                                             0000000270          00000000004000PZ                                                00023822                 2020                     00945                    20201019                 000002701617623
SIN            2020059325     00005S750           031245-C12                                             0000000860          00000000012000PZ                                                00023822                 2020                     00945                    20201019                 000008601734986
SIN            2020059329     00001S750           029718-C12                                             0000000858          00000000012000PZ                                                00023817                 2020                     68832                    20201019                 000008581120246
SIN            2020059329     00002S750           029769-C12                                             0000000870          00000000012000PZ                                                00023817                 2020                     68832                    20201019                 000008701492512
SIN            2020059329     00003S750           029740-C04                                             0000003404          00000000004000PZ                                                00023817                 2020                     68832                    20201019                 000034041496068
SIN            2020059329     00004S750           029639-C05                                             0000000150          00000000005000PZ                                                00023817                 2020                     68832                    20201019                 000001501621818
SIN            2020059329     00005S750           029751-C04                                             0000003404          00000000004000PZ                                                00023817                 2020                     68832                    20201019                 000034041715531
SIN            2020059329     00006S750           029770-C04                                             0000003045          00000000004000PZ                                                00023817                 2020                     68832                    20201019                 000030451718152
SIN            2020059337     00001S750           029655-C06                                             0000001780          00000000006000PZ                                                00023820                 2020                     08934                    20201019                 000017801358856
SIN            2020059337     00002S750           029769-C12                                             0000000870          00000000012000PZ                                                00023820                 2020                     08934                    20201019                 000008701492512
SIN            2020059337     00003S750           029774-C12                                             0000000873          00000000012000PZ                                                00023820                 2020                     08934                    20201019                 000008731492713
SIN            2020059337     00004S750           029773-C04                                             0000003532          00000000004000PZ                                                00023820                 2020                     08934                    20201019                 000035321496071
SIN            2020059337     00005S750           029645-C05                                             0000000150          00000000005000PZ                                                00023820                 2020                     08934                    20201019                 000001501535689
SIN            2020059337     00006S750           026881-LAT                                             0000010000          00000000017000PZ                                                00023820                 2020                     08934                    20201019                 000100001617291
SIN            2020059337     00007S750           029701-C04                                             0000000252          00000000004000PZ                                                00023820                 2020                     08934                    20201019                 000002521617583
SIN            2020059337     00008S750           029690-C04                                             0000000041          00000000004000PZ                                                00023820                 2020                     08934                    20201019                 000000411617630
SIN            2020059337     00009S750           029633-C05                                             0000000150          00000000005000PZ                                                00023820                 2020                     08934                    20201019                 000001501621810
SIN            2020059337     00010S750           029639-C05                                             0000000150          00000000010000PZ                                                00023820                 2020                     08934                    20201019                 000001501621818
SIN            2020059337     00011S750           029640-C05                                             0000000150          00000000015000PZ                                                00023820                 2020                     08934                    20201019                 000001501621819
SIN            2020059337     00012S750           029675-VIS                                             0000015640          00000000002000PZ                                                00023820                 2020                     08934                    20201019                 000156401711995
SIN            2020059339     00001S750           029774-C12                                             0000000873          00000000012000PZ                                                00023824                 2020                     87955                    20201019                 000008731492713
SIN            2020059339     00002S750           026881-LAT                                             0000010000          00000000010000PZ                                                00023824                 2020                     87955                    20201019                 000100001617291
SIN            2020059339     00003S750           029376-VIS                                             0000022480          00000000001000PZ                                                00023824                 2020                     87955                    20201019                 000224801704712
SIN            2020059350     00001S750           026855-C12                                             0000000860          00000000060000PZ                                                00022944                 2020                     -65661                   20201012                 00000860
SIN            2020059350     00002S750           026855-C12                                             0000000865          00000000012000PZ                                                00022944                 2020                     -65661                   20201012                 00000865
SIN            2020059352     00001S750           026792-C12                                             0000000848          00000000060000PZ                                                00023569                 2020                     6556641-65880            20201016                 00000848
SIN            2020059353     00001S750           026792-C12                                             0000000848          00000000060000PZ                                                00023566                 2020                     6515327-65876            20201016                 00000848
SIN            2020059354     00001S750           026792-C12                                             0000000848          00000000084000PZ                                                00023794                 2020                     6338082-65934            20201019                 00000848
SIN            2020059356     00001S750           026855-C12                                             0000000860          00000000144000PZ                                                00023187                 2020                     -65743                   20201013                 00000860
SIN            2020059356     00002S750           026855-C12                                             0000000865          00000000012000PZ                                                00023187                 2020                     -65743                   20201013                 00000865
SIN            2020059357     00001S750           029733-C12                                             0000000860          00000000024000PZ                                                00023861                 2020                     25178012                 20201020                 00000860
SIN            2020059357     00002S750           029783-C04                                             0000003500          00000000008000PZ                                                00023861                 2020                     25178012                 20201020                 00003500436100581
SIN            2020059358     00001S750           026855-C12                                             0000000860          00000000012000PZ                                                00023344                 2020                     -65725                   20201013                 00000860
SIN            2020059360     00001S750           026855-C12                                             0000000860          00000000048000PZ                                                00022185                 2020                     -65335                   20201005                 00000860
SIN            2020059361     00001S750           010454-C12                                             0000000850          00000000012000PZ                                                00022876                 2020                     17M20-65643              20201012                 00000850
SIN            2020059362     00001S750           010454-C12                                             0000000850          00000000012000PZ                                                00021467                 2020                     07MS20-65068             20200928                 00000850
SIN            2020059364     00001S750           026855-C12                                             0000000860          00000000012000PZ                                                00023353                 2020                     1510-65826               20201015                 00000860
SIN            2020059365     00001S750           010454-C12                                             0000000850          00000000024000PZ                                                00022010                 2020                     -65284                   20201002                 00000850
SIN            2020059366     00001S750           026784-C12                                             0000000859          00000000012000PZ                                                00023835                 2020                     392551                   20201019                 0000085969919
SIN            2020059366     00002S750           029770-C04                                             0000003045          00000000012000PZ                                                00023835                 2020                     392551                   20201019                 00003045308896
SIN            2020059366     00003S750           031261-C12                                             0000000120          00000000012000PZ                                                00023835                 2020                     392551                   20201019                 00000120309176
SIN            2020059366     00004S750           031257-C12                                             0000000200          00000000012000PZ                                                00023835                 2020                     392551                   20201019                 00000200655341
SIN            2020059366     00005S750           031259-C12                                             0000000200          00000000012000PZ                                                00023835                 2020                     392551                   20201019                 00000200655389
SIN            2020059366     00006S750           031255-C12                                             0000000200          00000000012000PZ                                                00023835                 2020                     392551                   20201019                 00000200655419
SIN            2020059366     00007S750           031256-C12                                             0000000200          00000000012000PZ                                                00023835                 2020                     392551                   20201019                 00000200655426
SIN            2020059366     00008S750           029735-C12                                             0000000848          00000000012000PZ                                                00023835                 2020                     392551                   20201019                 00000848655433
SIN            2020059366     00009S750           029739-C12                                             0000000851          00000000012000PZ                                                00023835                 2020                     392551                   20201019                 00000851655440
SIN            2020059366     00010S750           029778-C12                                             0000000875          00000000012000PZ                                                00023835                 2020                     392551                   20201019                 000008751355950
SIN            2020059366     00011S750           026792-C12                                             0000000848          00000000012000PZ                                                00023835                 2020                     392551                   20201019                 000008483150041
SIN            2020059366     00012S750           029718-C12                                             0000000857          00000000012000PZ                                                00023835                 2020                     392551                   20201019                 000008575577136
SIN            2020059366     00013S750           029719-C04                                             0000003428          00000000004000PZ                                                00023835                 2020                     392551                   20201019                 000034285577167
SIN            2020059366     00014S750           029736-C04                                             0000003393          00000000012000PZ                                                00023835                 2020                     392551                   20201019                 000033938738558
SIN            2020059366     00015S750           029762-C04                                             0000003488          00000000012000PZ                                                00023835                 2020                     392551                   20201019                 000034888738565
SIN            2020059366     00016S750           029734-C04                                             0000003404          00000000012000PZ                                                00023835                 2020                     392551                   20201019                 000034048777243
SIN            2020059366     00017S750           029761-C12                                             0000000872          00000000012000PZ                                                00023835                 2020                     392551                   20201019                 000008728777250
SIN            2020059366     00018S750           029769-C12                                             0000000870          00000000012000PZ                                                00023835                 2020                     392551                   20201019                 000008708777311
SIN            2020059366     00019S750           026761-C12                                             0000000847          00000000012000PZ                                                00023835                 2020                     392551                   20201019                 000008479621972
SIN            2020059367     00001S750           031253-C24                                             0000000100          00000000024000PZ                                                00023862                 2020                     7412998                  20201020                 00000100308926
SIN            2020059367     00002S750           027329-VIS                                             0000005000          00000000006000PZ                                                00023862                 2020                     7412998                  20201020                 00005000310424
SIN            2020059367     00003S750           031257-C12                                             0000000200          00000000024000PZ                                                00023862                 2020                     7412998                  20201020                 00000200655341
SIN            2020059367     00004S750           031256-C12                                             0000000200          00000000024000PZ                                                00023862                 2020                     7412998                  20201020                 00000200655426
SIN            2020059367     00005S750           026792-C12                                             0000000848          00000000012000PZ                                                00023862                 2020                     7412998                  20201020                 000008483150041
SIN            2020059367     00006S750           029786-C12                                             0000000850          00000000012000PZ                                                00023862                 2020                     7412998                  20201020                 000008505162042
SIN            2020059367     00007S750           029736-C04                                             0000003393          00000000008000PZ                                                00023862                 2020                     7412998                  20201020                 000033938738558
SIN            2020059367     00008S750           029762-C04                                             0000003488          00000000008000PZ                                                00023862                 2020                     7412998                  20201020                 000034888738565
SIN            2020059368     00001S750           029777-C04                                             0000003472          00000000012000PZ                                                00023863                 2020                     80500                    20201020                 00003472333836
SIN            2020059368     00002S750           031258-C12                                             0000000200          00000000012000PZ                                                00023863                 2020                     80500                    20201020                 00000200655365
SIN            2020059368     00003S750           031257-C12                                             0000000200          00000000012000PZ                                                00023863                 2020                     80500                    20201020                 00000200655341
SIN            2020059368     00004S750           029783-C04                                             0000003500          00000000004000PZ                                                00023863                 2020                     80500                    20201020                 000035007107126
SIN            2020059368     00005S750           026784-C12                                             0000000859          00000000012000PZ                                                00023863                 2020                     80500                    20201020                 0000085969919
SIN            2020059368     00006S750           027329-VIS                                             0000005000          00000000003000PZ                                                00023863                 2020                     80500                    20201020                 00005000310424
SIN            2020059370     00001S750           014680-C12                                             0000000851          00000000024000PZ                                                00023836                 2020                     2001339-65951            20201019                 00000851
SIN            2020059370     00002S750           026792-C12                                             0000000848          00000000012000PZ                                                00023836                 2020                     2001339-65951            20201019                 00000848
SIN            2020059370     00003S750           014058-C04                                             0000003460          00000000008000PZ                                                00023836                 2020                     2001339-65951            20201019                 00003460
SIN            2020059370     00004S750           026798-C12                                             0000000870          00000000036000PZ                                                00023836                 2020                     2001339-65951            20201019                 00000870
SIN            2020059371     00001S750           011664-C12                                             0000000860          00000000012000PZ                                                00023402                 2020                     2001325-65837            20201015                 00000860
SIN            2020059373     00001S750           000279-C10                                             0000000885          00000000120000PZ                                                00023844                 2020                     -65917                   20201019                 00000885
SIN            2020059373     00002S750           022378-VIS                                             0000000001          00000000001000PZ                                                00023844                 2020                     -65917                   20201019                 00000001
SIN            2020059373     00003S750           000279-C10                                             0000000885          00000000010000PZ                                                00023844                 2020                     -65917                   20201019                 00000885
SIN            2020059375     00001S750           026730-VIS                                             0000011168          00000000005000PZ                                                00023852                 2020                     -65966                   20201019                 00011168
SIN            2020059375     00002S750           007924-VIS                                             0000000001          00000000001000PZ                                                00023852                 2020                     -65966                   20201019                 00000001
SIN            2020059375     00003S750           022378-VIS                                             0000000001          00000000001000PZ                                                00023852                 2020                     -65966                   20201019                 00000001
SIN            2020059376     00001S750           022512-FTO                                             0000170000          00000000001000PZ                                                00022007                 2020                     -65268                   20201002                 00170000
SIN            2020059377     00001S750           014546-FTO                                             0000170000          00000000001000PZ                                                00023847                 2020                     -65953                   20201019                 00170000
SIN            2020059377     00002S750           015699-C12                                             0000000850          00000000024000PZ                                                00023847                 2020                     -65953                   20201019                 00000850
SIN            2020059377     00003S750           021660-LAT                                             0000018000          00000000001000PZ                                                00023847                 2020                     -65953                   20201019                 00018000
SIN            2020059377     00004S750           010507-LAT                                             0000017000          00000000003000PZ                                                00023847                 2020                     -65953                   20201019                 00017000
SIN            2020059377     00005S750           021657-LAT                                             0000018000          00000000001000PZ                                                00023847                 2020                     -65953                   20201019                 00018000
SIN            2020059377     00006S750           010538-LAT                                             0000017200          00000000001000PZ                                                00023847                 2020                     -65953                   20201019                 00017200
SIN            2020059377     00007S750           022558-LAT                                             0000017600          00000000001000PZ                                                00023847                 2020                     -65953                   20201019                 00017600
SIN            2020059377     00008S750           022378-VIS                                             0000000001          00000000001000PZ                                                00023847                 2020                     -65953                   20201019                 00000001
SIN            2020059378     00001S750           026730-VIS                                             0000011168          00000000012000PZ                                                00023851                 2020                     -65965                   20201019                 00011168
SIN            2020059378     00002S750           022378-VIS                                             0000000001          00000000001000PZ                                                00023851                 2020                     -65965                   20201019                 00000001
SIN            2020059379     00001S750           026747-FTO                                             0000200000          00000000004000PZ                                                00023860                 2020                     25576-65980              20201020                 00200000
SIN            2020059380     00001S750           026747-FTO                                             0000200000          00000000006000PZ                                                00023841                 2020                     25573-65968              20201020                 00200000
SIN            2020059381     00001S750           026881-LAT                                             0000010000          00000000015000PZ                                                00023855                 2020                     25575-65978              20201020                 00010000
SIN            2020059382     00001S750           026881-LAT                                             0000010000          00000000020000PZ                                                00023854                 2020                     25574-65975              20201020                 00010000
SIN            2020059383     00001S750           026747-FTO                                             0000200000          00000000003000PZ                                                00023866                 2020                     25577-65981              20201020                 00200000
SIN            2020059386     00001S750           022512-FTO                                             0000170000          00000000001000PZ                                                00022644                 2020                     -65533                   20201009                 00170000
SIN            2020059386     00002S750           022530-C12                                             0000000870          00000000024000PZ                                                00023869                 2020                     -65973                   20201020                 00000870
SIN            2020059386     00003S750           022535-C12                                             0000000880          00000000036000PZ                                                00023869                 2020                     -65973                   20201020                 00000880
SIN            2020059386     00004S750           022378-VIS                                             0000000001          00000000001000PZ                                                00023869                 2020                     -65973                   20201020                 00000001
SIN            2020059387     00001S750           022512-FTO                                             0000170000          00000000002000PZ                                                00022779                 2020                     -65570                   20201009                 00170000
SIN            2020059389     00001S750           026792-C12                                             0000000848          00000000324000PZ                                                00022521                 2020                     -65494                   20201008                 00000848
SIN            2020059390     00001S750           027076-FTO                                             0000177215          00000000001000PZ                                                00023856                 2020                     10205719662 IT1022138-65920201020                 00177215
SIN            2020059391     00001S750           018679-FTO                                             0000172000          00000000001000PZ                                                00023858                 2020                     10205719647 IT1022122-65920201020                 00172000
SIN            2020059392     00001S750           022541-FTO                                             0000178043          00000000001000PZ                                                00023857                 2020                     10205719652 IT1022127-65920201020                 00178043
SIN            2020059431     00001S750           029784-C12                                             0000000857          00000000012000PZ                                                00023823                 2020                     75768                    20201019                 00000857734287
SIN            2020059431     00002S750           029783-C04                                             0000003500          00000000004000PZ                                                00023823                 2020                     75768                    20201019                 00003500734291
SIN            2020059431     00003S750           026731-VIS                                             0000009668          00000000001000PZ                                                00023823                 2020                     75768                    20201019                 00009668792809
SIN            2020059431     00004S750           029375-VIS                                             0000010570          00000000002000PZ                                                00023823                 2020                     75768                    20201019                 000105701202880
SIN            2020059431     00005S750           029377-VIS                                             0000011200          00000000003000PZ                                                00023823                 2020                     75768                    20201019                 000112001202919
SIN            2020059431     00006S750           029787-C04                                             0000003400          00000000004000PZ                                                00023823                 2020                     75768                    20201019                 000034001330575
SIN            2020059431     00007S750           029622-C10                                             0000000150          00000000010000PZ                                                00023823                 2020                     75768                    20201019                 000001501437496
SIN            2020059431     00008S750           029623-C10                                             0000000150          00000000010000PZ                                                00023823                 2020                     75768                    20201019                 000001501437497
SIN            2020059431     00009S750           029624-C10                                             0000000150          00000000010000PZ                                                00023823                 2020                     75768                    20201019                 000001501437498
SIN            2020059431     00010S750           029627-C10                                             0000000150          00000000010000PZ                                                00023823                 2020                     75768                    20201019                 000001501437502
SIN            2020059431     00011S750           029628-C10                                             0000000150          00000000010000PZ                                                00023823                 2020                     75768                    20201019                 000001501437503
SIN            2020059431     00012S750           029630-C10                                             0000000150          00000000010000PZ                                                00023823                 2020                     75768                    20201019                 000001501437505
SIN            2020059431     00013S750           029769-C12                                             0000000870          00000000012000PZ                                                00023823                 2020                     75768                    20201019                 000008701492512
SIN            2020059431     00014S750           029633-C05                                             0000000150          00000000010000PZ                                                00023823                 2020                     75768                    20201019                 000001501621810
SIN            2020059431     00015S750           029639-C05                                             0000000150          00000000010000PZ                                                00023823                 2020                     75768                    20201019                 000001501621818
SIN            2020059431     00016S750           029640-C05                                             0000000150          00000000015000PZ                                                00023823                 2020                     75768                    20201019                 000001501621819
SIN            2020059431     00017S750           026759-VIS                                             0000008760          00000000003000PZ                                                00023823                 2020                     75768                    20201019                 000087601704709
SIN            2020059431     00018S750           029746-C12                                             0000000872          00000000012000PZ                                                00023823                 2020                     75768                    20201019                 000008721715260
SIN            2020059431     00019S750           029751-C04                                             0000003404          00000000004000PZ                                                00023823                 2020                     75768                    20201019                 000034041715531
SIN            2020059431     00020S750           029770-C04                                             0000003045          00000000004000PZ                                                00023823                 2020                     75768                    20201019                 000030451718152
SIN            2020059431     00021S750           029777-C04                                             0000003467          00000000004000PZ                                                00023823                 2020                     75768                    20201019                 000034671735136
SIN            2020059451     00001S750           029783-C04                                             0000003500          00000000252000PZ                                                00023886                 2020                     2585759001               20201016                 00003500
SIN            2020059451     00002S750           029781-C04                                             0000003540          00000000252000PZ                                                00023886                 2020                     2585759001               20201016                 00003540
SIN            2020059451     00003S750           029780-C12                                             0000000885          00000000480000PZ                                                00023886                 2020                     2585759001               20201016                 00000885
SIN            2020059452     00001S750           029762-C04                                             0000003488          00000000192000PZ                                                00023902                 2020                     2585774001               20201016                 00003488
SIN            2020059452     00002S750           029758-C04                                             0000003408          00000000096000PZ                                                00023902                 2020                     2585774001               20201016                 00003408
SIN            2020059452     00003S750           029735-C12                                             0000000854          00000000576000PZ                                                00023902                 2020                     2585774001               20201016                 00000854
SIN            2020059452     00004S750           026784-C12                                             0000000861          00000000372000PZ                                                00023902                 2020                     2585774001               20201016                 00000861
SIN            2020059452     00005S750           026792-C12                                             0000000848          00000000792000PZ                                                00023902                 2020                     2585774001               20201016                 00000848
SIN            2020059459     00001S750           010511-LAT                                             0000017000          00000000002000PZ                                                00023146                 2020                     -65716                   20201013                 00017000
SIN            2020059464     00001S750           022239-VIS                                             0000033075          00000000003000PZ                                                00023792                 2020                     994 del 17/10 1029-65928 20201019                 00033075
SIN            2020059464     00002S750           022276-VIS                                             0000000001          00000000003000PZ                                                00023792                 2020                     994 del 17/10 1029-65928 20201019                 00000001
SIN            2020059464     00003S750           022233-VIS                                             0000022575          00000000012000PZ                                                00023792                 2020                     994 del 17/10 1029-65928 20201019                 00022575
SIN            2020059464     00004S750           022276-VIS                                             0000000001          00000000012000PZ                                                00023792                 2020                     994 del 17/10 1029-65928 20201019                 00000001
SIN            2020059464     00005S750           022263-VIS                                             0000015880          00000000012000PZ                                                00023792                 2020                     994 del 17/10 1029-65928 20201019                 00015880
SIN            2020059464     00006S750           022276-VIS                                             0000000001          00000000012000PZ                                                00023792                 2020                     994 del 17/10 1029-65928 20201019                 00000001
SIN            2020059464     00007S750           022251-VIS                                             0000009000          00000000020000PZ                                                00023792                 2020                     994 del 17/10 1029-65928 20201019                 00009000
SIN            2020059464     00008S750           022276-VIS                                             0000000001          00000000020000PZ                                                00023792                 2020                     994 del 17/10 1029-65928 20201019                 00000001
SIN            2020059466     00001S750           013233-FTO                                             0000208000          00000000001000PZ                                                00022491                 2020                     0975-65468               20201007                 00208000
SIN            2020059470     00001S750           014471-LAT                                             0000016840          00000000001000PZ                                                00022845                 2020                     -65591                   20201009                 00016840
SIN            2020059470     00002S750           021938-LAT                                             0000017000          00000000001000PZ                                                00022845                 2020                     -65591                   20201009                 00017000
SIN            2020059471     00001S750           021524-C04                                             0000005275          00000000004000PZ                                                00023701                 2020                     -65891                   20201016                 00005275
SIN            2020059471     00002S750           021538-LAT                                             0000020000          00000000001000PZ                                                00023701                 2020                     -65891                   20201016                 00020000
SIN            2020059471     00003S750           021535-C24                                             0000000250          00000000024000PZ                                                00023701                 2020                     -65891                   20201016                 00000250
SIN            2020059471     00004S750           014642-LAT                                             0000016960          00000000001000PZ                                                00023701                 2020                     -65891                   20201016                 00016960
SIN            2020059471     00005S750           014471-LAT                                             0000016840          00000000001000PZ                                                00023701                 2020                     -65891                   20201016                 00016840
SIN            2020059471     00006S750           008741-LAT                                             0000016940          00000000001000PZ                                                00023701                 2020                     -65891                   20201016                 00016940
SIN            2020059471     00007S750           021937-LAT                                             0000016980          00000000001000PZ                                                00023701                 2020                     -65891                   20201016                 00016980
SIN            2020059471     00008S750           029815-LAT                                             0000016820          00000000001000PZ                                                00023701                 2020                     -65891                   20201016                 00016820
SIN            2020059471     00009S750           014647-LAT                                             0000017020          00000000001000PZ                                                00023701                 2020                     -65891                   20201016                 00017020
SIN            2020059471     00010S750           021938-LAT                                             0000017000          00000000001000PZ                                                00023701                 2020                     -65891                   20201016                 00017000
SIN            2020059471     00011S750           029816-LAT                                             0000017100          00000000001000PZ                                                00023701                 2020                     -65891                   20201016                 00017100
SIN            2020059471     00012S750           014660-LAT                                             0000016880          00000000001000PZ                                                00023701                 2020                     -65891                   20201016                 00016880
SIN            2020059471     00013S750           014652-LAT                                             0000017093          00000000001000PZ                                                00023701                 2020                     -65891                   20201016                 00017093
SIN            2020059471     00014S750           022421-LAT                                             0000016680          00000000001000PZ                                                00023701                 2020                     -65891                   20201016                 00016680
SIN            2020059471     00015S750           021940-LAT                                             0000017020          00000000001000PZ                                                00023701                 2020                     -65891                   20201016                 00017020
SIN            2020059471     00016S750           021939-LAT                                             0000017000          00000000001000PZ                                                00023701                 2020                     -65891                   20201016                 00017000
