SIN            2020005821     00001S750           026754-C12                                             0000000880          00000000012000PZ                                                00001654                 2020                                              20200122                 00000880
SIN            2020005823     00001S750           026733-C12                                             0000000850          00000000012000PZ                                                00001665                 2020                     5982695                  20200122                 00000850
SIN            2020005902     00001S750           026756-C12                                             0000000886          00000000048000PZ                                                00001961                 2020                     -57349                   20200124                 00000886
SIN            2020005902     00002S750           022378-VIS                                             0000000001          00000000001000PZ                                                00001961                 2020                     -57349                   20200124                 00000001
SIN            2020005929     00001S750           026754-C12                                             0000000880          00000000060000PZ                                                00001651                 2020                                              20200122                 00000880
SIN            2020005929     00002S750           026755-C04                                             0000003512          00000000008000PZ                                                00001652                 2020                     5434644                  20200122                 00003512
SIN            2020013901     00001S750           016708-VIS                                             0000013932          00000000005000PZ                                                00004560                 2020                     -58224                   20200221                 00013932
SIN            2020013901     00002S750           016707-VIS                                             0000012960          00000000005000PZ                                                00004560                 2020                     -58224                   20200221                 00012960
SIN            2020013901     00003S750           016706-VIS                                             0000011664          00000000005000PZ                                                00004560                 2020                     -58224                   20200221                 00011664
SIN            2020013901     00004S750           011664-C12                                             0000000885          00000000060000PZ                                                00004560                 2020                     -58224                   20200221                 00000885
SIN            2020013902     00001S750           016708-VIS                                             0000013932          00000000003000PZ                                                00004559                 2020                     -58223                   20200221                 00013932
SIN            2020013902     00002S750           016845-VIS                                             0000029250          00000000002000PZ                                                00004559                 2020                     -58223                   20200221                 00029250
SIN            2020013902     00003S750           016707-VIS                                             0000012960          00000000005000PZ                                                00004559                 2020                     -58223                   20200221                 00012960
SIN            2020013902     00004S750           015242-VIS                                             0000016275          00000000002000PZ                                                00004559                 2020                     -58223                   20200221                 00016275
SIN            2020013902     00005S750           016706-VIS                                             0000011664          00000000005000PZ                                                00004559                 2020                     -58223                   20200221                 00011664
SIN            2020013902     00006S750           022550-VIS                                             0000012310          00000000002000PZ                                                00004559                 2020                     -58223                   20200221                 00012310
SIN            2020013902     00007S750           022551-VIS                                             0000015200          00000000002000PZ                                                00004559                 2020                     -58223                   20200221                 00015200
SIN            2020013903     00001S750           013480-VIS                                             0000022575          00000000002000PZ                                                00004799                 2020                     -58299                   20200225                 00022575
SIN            2020013903     00002S750           016708-VIS                                             0000013932          00000000001000PZ                                                00004799                 2020                     -58299                   20200225                 00013932
SIN            2020013903     00003S750           016707-VIS                                             0000012960          00000000001000PZ                                                00004799                 2020                     -58299                   20200225                 00012960
SIN            2020013903     00004S750           015242-VIS                                             0000016275          00000000005000PZ                                                00004799                 2020                     -58299                   20200225                 00016275
SIN            2020013903     00005S750           016706-VIS                                             0000011664          00000000001000PZ                                                00004799                 2020                     -58299                   20200225                 00011664
SIN            2020013903     00006S750           022551-VIS                                             0000015200          00000000002000PZ                                                00004799                 2020                     -58299                   20200225                 00015200
SIN            2020013903     00007S750           022550-VIS                                             0000012310          00000000003000PZ                                                00004799                 2020                     -58299                   20200225                 00012310
SIN            2020013903     00008S750           013157-VIS                                             0000008325          00000000005000PZ                                                00004799                 2020                     -58299                   20200225                 00008325
SIN            2020013903     00009S750           026852-VIS                                             0000013100          00000000010000PZ                                                00004799                 2020                     -58299                   20200225                 00013100
SIN            2020013903     00010S750           026848-VIS                                             0000010350          00000000010000PZ                                                00004799                 2020                     -58299                   20200225                 00010350
SIN            2020013903     00011S750           012792-VIS                                             0000008250          00000000005000PZ                                                00004799                 2020                     -58299                   20200225                 00008250
SIN            2020013904     00001S750           015242-VIS                                             0000016275          00000000005000PZ                                                00004702                 2020                     -58252                   20200224                 00016275
SIN            2020013904     00002S750           022550-VIS                                             0000012310          00000000005000PZ                                                00004702                 2020                     -58252                   20200224                 00012310
SIN            2020013904     00003S750           022551-VIS                                             0000015200          00000000003000PZ                                                00004702                 2020                     -58252                   20200224                 00015200
SIN            2020013904     00004S750           026852-VIS                                             0000013100          00000000002000PZ                                                00004702                 2020                     -58252                   20200224                 00013100
SIN            2020013904     00005S750           026849-VIS                                             0000015200          00000000003000PZ                                                00004702                 2020                     -58252                   20200224                 00015200
SIN            2020013918     00001S750           026738-C04                                             0000004250          00000000016000PZ                                                00004550                 2020                     -58244                   20200222                 00004250
SIN            2020013919     00001S750           026766-C12                                             0000000880          00000000360000PZ                                                00003317                 2020                     -57778                   20200207                 00000880
SIN            2020013920     00001S750           010509-C12                                             0000000850          00000000288000PZ                                                00004690                 2020                     -58253                   20200224                 00000850
SIN            2020013920     00002S750           010521-C12                                             0000000860          00000000012000PZ                                                00004690                 2020                     -58253                   20200224                 00000860
SIN            2020013920     00003S750           010540-C12                                             0000000860          00000000012000PZ                                                00004690                 2020                     -58253                   20200224                 00000860
SIN            2020013920     00004S750           022378-VIS                                             0000000001          00000000001000PZ                                                00004690                 2020                     -58253                   20200224                 00000001
SIN            2020013922     00001S750           026737-C12                                             0000000847          00000000060000PZ                                                00004823                 2020                     -58145                   20200219                 00000847
SIN            2020013922     00002S750           026879-C12                                             0000000880          00000000144000PZ                                                00004823                 2020                     -58145                   20200219                 00000880
SIN            2020013922     00003S750           022378-VIS                                             0000000001          00000000001000PZ                                                00004823                 2020                     -58145                   20200219                 00000001
SIN            2020013922     00004S750           026879-C12                                             0000000880          00000000012000PZ                                                00004823                 2020                     -58145                   20200219                 00000880
SIN            2020013923     00001S750           009725-C12                                             0000000868          00000000276000PZ                                                00005096                 2020                     0199-58400               20200228                 00000868
SIN            2020013924     00001S750           008756-LAT                                             0000017840          00000000050000PZ                                                00000298                 2020                     0019-56727               20200109                 00017840
SIN            2020013925     00001S750           017094-LAT                                             0000016820          00000000003000PZ                                                00004969                 2020                     -58369                   20200227                 00016820
SIN            2020013925     00002S750           014656-LAT                                             0000017100          00000000003000PZ                                                00004969                 2020                     -58369                   20200227                 00017100
SIN            2020013925     00003S750           014647-LAT                                             0000017020          00000000001000PZ                                                00004969                 2020                     -58369                   20200227                 00017020
SIN            2020013925     00004S750           021939-LAT                                             0000017000          00000000003000PZ                                                00004969                 2020                     -58369                   20200227                 00017000
SIN            2020013925     00005S750           008741-LAT                                             0000016940          00000000002000PZ                                                00004969                 2020                     -58369                   20200227                 00016940
SIN            2020013925     00006S750           014642-LAT                                             0000016960          00000000002000PZ                                                00004969                 2020                     -58369                   20200227                 00016960
SIN            2020013926     00001S750           017338-LAT                                             0000017520          00000000001000PZ                                                00005091                 2020                     0195-58387               20200228                 00017520
SIN            2020013926     00002S750           010293-LAT                                             0000018000          00000000001000PZ                                                00005091                 2020                     0195-58387               20200228                 00018000
SIN            2020013926     00003S750           026774-C12                                             0000000300          00000000012000PZ                                                00005091                 2020                     0195-58387               20200228                 00000300
SIN            2020013928     00001S750           009459-LAT                                             0000017200          00000000029000PZ                                                00005072                 2020                     -58413                   20200301                 00017200
SIN            2020013929     00001S750           009459-LAT                                             0000017200          00000000007000PZ                                                00005072                 2020                     -58413                   20200301                 00017200
SIN            2020013929     00002S750           009459-LAT                                             0000017200          00000000002000PZ                                                00005072                 2020                     -58413                   20200301                 00017200
SIN            2020013929     00003S750           022378-VIS                                             0000000001          00000000001000PZ                                                00005072                 2020                     -58413                   20200301                 00000001
SIN            2020013930     00001S750           026802-C12                                             0000000850          00000000180000PZ                                                00004888                 2020                     2001762-58312            20200226                 00000850
SIN            2020013930     00002S750           011834-LAT                                             0000017000          00000000008000PZ                                                00004888                 2020                     2001762-58312            20200226                 00017000
SIN            2020013930     00003S750           020393-C12                                             0000000838          00000000120000PZ                                                00004888                 2020                     2001762-58312            20200226                 00000838
SIN            2020013930     00004S750           020392-C12                                             0000000836          00000000060000PZ                                                00004888                 2020                     2001762-58312            20200226                 00000836
SIN            2020013930     00005S750           026800-LAT                                             0000017400          00000000003000PZ                                                00004888                 2020                     2001762-58312            20200226                 00017400
SIN            2020013931     00001S750           026800-LAT                                             0000017400          00000000007000PZ                                                00004888                 2020                     2001762-58312            20200226                 00017400
SIN            2020013931     00002S750           022378-VIS                                             0000000001          00000000001000PZ                                                00004888                 2020                     2001762-58312            20200226                 00000001
SIN            2020013934     00001S750           022536-C12                                             0000000880          00000000192000PZ                                                00004405                 2020                     -58163                   20200220                 00000880
SIN            2020013934     00002S750           022537-C12                                             0000000880          00000000300000PZ                                                00004405                 2020                     -58163                   20200220                 00000880
SIN            2020013934     00003S750           022378-VIS                                             0000000001          00000000001000PZ                                                00004405                 2020                     -58163                   20200220                 00000001
SIN            2020013935     00001S750           026766-C12                                             0000000880          00000000240000PZ                                                00000160                 2020                     1-56557                  20200102                 00000880
SIN            2020013936     00001S750           026766-C12                                             0000000880          00000000240000PZ                                                00003896                 2020                     -57932                   20200212                 00000880
SIN            2020013937     00001S750           026874-C20                                             0000000880          00000000100000PZ                                                00005075                 2020                     -58418                   20200302                 00000880
SIN            2020013937     00002S750           026738-C04                                             0000004250          00000000020000PZ                                                00005075                 2020                     -58418                   20200302                 00004250
SIN            2020013937     00003S750           026737-C12                                             0000000840          00000000012000PZ                                                00005075                 2020                     -58418                   20200302                 00000840
SIN            2020013937     00004S750           022378-VIS                                             0000000001          00000000001000PZ                                                00005075                 2020                     -58418                   20200302                 00000001
SIN            2020013938     00001S750           026737-C12                                             0000000840          00000000060000PZ                                                00005069                 2020                     -58389                   20200228                 00000840
SIN            2020013938     00002S750           022378-VIS                                             0000000001          00000000001000PZ                                                00005069                 2020                     -58389                   20200228                 00000001
SIN            2020013939     00001S750           011664-C12                                             0000000885          00000000060000PZ                                                00004957                 2020                     -58367                   20200227                 00000885
SIN            2020013939     00002S750           007924-VIS                                             0000000001          00000000001000PZ                                                00004957                 2020                     -58367                   20200227                 00000001
SIN            2020013939     00003S750           022378-VIS                                             0000000001          00000000001000PZ                                                00004957                 2020                     -58367                   20200227                 00000001
SIN            2020013940     00001S750           010505-C12                                             0000000850          00000000036000PZ                                                00005130                 2020                     AZETA 02/03/2020-58420   20200302                 00000850
SIN            2020013940     00002S750           010509-C12                                             0000000850          00000000072000PZ                                                00005130                 2020                     AZETA 02/03/2020-58420   20200302                 00000850
SIN            2020013940     00003S750           010512-C04                                             0000003440          00000000008000PZ                                                00005130                 2020                     AZETA 02/03/2020-58420   20200302                 00003440
SIN            2020013940     00004S750           010513-C12                                             0000000850          00000000024000PZ                                                00005130                 2020                     AZETA 02/03/2020-58420   20200302                 00000850
SIN            2020013940     00005S750           010516-C04                                             0000003480          00000000020000PZ                                                00005130                 2020                     AZETA 02/03/2020-58420   20200302                 00003480
SIN            2020013940     00006S750           022378-VIS                                             0000000001          00000000001000PZ                                                00005130                 2020                     AZETA 02/03/2020-58420   20200302                 00000001
SIN            2020013941     00001S750           026847-VIS                                             0000011700          00000000003000PZ                                                00005065                 2020                     -58380                   20200228                 00011700
SIN            2020013941     00002S750           026852-VIS                                             0000013100          00000000003000PZ                                                00005065                 2020                     -58380                   20200228                 00013100
SIN            2020013941     00003S750           012798-VIS                                             0000010350          00000000006000PZ                                                00005065                 2020                     -58380                   20200228                 00010350
SIN            2020013941     00004S750           022378-VIS                                             0000000001          00000000001000PZ                                                00005065                 2020                     -58380                   20200228                 00000001
SIN            2020013941     00005S750           012798-VIS                                             0000010350          00000000001000PZ                                                00005065                 2020                     -58380                   20200228                 00010350
SIN            2020013941     00006S750           013497-VIS                                             0000015876          00000000024000PZ                                                00005066                 2020                     -58382                   20200228                 00015876
SIN            2020013941     00007S750           022378-VIS                                             0000000001          00000000001000PZ                                                00005066                 2020                     -58382                   20200228                 00000001
SIN            2020013943     00001S750           016314-C12                                             0000000843          00000000060000PZ                                                00005131                 2020                     -58421                   20200302                 00000843
SIN            2020013943     00002S750           010316-C12                                             0000000850          00000000120000PZ                                                00005131                 2020                     -58421                   20200302                 00000850
SIN            2020013943     00003S750           015063-C12                                             0000000850          00000000060000PZ                                                00005131                 2020                     -58421                   20200302                 00000850
SIN            2020013943     00004S750           022378-VIS                                             0000000001          00000000001000PZ                                                00005131                 2020                     -58421                   20200302                 00000001
SIN            2020013944     00001S750           013521-VIS                                             0000016830          00000000002000PZ                                                00005132                 2020                     seve-58422               20200302                 00016830
SIN            2020013944     00002S750           014496-FTO                                             0000223000          00000000001000PZ                                                00005132                 2020                     seve-58422               20200302                 00223000
SIN            2020013944     00003S750           022378-VIS                                             0000000001          00000000001000PZ                                                00005132                 2020                     seve-58422               20200302                 00000001
SIN            2020013947     00001S750           026731-VIS                                             0000009668          00000000015000PZ                                                00005070                 2020                     -58392                   20200228                 00009668
SIN            2020013947     00002S750           026730-VIS                                             0000011168          00000000005000PZ                                                00005070                 2020                     -58392                   20200228                 00011168
SIN            2020013947     00003S750           022378-VIS                                             0000000001          00000000001000PZ                                                00005070                 2020                     -58392                   20200228                 00000001
SIN            2020013949     00001S750           010113-FTO                                             0000182208          00000000004000PZ                                                00004963                 2020                     -58357                   20200227                 00182208
SIN            2020013949     00002S750           008938-FTO                                             0000182830          00000000001000PZ                                                00004963                 2020                     -58357                   20200227                 00182830
SIN            2020013949     00003S750           009410-FTO                                             0000180000          00000000001000PZ                                                00004963                 2020                     -58357                   20200227                 00180000
SIN            2020013949     00004S750           013994-FTO                                             0000176800          00000000001000PZ                                                00004963                 2020                     -58357                   20200227                 00176800
SIN            2020013949     00005S750           014651-FTO                                             0000177840          00000000001000PZ                                                00004963                 2020                     -58357                   20200227                 00177840
SIN            2020013949     00006S750           008744-FTO                                             0000180540          00000000001000PZ                                                00004963                 2020                     -58357                   20200227                 00180540
SIN            2020013949     00007S750           017326-FTO                                             0000183040          00000000002000PZ                                                00004963                 2020                     -58357                   20200227                 00183040
SIN            2020013949     00008S750           017315-FTO                                             0000177630          00000000001000PZ                                                00004963                 2020                     -58357                   20200227                 00177630
SIN            2020013949     00009S750           013506-FTO                                             0000181790          00000000002000PZ                                                00005095                 2020                     -58395                   20200228                 00181790
SIN            2020013950     00001S750           015070-C04                                             0000004275          00000000056000PZ                                                00002236                 2020                     -57411                   20200128                 00004275
SIN            2020013950     00002S750           015070-C04                                             0000004275          00000000004000PZ                                                00002236                 2020                     -57411                   20200128                 00004275
SIN            2020013951     00001S750           026738-C04                                             0000004250          00000000024000PZ                                                00005067                 2020                     -58383                   20200228                 00004250
SIN            2020013951     00002S750           011773-C12                                             0000000860          00000000012000PZ                                                00005067                 2020                     -58383                   20200228                 00000860
SIN            2020013951     00003S750           022378-VIS                                             0000000001          00000000001000PZ                                                00005067                 2020                     -58383                   20200228                 00000001
SIN            2020013952     00001S750           010322-LAT                                             0000018000          00000000004000PZ                                                00005136                 2020                     58325                    20200226                 00018000
SIN            2020013952     00002S750           009029-FTO                                             0000184290          00000000004000PZ                                                00005136                 2020                     58325                    20200226                 00184290
SIN            2020013952     00003S750           008930-FTO                                             0000183250          00000000008000PZ                                                00005136                 2020                     58325                    20200226                 00183250
SIN            2020013952     00004S750           010113-FTO                                             0000182210          00000000004000PZ                                                00005136                 2020                     58325                    20200226                 00182210
SIN            2020013952     00005S750           009471-FTO                                             0000183248          00000000002000PZ                                                00005136                 2020                     58325                    20200226                 00183248
SIN            2020013952     00006S750           014134-LAT                                             0000017480          00000000010000PZ                                                00005136                 2020                     58325                    20200226                 00017480
SIN            2020013953     00001S750           026847-VIS                                             0000011700          00000000002000PZ                                                00004897                 2020                     -58336                   20200227                 00011700
SIN            2020013953     00002S750           026850-VIS                                             0000011775          00000000005000PZ                                                00004897                 2020                     -58336                   20200227                 00011775
SIN            2020013953     00003S750           013488-VIS                                             0000039825          00000000002000PZ                                                00004897                 2020                     -58336                   20200227                 00039825
SIN            2020013953     00004S750           015242-VIS                                             0000016275          00000000002000PZ                                                00004897                 2020                     -58336                   20200227                 00016275
SIN            2020013953     00005S750           022378-VIS                                             0000000001          00000000001000PZ                                                00004897                 2020                     -58336                   20200227                 00000001
SIN            2020013953     00006S750           026874-C20                                             0000000880          00000000020000PZ                                                00004929                 2020                     -58341                   20200227                 00000880
SIN            2020013954     00001S750           026754-C12                                             0000000851          00000000012000PZ                                                00004895                 2020                     -58334                   20200227                 00000851
SIN            2020013954     00002S750           026766-C12                                             0000000875          00000000036000PZ                                                00004895                 2020                     -58334                   20200227                 00000875
SIN            2020013954     00003S750           026737-C12                                             0000000840          00000000012000PZ                                                00004895                 2020                     -58334                   20200227                 00000840
SIN            2020013954     00004S750           026722-C12                                             0000001040          00000000024000PZ                                                00004895                 2020                     -58334                   20200227                 00001040
SIN            2020013954     00005S750           026798-C12                                             0000000870          00000000012000PZ                                                00004895                 2020                     -58334                   20200227                 00000870
SIN            2020013954     00006S750           026881-LAT                                             0000010000          00000000003000PZ                                                00004895                 2020                     -58334                   20200227                 00010000
SIN            2020013954     00007S750           022378-VIS                                             0000000001          00000000001000PZ                                                00004895                 2020                     -58334                   20200227                 00000001
SIN            2020013956     00001S750           026737-C12                                             0000000840          00000000360000PZ                                                00005088                 2020                     -58405                   20200228                 00000840
SIN            2020013957     00001S750           026766-C12                                             0000000875          00000000240000PZ                                                00005062                 2020                     -58376                   20200228                 00000875
SIN            2020013957     00002S750           026799-C12                                             0000000850          00000000144000PZ                                                00005062                 2020                     -58376                   20200228                 00000850
SIN            2020013957     00003S750           022378-VIS                                             0000000001          00000000001000PZ                                                00005062                 2020                     -58376                   20200228                 00000001
SIN            2020013957     00004S750           026799-C12                                             0000000850          00000000012000PZ                                                00005062                 2020                     -58376                   20200228                 00000850
SIN            2020013960     00001S750           010505-C12                                             0000000850          00000000024000PZ                                                00005074                 2020                     4-58417                  20200302                 00000850
SIN            2020013960     00002S750           010507-LAT                                             0000017000          00000000001000PZ                                                00005074                 2020                     4-58417                  20200302                 00017000
SIN            2020013960     00003S750           010509-C12                                             0000000850          00000000036000PZ                                                00005074                 2020                     4-58417                  20200302                 00000850
SIN            2020013960     00004S750           010511-LAT                                             0000017000          00000000001000PZ                                                00005074                 2020                     4-58417                  20200302                 00017000
SIN            2020013960     00005S750           010516-C04                                             0000003480          00000000008000PZ                                                00005074                 2020                     4-58417                  20200302                 00003480
SIN            2020013960     00006S750           010517-C12                                             0000000870          00000000036000PZ                                                00005074                 2020                     4-58417                  20200302                 00000870
SIN            2020013960     00007S750           021579-C12                                             0000000857          00000000024000PZ                                                00005074                 2020                     4-58417                  20200302                 00000857
SIN            2020013960     00008S750           021660-LAT                                             0000018000          00000000001000PZ                                                00005074                 2020                     4-58417                  20200302                 00018000
SIN            2020013960     00009S750           022378-VIS                                             0000000001          00000000001000PZ                                                00005074                 2020                     4-58417                  20200302                 00000001
SIN            2020013967     00001S750           022252-VIS                                             0000010200          00000000003000PZ                                                00005135                 2020                     215408                   20200302                 00010200
SIN            2020013967     00002S750           022442-VIS                                             0000000001          00000000003000PZ                                                00005135                 2020                     215408                   20200302                 00000001
SIN            2020013967     00003S750           022260-VIS                                             0000012300          00000000002000PZ                                                00005135                 2020                     215408                   20200302                 00012300
SIN            2020013967     00004S750           022442-VIS                                             0000000001          00000000002000PZ                                                00005135                 2020                     215408                   20200302                 00000001
SIN            2020013967     00005S750           022231-VIS                                             0000015075          00000000001000PZ                                                00005135                 2020                     215408                   20200302                 00015075
SIN            2020013967     00006S750           022442-VIS                                             0000000001          00000000001000PZ                                                00005135                 2020                     215408                   20200302                 00000001
SIN            2020013968     00001S750           008751-FTO                                             0000183660          00000000001000PZ                                                00005089                 2020                     GU2000282/02-58379       20200228                 00183660
SIN            2020013968     00002S750           009478-FTO                                             0000176800          00000000001000PZ                                                00005089                 2020                     GU2000282/02-58379       20200228                 00176800
SIN            2020013968     00003S750           010147-C10                                             0000000065          00000000010000PZ                                                00005089                 2020                     GU2000282/02-58379       20200228                 00000065
SIN            2020013969     00001S750           026766-C12                                             0000000880          00000000240000PZ                                                00002235                 2020                     -57407                   20200128                 00000880
SIN            2020013969     00002S750           013874-FTO                                             0000174000          00000000002000PZ                                                00004691                 2020                     -58255                   20200224                 00174000
SIN            2020013969     00003S750           013876-FTO                                             0000170000          00000000002000PZ                                                00004691                 2020                     -58255                   20200224                 00170000
SIN            2020013971     00001S750           026731-VIS                                             0000009668          00000000010000PZ                                                00005073                 2020                     -58414                   20200301                 00009668
SIN            2020013971     00002S750           026745-C20                                             0000000880          00000000120000PZ                                                00005073                 2020                     -58414                   20200301                 00000880
SIN            2020013971     00003S750           022378-VIS                                             0000000001          00000000001000PZ                                                00005073                 2020                     -58414                   20200301                 00000001
SIN            2020013971     00004S750           026745-C20                                             0000000880          00000000020000PZ                                                00005073                 2020                     -58414                   20200301                 00000880
SIN            2020013972     00001S750           026793-C04                                             0000003520          00000000016000PZ                                                00005143                 2020                     5851622-58429            20200302                 00003520
SIN            2020013972     00002S750           026792-C12                                             0000000848          00000000120000PZ                                                00005143                 2020                     5851622-58429            20200302                 00000848
SIN            2020013973     00001S750           026792-C12                                             0000000848          00000000120000PZ                                                00005137                 2020                     6106860-58423            20200302                 00000848
SIN            2020013974     00001S750           026792-C12                                             0000000848          00000000024000PZ                                                00005142                 2020                     6116235-58428            20200302                 00000848
SIN            2020013974     00002S750           007924-VIS                                             0000000001          00000000001000PZ                                                00005142                 2020                     6116235-58428            20200302                 00000001
SIN            2020013975     00001S750           026793-C04                                             0000003520          00000000020000PZ                                                00005139                 2020                     6113926-58425            20200302                 00003520
SIN            2020013975     00002S750           026792-C12                                             0000000848          00000000180000PZ                                                00005139                 2020                     6113926-58425            20200302                 00000848
SIN            2020013976     00001S750           026755-C04                                             0000003404          00000000008000PZ                                                00005144                 2020                     -58430                   20200302                 00003404
SIN            2020013976     00002S750           026793-C04                                             0000003520          00000000008000PZ                                                00005144                 2020                     -58430                   20200302                 00003520
SIN            2020013977     00001S750           009448-FTO                                             0000178670          00000000002000PZ                                                00004425                 2020                     1-58198                  20200220                 00178670
SIN            2020013978     00001S750           009448-FTO                                             0000178670          00000000002000PZ                                                00004425                 2020                     1-58198                  20200220                 00178670
SIN            2020013979     00001S750           009448-FTO                                             0000178670          00000000001000PZ                                                00004425                 2020                     1-58198                  20200220                 00178670
SIN            2020013979     00002S750           009459-LAT                                             0000017200          00000000015000PZ                                                00004425                 2020                     1-58198                  20200220                 00017200
SIN            2020013979     00003S750           022378-VIS                                             0000000001          00000000001000PZ                                                00004425                 2020                     1-58198                  20200220                 00000001
SIN            2020013980     00001S750           026800-LAT                                             0000017400          00000000012000PZ                                                00004959                 2020                     -58372                   20200228                 00017400
SIN            2020013980     00002S750           026737-C12                                             0000000840          00000000060000PZ                                                00004959                 2020                     -58372                   20200228                 00000840
SIN            2020013980     00003S750           011834-LAT                                             0000017000          00000000005000PZ                                                00004959                 2020                     -58372                   20200228                 00017000
SIN            2020013980     00004S750           022378-VIS                                             0000000001          00000000001000PZ                                                00004959                 2020                     -58372                   20200228                 00000001
SIN            2020013980     00005S750           026800-LAT                                             0000017400          00000000001000PZ                                                00004959                 2020                     -58372                   20200228                 00017400
SIN            2020013985     00001S750           017094-LAT                                             0000016820          00000000002000PZ                                                00005103                 2020                     270-58409                20200228                 00016820
SIN            2020013985     00002S750           014660-LAT                                             0000016880          00000000004000PZ                                                00005103                 2020                     270-58409                20200228                 00016880
SIN            2020013985     00003S750           008744-FTO                                             0000180540          00000000001000PZ                                                00005103                 2020                     270-58409                20200228                 00180540
SIN            2020013985     00004S750           014656-LAT                                             0000017100          00000000002000PZ                                                00005103                 2020                     270-58409                20200228                 00017100
SIN            2020013985     00005S750           014654-C12                                             0000000855          00000000060000PZ                                                00005103                 2020                     270-58409                20200228                 00000855
SIN            2020013985     00006S750           017326-FTO                                             0000183040          00000000008000PZ                                                00005103                 2020                     270-58409                20200228                 00183040
SIN            2020013985     00007S750           017323-FTO                                             0000180960          00000000001000PZ                                                00005103                 2020                     270-58409                20200228                 00180960
SIN            2020013985     00008S750           017327-LAT                                             0000017600          00000000006000PZ                                                00005103                 2020                     270-58409                20200228                 00017600
SIN            2020013985     00009S750           008860-FTO                                             0000179710          00000000008000PZ                                                00005103                 2020                     270-58409                20200228                 00179710
SIN            2020013985     00010S750           010113-FTO                                             0000182208          00000000002000PZ                                                00005103                 2020                     270-58409                20200228                 00182208
SIN            2020013985     00011S750           010114-LAT                                             0000017520          00000000006000PZ                                                00005103                 2020                     270-58409                20200228                 00017520
SIN            2020013985     00012S750           014652-LAT                                             0000017100          00000000002000PZ                                                00005103                 2020                     270-58409                20200228                 00017100
SIN            2020013985     00013S750           002265-FTO                                             0000176800          00000000002000PZ                                                00005103                 2020                     270-58409                20200228                 00176800
SIN            2020013986     00001S750           021940-LAT                                             0000017020          00000000020000PZ                                                00005093                 2020                     16/C-58391               20200228                 00017020
SIN            2020013986     00002S750           014656-LAT                                             0000017100          00000000020000PZ                                                00005093                 2020                     16/C-58391               20200228                 00017100
SIN            2020013986     00003S750           017094-LAT                                             0000016820          00000000020000PZ                                                00005093                 2020                     16/C-58391               20200228                 00016820
SIN            2020013986     00004S750           014660-LAT                                             0000016880          00000000020000PZ                                                00005093                 2020                     16/C-58391               20200228                 00016880
SIN            2020013986     00005S750           014652-LAT                                             0000017100          00000000015000PZ                                                00005093                 2020                     16/C-58391               20200228                 00017100
SIN            2020013986     00006S750           008745-LAT                                             0000017360          00000000001000PZ                                                00005093                 2020                     16/C-58391               20200228                 00017360
SIN            2020013987     00001S750           008750-LAT                                             0000017200          00000000018000PZ                                                00004208                 2020                     LU1790-57901             20200212                 00017200
SIN            2020013987     00002S750           008755-FTO                                             0000185530          00000000006000PZ                                                00004208                 2020                     LU1790-57901             20200212                 00185530
SIN            2020013989     00001S750           014656-LAT                                             0000017100          00000000012000PZ                                                00004965                 2020                     -58360                   20200227                 00017100
SIN            2020013989     00002S750           014642-LAT                                             0000016960          00000000006000PZ                                                00004965                 2020                     -58360                   20200227                 00016960
SIN            2020013989     00003S750           008741-LAT                                             0000016940          00000000005000PZ                                                00004965                 2020                     -58360                   20200227                 00016940
SIN            2020013989     00004S750           008745-LAT                                             0000017360          00000000006000PZ                                                00004965                 2020                     -58360                   20200227                 00017360
SIN            2020013989     00005S750           017094-LAT                                             0000016820          00000000005000PZ                                                00004965                 2020                     -58360                   20200227                 00016820
SIN            2020013989     00006S750           021938-LAT                                             0000017000          00000000006000PZ                                                00004965                 2020                     -58360                   20200227                 00017000
SIN            2020013989     00007S750           014660-LAT                                             0000016880          00000000010000PZ                                                00004965                 2020                     -58360                   20200227                 00016880
SIN            2020013989     00008S750           021940-LAT                                             0000017020          00000000010000PZ                                                00004965                 2020                     -58360                   20200227                 00017020
SIN            2020013989     00009S750           008860-FTO                                             0000179710          00000000002000PZ                                                00004965                 2020                     -58360                   20200227                 00179710
SIN            2020013989     00010S750           010052-LAT                                             0000017440          00000000032000PZ                                                00004965                 2020                     -58360                   20200227                 00017440
SIN            2020013989     00011S750           017321-LAT                                             0000017100          00000000001000PZ                                                00004965                 2020                     -58360                   20200227                 00017100
SIN            2020013989     00012S750           017320-FTO                                             0000177840          00000000001000PZ                                                00004965                 2020                     -58360                   20200227                 00177840
SIN            2020013989     00013S750           017324-LAT                                             0000017400          00000000010000PZ                                                00004965                 2020                     -58360                   20200227                 00017400
SIN            2020013989     00014S750           008795-FTO                                             0000180540          00000000004000PZ                                                00004965                 2020                     -58360                   20200227                 00180540
SIN            2020013989     00015S750           014135-FTO                                             0000181370          00000000001000PZ                                                00004965                 2020                     -58360                   20200227                 00181370
SIN            2020013989     00016S750           021535-C24                                             0000000250          00000000072000PZ                                                00004965                 2020                     -58360                   20200227                 00000250
SIN            2020013989     00017S750           017094-LAT                                             0000016820          00000000004000PZ                                                00004965                 2020                     -58360                   20200227                 00016820
SIN            2020013989     00018S750           014656-LAT                                             0000017100          00000000001000PZ                                                00004965                 2020                     -58360                   20200227                 00017100
SIN            2020013994     00001S750           026738-C04                                             0000004250          00000000024000PZ                                                00005068                 2020                     -58385                   20200228                 00004250
SIN            2020013994     00002S750           026737-C12                                             0000000840          00000000072000PZ                                                00005068                 2020                     -58385                   20200228                 00000840
SIN            2020013994     00003S750           022378-VIS                                             0000000001          00000000001000PZ                                                00005068                 2020                     -58385                   20200228                 00000001
SIN            2020013994     00004S750           026737-C12                                             0000000840          00000000012000PZ                                                00005068                 2020                     -58385                   20200228                 00000840
SIN            2020013995     00001S750           014471-LAT                                             0000016840          00000000002000PZ                                                00004913                 2020                     1165-58335               20200227                 00016840
SIN            2020013995     00002S750           014642-LAT                                             0000016960          00000000002000PZ                                                00004913                 2020                     1165-58335               20200227                 00016960
SIN            2020013995     00003S750           014647-LAT                                             0000017020          00000000001000PZ                                                00004913                 2020                     1165-58335               20200227                 00017020
SIN            2020013995     00004S750           014652-LAT                                             0000017100          00000000005000PZ                                                00004913                 2020                     1165-58335               20200227                 00017100
SIN            2020013995     00005S750           014656-LAT                                             0000017100          00000000002000PZ                                                00004913                 2020                     1165-58335               20200227                 00017100
SIN            2020013995     00006S750           014660-LAT                                             0000016880          00000000003000PZ                                                00004913                 2020                     1165-58335               20200227                 00016880
SIN            2020013995     00007S750           017094-LAT                                             0000016820          00000000008000PZ                                                00004913                 2020                     1165-58335               20200227                 00016820
SIN            2020013995     00008S750           021535-C24                                             0000000250          00000000072000PZ                                                00004913                 2020                     1165-58335               20200227                 00000250
SIN            2020013995     00009S750           021937-LAT                                             0000016980          00000000002000PZ                                                00004913                 2020                     1165-58335               20200227                 00016980
SIN            2020013995     00010S750           021938-LAT                                             0000017000          00000000001000PZ                                                00004913                 2020                     1165-58335               20200227                 00017000
SIN            2020013995     00011S750           021939-LAT                                             0000017000          00000000003000PZ                                                00004913                 2020                     1165-58335               20200227                 00017000
SIN            2020013996     00001S750           021939-LAT                                             0000017000          00000000002000PZ                                                00004913                 2020                     1165-58335               20200227                 00017000
SIN            2020013996     00002S750           021940-LAT                                             0000017020          00000000001000PZ                                                00004913                 2020                     1165-58335               20200227                 00017020
SIN            2020013996     00003S750           008735-LAT                                             0000018020          00000000001000PZ                                                00004913                 2020                     1165-58335               20200227                 00018020
SIN            2020013996     00004S750           008741-LAT                                             0000016940          00000000002000PZ                                                00004913                 2020                     1165-58335               20200227                 00016940
SIN            2020013999     00001S750           010113-FTO                                             0000182208          00000000001000PZ                                                00005101                 2020                     -58407                   20200228                 00182208
SIN            2020014000     00001S750           017094-LAT                                             0000016820          00000000003000PZ                                                00005100                 2020                     -58406                   20200228                 00016820
SIN            2020014000     00002S750           014660-LAT                                             0000016880          00000000002000PZ                                                00005100                 2020                     -58406                   20200228                 00016880
SIN            2020014000     00003S750           008741-LAT                                             0000016940          00000000001000PZ                                                00005100                 2020                     -58406                   20200228                 00016940
SIN            2020014000     00004S750           014642-LAT                                             0000016960          00000000001000PZ                                                00005100                 2020                     -58406                   20200228                 00016960
SIN            2020014000     00005S750           021535-C24                                             0000000250          00000000072000PZ                                                00005100                 2020                     -58406                   20200228                 00000250
SIN            2020014001     00001S750           026726-C12                                             0000000871          00000000024000PZ                                                00002633                 2020                     2000155-57538            20200131                 00000871
SIN            2020014002     00001S750           011807-C12                                             0000000850          00000000012000PZ                                                00005141                 2020                     2000321-58427            20200302                 00000850
SIN            2020014002     00002S750           011799-C04                                             0000003480          00000000012000PZ                                                00005141                 2020                     2000321-58427            20200302                 00003480
SIN            2020014002     00003S750           026798-C12                                             0000000870          00000000036000PZ                                                00005141                 2020                     2000321-58427            20200302                 00000870
SIN            2020014003     00001S750           009725-C12                                             0000000868          00000000120000PZ                                                00005102                 2020                     2000315-58408            20200228                 00000868
SIN            2020014003     00002S750           009727-C12                                             0000000850          00000000120000PZ                                                00005102                 2020                     2000315-58408            20200228                 00000850
SIN            2020014003     00003S750           026766-C12                                             0000000875          00000000036000PZ                                                00005102                 2020                     2000315-58408            20200228                 00000875
SIN            2020014004     00001S750           026766-C12                                             0000000875          00000000240000PZ                                                00001899                 2020                     -57295                   20200123                 00000875
SIN            2020014004     00002S750           022378-VIS                                             0000000001          00000000001000PZ                                                00001899                 2020                     -57295                   20200123                 00000001
SIN            2020014005     00001S750           026716-C20                                             0000000855          00000000020000PZ                                                00004927                 2020                     -58339                   20200227                 00000855
SIN            2020014005     00002S750           015070-C04                                             0000004275          00000000004000PZ                                                00004927                 2020                     -58339                   20200227                 00004275
SIN            2020014005     00003S750           009910-C12                                             0000000848          00000000012000PZ                                                00004927                 2020                     -58339                   20200227                 00000848
SIN            2020014005     00004S750           014060-LAT                                             0000017300          00000000001000PZ                                                00004927                 2020                     -58339                   20200227                 00017300
SIN            2020014005     00005S750           021985-C24                                             0000001060          00000000024000PZ                                                00004927                 2020                     -58339                   20200227                 00001060
SIN            2020014005     00006S750           017097-C04                                             0000003480          00000000012000PZ                                                00004927                 2020                     -58339                   20200227                 00003480
SIN            2020014005     00007S750           009459-LAT                                             0000017200          00000000002000PZ                                                00004927                 2020                     -58339                   20200227                 00017200
SIN            2020014005     00008S750           014142-C04                                             0000003460          00000000016000PZ                                                00004927                 2020                     -58339                   20200227                 00003460
SIN            2020014005     00009S750           013995-C12                                             0000000870          00000000012000PZ                                                00004927                 2020                     -58339                   20200227                 00000870
SIN            2020014005     00010S750           014144-C12                                             0000000860          00000000024000PZ                                                00004927                 2020                     -58339                   20200227                 00000860
SIN            2020014005     00011S750           011773-C12                                             0000000860          00000000012000PZ                                                00004927                 2020                     -58339                   20200227                 00000860
SIN            2020014005     00012S750           026798-C12                                             0000000870          00000000024000PZ                                                00004927                 2020                     -58339                   20200227                 00000870
SIN            2020014005     00013S750           014141-C12                                             0000000865          00000000048000PZ                                                00004927                 2020                     -58339                   20200227                 00000865
SIN            2020014005     00014S750           026808-C12                                             0000001000          00000000012000PZ                                                00004927                 2020                     -58339                   20200227                 00001000
SIN            2020014005     00015S750           011517-C10                                             0000000030          00000000010000PZ                                                00004927                 2020                     -58339                   20200227                 00000030
SIN            2020014005     00016S750           026780-C12                                             0000001000          00000000012000PZ                                                00004927                 2020                     -58339                   20200227                 00001000
SIN            2020014005     00017S750           022378-VIS                                             0000000001          00000000001000PZ                                                00004927                 2020                     -58339                   20200227                 00000001
SIN            2020014007     00001S750           017013-FTO                                             0000173584          00000000001000PZ                                                00004982                 2020                     -58374                   20200228                 00173584
SIN            2020014007     00002S750           010293-LAT                                             0000018000          00000000002000PZ                                                00004982                 2020                     -58374                   20200228                 00018000
SIN            2020014008     00001S750           026731-VIS                                             0000009668          00000000003000PZ                                                00001441                 2020                     LT200114NIS1C1ad-56915   20200114                 00009668
SIN            2020014008     00002S750           026730-VIS                                             0000011168          00000000006000PZ                                                00001441                 2020                     LT200114NIS1C1ad-56915   20200114                 00011168
SIN            2020014008     00003S750           026729-VIS                                             0000013298          00000000006000PZ                                                00001441                 2020                     LT200114NIS1C1ad-56915   20200114                 00013298
SIN            2020014008     00004S750           026732-VIS                                             0000016658          00000000003000PZ                                                00001441                 2020                     LT200114NIS1C1ad-56915   20200114                 00016658
SIN            2020014008     00005S750           026760-VIS                                             0000017378          00000000003000PZ                                                00001441                 2020                     LT200114NIS1C1ad-56915   20200114                 00017378
SIN            2020014008     00006S750           022248-VIS                                             0000009150          00000000027000PZ                                                00001441                 2020                     LT200114NIS1C1ad-56915   20200114                 00009150
SIN            2020014008     00007S750           022252-VIS                                             0000010200          00000000022000PZ                                                00001441                 2020                     LT200114NIS1C1ad-56915   20200114                 00010200
SIN            2020014008     00008S750           022259-VIS                                             0000012720          00000000019000PZ                                                00001441                 2020                     LT200114NIS1C1ad-56915   20200114                 00012720
SIN            2020014008     00009S750           022250-VIS                                             0000008910          00000000012000PZ                                                00001441                 2020                     LT200114NIS1C1ad-56915   20200114                 00008910
SIN            2020014008     00010S750           022248-VIS                                             0000009150          00000000007000PZ                                                00001441                 2020                     LT200114NIS1C1ad-56915   20200114                 00009150
SIN            2020014008     00011S750           022252-VIS                                             0000010200          00000000006000PZ                                                00001441                 2020                     LT200114NIS1C1ad-56915   20200114                 00010200
SIN            2020014008     00012S750           022259-VIS                                             0000012720          00000000005000PZ                                                00001441                 2020                     LT200114NIS1C1ad-56915   20200114                 00012720
SIN            2020014010     00001S750           010051-FTO                                             0000181375          00000000004000PZ                                                00005097                 2020                     -58402                   20200228                 00181375
SIN            2020014011     00001S750           014135-FTO                                             0000181370          00000000004000PZ                                                00004914                 2020                     -58338                   20200227                 00181370
SIN            2020014011     00002S750           017337-FTO                                             0000182200          00000000004000PZ                                                00004914                 2020                     -58338                   20200227                 00182200
SIN            2020014011     00003S750           017326-FTO                                             0000183040          00000000004000PZ                                                00004914                 2020                     -58338                   20200227                 00183040
SIN            2020014011     00004S750           008900-C01                                             0000876000          00000000001000PZ                                                00004914                 2020                     -58338                   20200227                 00876000
SIN            2020014011     00005S750           010113-FTO                                             0000182208          00000000002000PZ                                                00004914                 2020                     -58338                   20200227                 00182208
SIN            2020014011     00006S750           010111-FTO                                             0000181375          00000000002000PZ                                                00004914                 2020                     -58338                   20200227                 00181375
SIN            2020014011     00007S750           010322-LAT                                             0000018000          00000000001000PZ                                                00004914                 2020                     -58338                   20200227                 00018000
SIN            2020014011     00008S750           008750-LAT                                             0000017200          00000000006000PZ                                                00004914                 2020                     -58338                   20200227                 00017200
SIN            2020014011     00009S750           017334-LAT                                             0000017360          00000000004000PZ                                                00004914                 2020                     -58338                   20200227                 00017360
SIN            2020014011     00010S750           008745-LAT                                             0000017360          00000000001000PZ                                                00004914                 2020                     -58338                   20200227                 00017360
SIN            2020014011     00011S750           014650-C12                                             0000000853          00000000024000PZ                                                00004914                 2020                     -58338                   20200227                 00000853
SIN            2020014011     00012S750           014654-C12                                             0000000855          00000000024000PZ                                                00004914                 2020                     -58338                   20200227                 00000855
SIN            2020014011     00013S750           011545-C12                                             0000000874          00000000012000PZ                                                00004914                 2020                     -58338                   20200227                 00000874
SIN            2020014012     00001S750           008875-FTO                                             0000180000          00000000006000PZ                                                00002007                 2020                     -57364                   20200126                 00180000
SIN            2020014013     00001S750           022248-VIS                                             0000008475          00000000050000PZ                                                00000894                 2020                     6801                     20200115                 00008475
SIN            2020014013     00002S750           022442-VIS                                             0000000001          00000000050000PZ                                                00000894                 2020                     6801                     20200115                 00000001
SIN            2020014013     00003S750           022252-VIS                                             0000010200          00000000050000PZ                                                00000894                 2020                     6801                     20200115                 00010200
SIN            2020014013     00004S750           022442-VIS                                             0000000001          00000000050000PZ                                                00000894                 2020                     6801                     20200115                 00000001
SIN            2020014013     00005S750           022260-VIS                                             0000012300          00000000050000PZ                                                00000894                 2020                     6801                     20200115                 00012300
SIN            2020014013     00006S750           022442-VIS                                             0000000001          00000000050000PZ                                                00000894                 2020                     6801                     20200115                 00000001
SIN            2020014013     00007S750           022231-VIS                                             0000015075          00000000050000PZ                                                00000894                 2020                     6801                     20200115                 00015075
SIN            2020014013     00008S750           022442-VIS                                             0000000001          00000000050000PZ                                                00000894                 2020                     6801                     20200115                 00000001
SIN            2020014014     00001S750           014642-LAT                                             0000016960          00000000005000PZ                                                00005094                 2020                     53/MP-58393              20200228                 00016960
SIN            2020014014     00002S750           017094-LAT                                             0000016820          00000000005000PZ                                                00005094                 2020                     53/MP-58393              20200228                 00016820
SIN            2020014014     00003S750           016993-LAT                                             0000017180          00000000001000PZ                                                00005094                 2020                     53/MP-58393              20200228                 00017180
SIN            2020014015     00001S750           026966-VIS                                             0000000200          00000000002000PZ                                                00005057                 2020                     23884                    20200302                 00000200
SIN            2020014015     00002S750           026967-VIS                                             0000000200          00000000002000PZ                                                00005057                 2020                     23884                    20200302                 00000200
SIN            2020014015     00003S750           026968-VIS                                             0000000200          00000000002000PZ                                                00005057                 2020                     23884                    20200302                 00000200
SIN            2020014015     00004S750           026969-VIS                                             0000000200          00000000002000PZ                                                00005057                 2020                     23884                    20200302                 00000200
SIN            2020014015     00005S750           026970-VIS                                             0000000200          00000000002000PZ                                                00005057                 2020                     23884                    20200302                 00000200
SIN            2020014015     00006S750           026975-VIS                                             0000000200          00000000002000PZ                                                00005057                 2020                     23884                    20200302                 00000200
SIN            2020014016     00001S750           026967-VIS                                             0000000200          00000000001000PZ                                                00005084                 2020                     23886                    20200302                 00000200
SIN            2020014016     00002S750           026970-VIS                                             0000000200          00000000001000PZ                                                00005084                 2020                     23886                    20200302                 00000200
SIN            2020014016     00003S750           026972-VIS                                             0000000200          00000000003000PZ                                                00005084                 2020                     23886                    20200302                 00000200
SIN            2020014016     00004S750           026973-VIS                                             0000000200          00000000003000PZ                                                00005084                 2020                     23886                    20200302                 00000200
SIN            2020014016     00005S750           026974-VIS                                             0000000200          00000000002000PZ                                                00005084                 2020                     23886                    20200302                 00000200
SIN            2020014016     00006S750           026975-VIS                                             0000000200          00000000001000PZ                                                00005084                 2020                     23886                    20200302                 00000200
SIN            2020014016     00007S750           026976-VIS                                             0000000200          00000000001000PZ                                                00005084                 2020                     23886                    20200302                 00000200
SIN            2020014016     00008S750           026981-VIS                                             0000000200          00000000001000PZ                                                00005084                 2020                     23886                    20200302                 00000200
SIN            2020014016     00009S750           026982-VIS                                             0000000200          00000000001000PZ                                                00005084                 2020                     23886                    20200302                 00000200
SIN            2020014016     00010S750           026983-VIS                                             0000000200          00000000001000PZ                                                00005084                 2020                     23886                    20200302                 00000200
SIN            2020014016     00011S750           026984-VIS                                             0000000200          00000000001000PZ                                                00005084                 2020                     23886                    20200302                 00000200
SIN            2020014016     00012S750           026986-VIS                                             0000000200          00000000003000PZ                                                00005084                 2020                     23886                    20200302                 00000200
SIN            2020014016     00013S750           026987-VIS                                             0000000200          00000000002000PZ                                                00005084                 2020                     23886                    20200302                 00000200
SIN            2020014016     00014S750           026988-VIS                                             0000000200          00000000003000PZ                                                00005084                 2020                     23886                    20200302                 00000200
SIN            2020014016     00015S750           026989-VIS                                             0000000200          00000000001000PZ                                                00005084                 2020                     23886                    20200302                 00000200
