SIN            2018051921     00001S750           014453-C04                                             0000003500          00000000004000PZ                                                00018440                 2018                     10212                    20180622
SIN            2018053542     00001S750           015098-VIS                                             0000007695          00000000013000PZ                                                00020193                 2018                     389396                   20180711
SIN            2018053542     00002S750           015099-VIS                                             0000008667          00000000135000PZ                                                00020193                 2018                     389396                   20180711
SIN            2018053542     00003S750           015101-VIS                                             0000011016          00000000091000PZ                                                00020193                 2018                     389396                   20180711
SIN            2018053542     00004S750           015102-VIS                                             0000012960          00000000064000PZ                                                00020193                 2018                     389396                   20180711
SIN            2018053542     00005S750           015103-VIS                                             0000013500          00000000043000PZ                                                00020193                 2018                     389396                   20180711
SIN            2018053542     00006S750           015104-VIS                                             0000014418          00000000035000PZ                                                00020193                 2018                     389396                   20180711
SIN            2018053542     00007S750           015105-VIS                                             0000015358          00000000015000PZ                                                00020193                 2018                     389396                   20180711
SIN            2018053542     00008S750           016824-VIS                                             0000018000          00000000008000PZ                                                00020193                 2018                     389396                   20180711
SIN            2018053543     00001S750           015098-VIS                                             0000007695          00000000022000PZ                                                00020195                 2018                     652808                   20180711
SIN            2018053543     00002S750           015099-VIS                                             0000008667          00000000071000PZ                                                00020195                 2018                     652808                   20180711
SIN            2018053543     00003S750           015101-VIS                                             0000011016          00000000068000PZ                                                00020195                 2018                     652808                   20180711
SIN            2018053543     00004S750           015102-VIS                                             0000012960          00000000045000PZ                                                00020195                 2018                     652808                   20180711
SIN            2018053543     00005S750           015103-VIS                                             0000013500          00000000042000PZ                                                00020195                 2018                     652808                   20180711
SIN            2018053543     00006S750           015104-VIS                                             0000014418          00000000035000PZ                                                00020195                 2018                     652808                   20180711
SIN            2018053543     00007S750           015105-VIS                                             0000015358          00000000020000PZ                                                00020195                 2018                     652808                   20180711
SIN            2018053543     00008S750           016824-VIS                                             0000018000          00000000007000PZ                                                00020195                 2018                     652808                   20180711
SIN            2018054498     00001S750           013158-VIS                                             0000011100          00000000025000PZ                                                00019974                 2018                     -39059                   20180711
SIN            2018055881     00001S750           007924-VIS                                             0000000001          00000000001000PZ                                                00008857                 2018                     449-35388                20180409
SIN            2018055883     00001S750           013516-VIS                                             0000009095          00000000009000PZ                                                00021778                 2018                     1070-39667               20180725
SIN            2018055883     00002S750           013515-VIS                                             0000009500          00000000001000PZ                                                00021778                 2018                     1070-39667               20180725
SIN            2018055883     00003S750           014596-VIS                                             0000011928          00000000002000PZ                                                00021778                 2018                     1070-39667               20180725
SIN            2018055883     00004S750           013520-VIS                                             0000015130          00000000004000PZ                                                00021778                 2018                     1070-39667               20180725
SIN            2018055883     00005S750           014602-VIS                                             0000017892          00000000001000PZ                                                00021778                 2018                     1070-39667               20180725
SIN            2018055883     00006S750           014609-VIS                                             0000018228          00000000002000PZ                                                00021778                 2018                     1070-39667               20180725
SIN            2018055884     00001S750           007924-VIS                                             0000000001          00000000001000PZ                                                00021726                 2018                     1068-39635               20180724
SIN            2018055885     00001S750           007924-VIS                                             0000000001          00000000001000PZ                                                00019161                 2018                     961-38742                20180703
SIN            2018055886     00001S750           007924-VIS                                             0000000001          00000000001000PZ                                                00020196                 2018                     994-39144                20180713
SIN            2018055899     00001S750           015099-VIS                                             0000008667          00000000072000PZ                                                00021814                 2018                     -39571                   20180723
SIN            2018055901     00001S750           015099-VIS                                             0000008667          00000000072000PZ                                                00021700                 2018                     -39608                   20180723
SIN            2018055902     00001S750           021534-LAT                                             0000017200          00000000001000PZ                                                00020608                 2018                     -39286                   20180717
SIN            2018055903     00001S750           009721-C12                                             0000000870          00000000012000PZ                                                00014960                 2018                     -37327                   20180530
SIN            2018055924     00001S750           007924-VIS                                             0000000001          00000000001000PZ                                                00010193                 2018                     -35786                   20180419
SIN            2018055925     00001S750           015099-VIS                                             0000008667          00000000072000PZ                                                00021782                 2018                                              20180724
SIN            2018055939     00001S750           015099-VIS                                             0000008667          00000000216000PZ                                                00021816                 2018                     -39572                   20180723
SIN            2018055941     00001S750           015099-VIS                                             0000008667          00000000072000PZ                                                00021828                 2018                     -39581                   20180723
SIN            2018055946     00001S750           010587-LAT                                             0000017360          00000000006000PZ                                                00021775                 2018                     4504782672-39663         20180725
SIN            2018056330     00001S750           014618-VIS                                             0000033264          00000000001000PZ                                                00020775                 2018                     1028-39345               20180718
SIN            2018056369     00001S750           014141-C12                                             0000000865          00000000024000PZ                                                00021778                 2018                     1070-39667               20180725
SIN            2018056369     00002S750           014142-C04                                             0000003460          00000000008000PZ                                                00021778                 2018                     1070-39667               20180725
SIN            2018056370     00001S750           010633-C12                                             0000000860          00000001620000PZ                                                00018836                 2018                     ORDINE 580-2-38615       20180629
SIN            2018056370     00002S750           010636-C12                                             0000000870          00000000816000PZ                                                00018836                 2018                     ORDINE 580-2-38615       20180629
SIN            2018056370     00003S750           010637-C04                                             0000003460          00000000148000PZ                                                00018836                 2018                     ORDINE 580-2-38615       20180629
SIN            2018056371     00001S750           010517-C12                                             0000000870          00000000228000PZ                                                00010723                 2018                     -35978                   20180426
SIN            2018056371     00002S750           010517-C12                                             0000000870          00000000228000PZ                                                00010723                 2018                     -35978                   20180426
SIN            2018056372     00001S750           002340-VIS                                             0000015705          00000000002000PZ                                                00021522                 2018                     1789                     20180719
SIN            2018056373     00001S750           002340-VIS                                             0000015705          00000000002000PZ                                                00021523                 2018                     1790                     20180719
SIN            2018056374     00001S750           002340-VIS                                             0000015705          00000000003000PZ                                                00021524                 2018                     1791                     20180719
SIN            2018056375     00001S750           008900-C01                                             0000876000          00000000004000PZ                                                00018792                 2018                     -38675                   20180702
SIN            2018056376     00001S750           015099-VIS                                             0000008667          00000000001000PZ                                                00021066                 2018                     -39383                   20180718
SIN            2018056377     00001S750           015099-VIS                                             0000008667          00000000002000PZ                                                00021070                 2018                     -39391                   20180718
SIN            2018056377     00002S750           015099-VIS                                             0000008667          00000000001000PZ                                                00021070                 2018                     -39391                   20180718
SIN            2018056378     00001S750           015099-VIS                                             0000008667          00000000004000PZ                                                00021821                 2018                     -39638                   20180724
SIN            2018056379     00001S750           017310-CU1                                             0000864000          00000000001000PZ                                                00013601                 2018                     -36118                   20180502
SIN            2018056379     00002S750           017310-CU1                                             0000864000          00000000001000PZ                                                00013601                 2018                     -36118                   20180502
SIN            2018056380     00001S750           016862-CU1                                             0000860000          00000000001000PZ                                                00021725                 2018                     -39633                   20180724
SIN            2018056380     00002S750           009604-VIS                                             0000999000          00000000001000PZ                                                00021725                 2018                     -39633                   20180724
SIN            2018056381     00001S750           013876-FTO                                             0000170000          00000000001000PZ                                                00021435                 2018                     -39492                   20180720
SIN            2018056382     00001S750           007924-VIS                                             0000000001          00000000001000PZ                                                00019193                 2018                     03072018i22_2-38759      20180703
SIN            2018056383     00001S750           010312-C12                                             0000000850          00000000108000PZ                                                00017026                 2018                     -38090                   20180614
SIN            2018056383     00002S750           010313-C04                                             0000003400          00000000004000PZ                                                00017026                 2018                     -38090                   20180614
SIN            2018056384     00001S750           008935-FTO                                             0000184703          00000000008000PZ                                                00019694                 2018                     CF00048317-2 del 18.05.1820180706
SIN            2018056385     00001S750           008795-FTO                                             0000180540          00000000008000PZ                                                00019031                 2018                     -38657                   20180630
SIN            2018056385     00002S750           009725-C12                                             0000000868          00000000096000PZ                                                00019031                 2018                     -38657                   20180630
SIN            2018056386     00001S750           009725-C12                                             0000000868          00000000120000PZ                                                00020973                 2018                     1800970-39399            20180718
SIN            2018056387     00001S750           007924-VIS                                             0000000001          00000000001000PZ                                                00012711                 2018                     -36608                   20180514
SIN            2018056388     00001S750           007924-VIS                                             0000000001          00000000001000PZ                                                00019845                 2018                     -39008                   20180710
SIN            2018056389     00001S750           008733-LAT                                             0000018140          00000000003000PZ                                                00020946                 2018                     -39359                   20180718
SIN            2018056389     00002S750           009440-LAT                                             0000017840          00000000002000PZ                                                00020946                 2018                     -39359                   20180718
SIN            2018056389     00003S750           009441-LAT                                             0000017580          00000000003000PZ                                                00020946                 2018                     -39359                   20180718
SIN            2018056389     00004S750           010180-FNO                                             0000050000          00000000001000PZ                                                00020946                 2018                     -39359                   20180718
SIN            2018056389     00005S750           014135-FTO                                             0000181370          00000000004000PZ                                                00020946                 2018                     -39359                   20180718
SIN            2018056389     00006S750           008984-FTO                                             0000186783          00000000001000PZ                                                00020946                 2018                     -39359                   20180718
SIN            2018056390     00001S750           015099-VIS                                             0000008667          00000000003000PZ                                                00021389                 2018                     39417 - A                20180719
SIN            2018056390     00002S750           015099-VIS                                             0000008667          00000000004000PZ                                                00021390                 2018                     39417 - S                20180719
SIN            2018056391     00001S750           008928-FTO                                             0000182207          00000000010000PZ                                                00018364                 2018                     -38533                   20180627
