SIN            2020028473     00001S750           022252-VIS                                             0000010200          00000000189000PZ                                                00010834                 2020                     2334                     20200605                 00010200
SIN            2020028473     00002S750           022442-VIS                                             0000000001          00000000189000PZ                                                00010834                 2020                     2334                     20200605                 00000001
SIN            2020028473     00003S750           022256-VIS                                             0000011400          00000000102000PZ                                                00010834                 2020                     2334                     20200605                 00011400
SIN            2020028473     00004S750           022442-VIS                                             0000000001          00000000102000PZ                                                00010834                 2020                     2334                     20200605                 00000001
SIN            2020028473     00005S750           022260-VIS                                             0000012300          00000000056000PZ                                                00010834                 2020                     2334                     20200605                 00012300
SIN            2020028473     00006S750           022442-VIS                                             0000000001          00000000056000PZ                                                00010834                 2020                     2334                     20200605                 00000001
SIN            2020028473     00007S750           022231-VIS                                             0000015075          00000000108000PZ                                                00010834                 2020                     2334                     20200605                 00015075
SIN            2020028473     00008S750           022442-VIS                                             0000000001          00000000108000PZ                                                00010834                 2020                     2334                     20200605                 00000001
SIN            2020030747     00001S750           022256-VIS                                             0000011400          00000000054000PZ                                                00012303                 2020                     218122                   20200619                 00011400
SIN            2020030747     00002S750           022442-VIS                                             0000000001          00000000054000PZ                                                00012303                 2020                     218122                   20200619                 00000001
SIN            2020030747     00003S750           022252-VIS                                             0000010200          00000000027000PZ                                                00013083                 2020                     218311                   20200629                 00010200
SIN            2020030747     00004S750           022442-VIS                                             0000000001          00000000027000PZ                                                00013083                 2020                     218311                   20200629                 00000001
SIN            2020030747     00005S750           022256-VIS                                             0000011400          00000000186000PZ                                                00013083                 2020                     218311                   20200629                 00011400
SIN            2020030747     00006S750           022442-VIS                                             0000000001          00000000186000PZ                                                00013083                 2020                     218311                   20200629                 00000001
SIN            2020031063     00001S750           022250-VIS                                             0000008250          00000000040000PZ                                                00013138                 2020                     064287                   20200629                 00008250
SIN            2020031063     00002S750           022442-VIS                                             0000000001          00000000040000PZ                                                00013138                 2020                     064287                   20200629                 00000001
SIN            2020031389     00001S750           010516-C04                                             0000003480          00000000016000PZ                                                00013333                 2020                     -61787                   20200630                 00003480
SIN            2020031389     00002S750           010513-C12                                             0000000850          00000000516000PZ                                                00013333                 2020                     -61787                   20200630                 00000850
SIN            2020031395     00001S750           022231-VIS                                             0000015075          00000000050000PZ                                                00013307                 2020                     2139                     20200630                 00015075
SIN            2020031395     00002S750           022442-VIS                                             0000000001          00000000050000PZ                                                00013307                 2020                     2139                     20200630                 00000001
SIN            2020031420     00001S750           021561-C05                                             0000000150          00000000005000PZ                                                00010656                 2020                     LUB1-59962               20200519                 00000150
SIN            2020031420     00002S750           021560-C05                                             0000000150          00000000005000PZ                                                00010656                 2020                     LUB1-59962               20200519                 00000150
SIN            2020031420     00003S750           021557-C05                                             0000000150          00000000005000PZ                                                00010656                 2020                     LUB1-59962               20200519                 00000150
SIN            2020031420     00004S750           021549-C05                                             0000000150          00000000005000PZ                                                00010656                 2020                     LUB1-59962               20200519                 00000150
SIN            2020032005     00001S750           026724-C12                                             0000000850          00000000588000PZ                                                00013511                 2020                                              20200702                 00000850
SIN            2020032006     00001S750           026724-C12                                             0000000850          00000000588000PZ                                                00013511                 2020                                              20200702                 00000850
SIN            2020032041     00001S750           016994-C04                                             0000004415          00000000020000PZ                                                00013580                 2020                     0592-61914               20200702                 00004415
SIN            2020032041     00002S750           017328-C04                                             0000004400          00000000016000PZ                                                00013580                 2020                     0592-61914               20200702                 00004400
SIN            2020032045     00001S750           009093-LAT                                             0000021220          00000000010000PZ                                                00011805                 2020                     -61103                   20200615                 00021220
SIN            2020032082     00001S750           026737-C12                                             0000000840          00000000036000PZ                                                00010168                 2020                     -60369                   20200528                 00000840
SIN            2020032086     00001S750           022252-VIS                                             0000010200          00000000007000PZ                                                00013138                 2020                     064287                   20200629                 00010200
SIN            2020032086     00002S750           022442-VIS                                             0000000001          00000000007000PZ                                                00013138                 2020                     064287                   20200629                 00000001
SIN            2020032090     00001S750           022248-VIS                                             0000008475          00000000088000PZ                                                00012303                 2020                     218122                   20200619                 00008475
SIN            2020032090     00002S750           022442-VIS                                             0000000001          00000000088000PZ                                                00012303                 2020                     218122                   20200619                 00000001
SIN            2020032090     00003S750           022252-VIS                                             0000010200          00000000053000PZ                                                00013083                 2020                     218311                   20200629                 00010200
SIN            2020032090     00004S750           022442-VIS                                             0000000001          00000000053000PZ                                                00013083                 2020                     218311                   20200629                 00000001
SIN            2020032090     00005S750           022248-VIS                                             0000008475          00000000002000PZ                                                00013083                 2020                     218311                   20200629                 00008475
SIN            2020032090     00006S750           022442-VIS                                             0000000001          00000000002000PZ                                                00013083                 2020                     218311                   20200629                 00000001
SIN            2020032093     00001S750           026754-C12                                             0000000880          00000000024000PZ                                                00012797                 2020                     6283768-61560            20200625                 00000880
SIN            2020032093     00002S750           026755-C04                                             0000003404          00000000020000PZ                                                00012797                 2020                     6283768-61560            20200625                 00003404
SIN            2020032097     00001S750           026865-C12                                             0000000871          00000000012000PZ                                                00013622                 2020                     7-61911                  20200702                 00000871
SIN            2020032097     00002S750           026727-C12                                             0000000880          00000000012000PZ                                                00013622                 2020                     7-61911                  20200702                 00000880
SIN            2020032097     00003S750           022378-VIS                                             0000000001          00000000001000PZ                                                00013622                 2020                     7-61911                  20200702                 00000001
SIN            2020032102     00001S750           010505-C12                                             0000000850          00000000060000PZ                                                00013620                 2020                     -61891                   20200702                 00000850
SIN            2020032102     00002S750           010509-C12                                             0000000850          00000000120000PZ                                                00013620                 2020                     -61891                   20200702                 00000850
SIN            2020032102     00003S750           010517-C12                                             0000000870          00000000060000PZ                                                00013620                 2020                     -61891                   20200702                 00000870
SIN            2020032102     00004S750           015699-C12                                             0000000850          00000000012000PZ                                                00013620                 2020                     -61891                   20200702                 00000850
SIN            2020032104     00001S750           010111-FTO                                             0000181375          00000000002000PZ                                                00013220                 2020                     -61724                   20200629                 00181375
SIN            2020032106     00001S750           011799-C04                                             0000003480          00000000012000PZ                                                00013653                 2020                     24655-61921              20200702                 00003480
SIN            2020032106     00002S750           026881-LAT                                             0000010000          00000000020000PZ                                                00013653                 2020                     24655-61921              20200702                 00010000
SIN            2020032107     00001S750           009446-FTO                                             0000168800          00000000001000PZ                                                00013669                 2020                     24661-61960              20200703                 00168800
SIN            2020032109     00001S750           026881-LAT                                             0000010000          00000000010000PZ                                                00013651                 2020                     24653-61919              20200702                 00010000
SIN            2020032110     00001S750           026881-LAT                                             0000010000          00000000020000PZ                                                00013654                 2020                     24656-61922              20200702                 00010000
SIN            2020032111     00001S750           026881-LAT                                             0000010000          00000000010000PZ                                                00013649                 2020                     24651-61917              20200702                 00010000
SIN            2020032112     00001S750           026799-C12                                             0000000850          00000000012000PZ                                                00013648                 2020                     478/2020                 20200702                 00000850
SIN            2020032112     00002S750           026881-LAT                                             0000010000          00000000020000PZ                                                00013648                 2020                     478/2020                 20200702                 00010000
SIN            2020032113     00001S750           026881-LAT                                             0000010000          00000000020000PZ                                                00013650                 2020                     24652-61918              20200702                 00010000
SIN            2020032126     00001S750           011668-LAT                                             0000017200          00000000005000PZ                                                00013629                 2020                     -61940                   20200702                 00017200
SIN            2020032126     00002S750           022378-VIS                                             0000000001          00000000001000PZ                                                00013629                 2020                     -61940                   20200702                 00000001
SIN            2020032127     00001S750           010111-FTO                                             0000181375          00000000001000PZ                                                00013317                 2020                     -61792                   20200630                 00181375
SIN            2020032128     00001S750           026855-C12                                             0000000865          00000000360000PZ                                                00010763                 2020                     -60626                   20200604                 00000865
SIN            2020032131     00001S750           022541-FTO                                             0000178043          00000000001000PZ                                                00013677                 2020                     10205717179 IT1019273-61920200703                 00178043
SIN            2020032133     00001S750           027066-FTO                                             0000188655          00000000001000PZ                                                00013676                 2020                     10205717154 IT1019244-61920200703                 00188655
SIN            2020032135     00001S750           027074-FTO                                             0000176170          00000000001000PZ                                                00013670                 2020                     10205717192 IT1019285-61920200703                 00176170
SIN            2020032138     00001S750           027076-FTO                                             0000177215          00000000001000PZ                                                00012682                 2020                     10205716950 IT1019023-61520200624                 00177215
SIN            2020032139     00001S750           027076-FTO                                             0000177215          00000000001000PZ                                                00013526                 2020                     10205717139 IT1019227-61820200702                 00177215
SIN            2020032143     00001S750           010322-LAT                                             0000018000          00000000003000PZ                                                00013673                 2020                     10205717183 IT1019276-61920200703                 00018000
SIN            2020032143     00002S750           007924-VIS                                             0000000001          00000000001000PZ                                                00013673                 2020                     10205717183 IT1019276-61920200703                 00000001
SIN            2020032386     00001S750           008745-LAT                                             0000017360          00000000001000PZ                                                00013712                 2020                     -61969                   20200703                 00017360
SIN            2020032386     00002S750           021939-LAT                                             0000017000          00000000001000PZ                                                00013712                 2020                     -61969                   20200703                 00017000
SIN            2020032386     00003S750           007924-VIS                                             0000000001          00000000001000PZ                                                00013712                 2020                     -61969                   20200703                 00000001
SIN            2020032387     00001S750           014642-LAT                                             0000016960          00000000001000PZ                                                00013713                 2020                     -61970                   20200703                 00016960
SIN            2020032387     00002S750           008741-LAT                                             0000016940          00000000001000PZ                                                00013713                 2020                     -61970                   20200703                 00016940
SIN            2020032387     00003S750           021937-LAT                                             0000016980          00000000001000PZ                                                00013713                 2020                     -61970                   20200703                 00016980
SIN            2020032387     00004S750           017094-LAT                                             0000016820          00000000001000PZ                                                00013713                 2020                     -61970                   20200703                 00016820
SIN            2020032387     00005S750           014647-LAT                                             0000017020          00000000001000PZ                                                00013713                 2020                     -61970                   20200703                 00017020
SIN            2020032387     00006S750           014656-LAT                                             0000017100          00000000001000PZ                                                00013713                 2020                     -61970                   20200703                 00017100
SIN            2020032387     00007S750           014660-LAT                                             0000016880          00000000001000PZ                                                00013713                 2020                     -61970                   20200703                 00016880
SIN            2020032387     00008S750           014652-LAT                                             0000017093          00000000001000PZ                                                00013713                 2020                     -61970                   20200703                 00017093
SIN            2020032387     00009S750           021940-LAT                                             0000017020          00000000001000PZ                                                00013713                 2020                     -61970                   20200703                 00017020
SIN            2020032387     00010S750           021939-LAT                                             0000017000          00000000001000PZ                                                00013713                 2020                     -61970                   20200703                 00017000
SIN            2020032389     00001S750           021940-LAT                                             0000017020          00000000003000PZ                                                00013714                 2020                     -61972                   20200703                 00017020
SIN            2020032389     00002S750           014656-LAT                                             0000017100          00000000002000PZ                                                00013714                 2020                     -61972                   20200703                 00017100
SIN            2020032389     00003S750           014652-LAT                                             0000017093          00000000003000PZ                                                00013714                 2020                     -61972                   20200703                 00017093
SIN            2020032389     00004S750           017094-LAT                                             0000016820          00000000002000PZ                                                00013714                 2020                     -61972                   20200703                 00016820
SIN            2020032389     00005S750           021939-LAT                                             0000017000          00000000002000PZ                                                00013714                 2020                     -61972                   20200703                 00017000
SIN            2020032389     00006S750           010112-LAT                                             0000017440          00000000002000PZ                                                00013714                 2020                     -61972                   20200703                 00017440
SIN            2020032391     00001S750           017316-LAT                                             0000017080          00000000002000PZ                                                00013711                 2020                     -61954                   20200703                 00017080
SIN            2020032391     00002S750           017334-LAT                                             0000017360          00000000002000PZ                                                00013711                 2020                     -61954                   20200703                 00017360
SIN            2020032391     00003S750           021630-LAT                                             0000017960          00000000003000PZ                                                00013711                 2020                     -61954                   20200703                 00017960
SIN            2020032391     00004S750           014652-LAT                                             0000017093          00000000001000PZ                                                00013711                 2020                     -61954                   20200703                 00017093
SIN            2020032391     00005S750           010113-FTO                                             0000182208          00000000002000PZ                                                00013711                 2020                     -61954                   20200703                 00182208
SIN            2020032391     00006S750           010111-FTO                                             0000181375          00000000001000PZ                                                00013711                 2020                     -61954                   20200703                 00181375
SIN            2020032391     00007S750           010114-LAT                                             0000017520          00000000002000PZ                                                00013711                 2020                     -61954                   20200703                 00017520
SIN            2020032391     00008S750           014165-LAT                                             0000017620          00000000002000PZ                                                00013711                 2020                     -61954                   20200703                 00017620
SIN            2020032391     00009S750           009412-LAT                                             0000017400          00000000003000PZ                                                00013711                 2020                     -61954                   20200703                 00017400
SIN            2020032400     00001S750           022240-VIS                                             0000033075          00000000001000PZ                                                00013230                 2020                     0579-61760               20200630                 00033075
SIN            2020032400     00002S750           022276-VIS                                             0000000001          00000000001000PZ                                                00013230                 2020                     0579-61760               20200630                 00000001
SIN            2020032400     00003S750           026743-C12                                             0000000871          00000000012000PZ                                                00013230                 2020                     0579-61760               20200630                 00000871
SIN            2020032400     00004S750           009445-LAT                                             0000017000          00000000001000PZ                                                00013230                 2020                     0579-61760               20200630                 00017000
SIN            2020032400     00005S750           009447-LAT                                             0000017400          00000000001000PZ                                                00013230                 2020                     0579-61760               20200630                 00017400
SIN            2020032400     00006S750           022251-VIS                                             0000009000          00000000001000PZ                                                00013230                 2020                     0579-61760               20200630                 00009000
SIN            2020032400     00007S750           022276-VIS                                             0000000001          00000000001000PZ                                                00013230                 2020                     0579-61760               20200630                 00000001
SIN            2020032400     00008S750           026881-LAT                                             0000010000          00000000001000PZ                                                00013230                 2020                     0579-61760               20200630                 00010000
SIN            2020032403     00001S750           026735-C12                                             0000000848          00000000012000PZ                                                00013453                 2020                     506                      20200701                 00000848
SIN            2020032404     00001S750           026737-C12                                             0000000840          00000000732000PZ                                                00013422                 2020                     ORDINE 2020395-61858     20200701                 00000840
SIN            2020032405     00001S750           026737-C12                                             0000000840          00000000012000PZ                                                00013411                 2020                     -61838                   20200701                 00000840
SIN            2020032406     00001S750           026796-C12                                             0000000850          00000000264000PZ                                                00013722                 2020                     -61980                   20200703                 00000850
SIN            2020032406     00002S750           026881-LAT                                             0000010000          00000000020000PZ                                                00013722                 2020                     -61980                   20200703                 00010000
SIN            2020032406     00003S750           009910-C12                                             0000000848          00000000024000PZ                                                00013722                 2020                     -61980                   20200703                 00000848
SIN            2020032406     00004S750           026839-C24                                             0000000082          00000000048000PZ                                                00013722                 2020                     -61980                   20200703                 00000082
SIN            2020032406     00005S750           026840-C24                                             0000000100          00000000048000PZ                                                00013722                 2020                     -61980                   20200703                 00000100
SIN            2020032406     00006S750           026796-C12                                             0000000850          00000000024000PZ                                                00013722                 2020                     -61980                   20200703                 00000850
SIN            2020032406     00007S750           026881-LAT                                             0000010000          00000000002000PZ                                                00013722                 2020                     -61980                   20200703                 00010000
SIN            2020032406     00008S750           026839-C24                                             0000000100          00000000024000PZ                                                00013722                 2020                     -61980                   20200703                 00000100
SIN            2020032406     00009S750           022378-VIS                                             0000000001          00000000001000PZ                                                00013722                 2020                     -61980                   20200703                 00000001
SIN            2020032407     00001S750           026713-C12                                             0000000862          00000000012000PZ                                                00013719                 2020                     -61938                   20200702                 00000862
SIN            2020032407     00002S750           026724-C12                                             0000000846          00000000060000PZ                                                00013719                 2020                     -61938                   20200702                 00000846
SIN            2020032407     00003S750           026708-C12                                             0000000848          00000000024000PZ                                                00013719                 2020                     -61938                   20200702                 00000848
SIN            2020032407     00004S750           022378-VIS                                             0000000001          00000000001000PZ                                                00013719                 2020                     -61938                   20200702                 00000001
SIN            2020032408     00001S750           022536-C12                                             0000000880          00000000312000PZ                                                00013765                 2020                     -61861                   20200702                 00000880
SIN            2020032408     00002S750           022530-C12                                             0000000870          00000000252000PZ                                                00013765                 2020                     -61861                   20200702                 00000870
SIN            2020032409     00001S750           022530-C12                                             0000000870          00000000060000PZ                                                00013765                 2020                     -61861                   20200702                 00000870
SIN            2020032409     00002S750           022378-VIS                                             0000000001          00000000001000PZ                                                00013765                 2020                     -61861                   20200702                 00000001
SIN            2020032409     00003S750           026881-LAT                                             0000010000          00000000120000PZ                                                00013873                 2020                     -62024                   20200706                 00010000
SIN            2020032410     00001S750           015284-VIS                                             0000015225          00000000002000PZ                                                00013481                 2020                     -61825                   20200701                 00015225
SIN            2020032410     00002S750           013495-VIS                                             0000011775          00000000002000PZ                                                00013481                 2020                     -61825                   20200701                 00011775
SIN            2020032410     00003S750           015284-VIS                                             0000015225          00000000001000PZ                                                00013481                 2020                     -61825                   20200701                 00015225
SIN            2020032411     00001S750           026792-C12                                             0000000848          00000000024000PZ                                                00013717                 2020                     -61903                   20200702                 00000848
SIN            2020032411     00002S750           026724-C12                                             0000000846          00000000060000PZ                                                00013717                 2020                     -61903                   20200702                 00000846
SIN            2020032411     00003S750           026741-C12                                             0000000871          00000000024000PZ                                                00013717                 2020                     -61903                   20200702                 00000871
SIN            2020032411     00004S750           026798-C12                                             0000000870          00000000048000PZ                                                00013717                 2020                     -61903                   20200702                 00000870
SIN            2020032411     00005S750           022378-VIS                                             0000000001          00000000001000PZ                                                00013717                 2020                     -61903                   20200702                 00000001
SIN            2020032412     00001S750           022248-VIS                                             0000009150          00000000002000PZ                                                00012993                 2020                                              20200629                 00009150
SIN            2020032418     00001S750           012791-VIS                                             0000007950          00000000030000PZ                                                00013341                 2020                     1-61806                  20200630                 00007950
SIN            2020032418     00002S750           013495-VIS                                             0000011775          00000000008000PZ                                                00013341                 2020                     1-61806                  20200630                 00011775
SIN            2020032420     00001S750           011799-C04                                             0000003480          00000000016000PZ                                                00013779                 2020                     -62021                   20200706                 00003480
SIN            2020032420     00002S750           026798-C12                                             0000000870          00000000048000PZ                                                00013779                 2020                     -62021                   20200706                 00000870
SIN            2020032420     00003S750           022378-VIS                                             0000000001          00000000001000PZ                                                00013779                 2020                     -62021                   20200706                 00000001
SIN            2020032422     00001S750           000280-C20                                             0000000880          00000000020000PZ                                                00013293                 2020                     -61796                   20200630                 00000880
SIN            2020032423     00001S750           026737-C12                                             0000000840          00000000084000PZ                                                00010168                 2020                     -60369                   20200528                 00000840
SIN            2020032424     00001S750           008873-FTO                                             0000186160          00000000001000PZ                                                00013715                 2020                     -61974                   20200703                 00186160
SIN            2020032425     00001S750           015284-VIS                                             0000015225          00000000006000PZ                                                00012794                 2020                     -61553                   20200625                 00015225
SIN            2020032425     00002S750           012791-VIS                                             0000007950          00000000003000PZ                                                00012794                 2020                     -61553                   20200625                 00007950
SIN            2020032425     00003S750           012805-VIS                                             0000017253          00000000011000PZ                                                00012794                 2020                     -61553                   20200625                 00017253
SIN            2020032425     00004S750           012805-VIS                                             0000017253          00000000001000PZ                                                00012794                 2020                     -61553                   20200625                 00017253
SIN            2020032427     00001S750           008795-FTO                                             0000180540          00000000001000PZ                                                00013855                 2020                     -61991                   20200703                 00180540
SIN            2020032427     00002S750           013994-FTO                                             0000176800          00000000001000PZ                                                00013855                 2020                     -61991                   20200703                 00176800
SIN            2020032427     00003S750           017013-FTO                                             0000173584          00000000001000PZ                                                00013856                 2020                     -61995                   20200704                 00173584
SIN            2020032428     00001S750           010505-C12                                             0000000850          00000000024000PZ                                                00013720                 2020                     10-61977                 20200703                 00000850
SIN            2020032428     00002S750           010509-C12                                             0000000850          00000000024000PZ                                                00013720                 2020                     10-61977                 20200703                 00000850
SIN            2020032428     00003S750           010511-LAT                                             0000017000          00000000003000PZ                                                00013720                 2020                     10-61977                 20200703                 00017000
SIN            2020032428     00004S750           010516-C04                                             0000003480          00000000016000PZ                                                00013720                 2020                     10-61977                 20200703                 00003480
SIN            2020032428     00005S750           010517-C12                                             0000000870          00000000012000PZ                                                00013720                 2020                     10-61977                 20200703                 00000870
SIN            2020032428     00006S750           022378-VIS                                             0000000001          00000000001000PZ                                                00013720                 2020                     10-61977                 20200703                 00000001
SIN            2020032431     00001S750           026745-C20                                             0000000880          00000000020000PZ                                                00013869                 2020                     -61931                   20200702                 00000880
SIN            2020032431     00002S750           000292-C20                                             0000000850          00000000020000PZ                                                00013869                 2020                     -61931                   20200702                 00000850
SIN            2020032431     00003S750           026792-C12                                             0000000848          00000000012000PZ                                                00013869                 2020                     -61931                   20200702                 00000848
SIN            2020032431     00004S750           026796-C12                                             0000000850          00000000012000PZ                                                00013869                 2020                     -61931                   20200702                 00000850
SIN            2020032431     00005S750           026855-C12                                             0000000865          00000000012000PZ                                                00013869                 2020                     -61931                   20200702                 00000865
SIN            2020032431     00006S750           026798-C12                                             0000000870          00000000060000PZ                                                00013869                 2020                     -61931                   20200702                 00000870
SIN            2020032431     00007S750           026881-LAT                                             0000010000          00000000012000PZ                                                00013869                 2020                     -61931                   20200702                 00010000
SIN            2020032431     00008S750           022378-VIS                                             0000000001          00000000001000PZ                                                00013869                 2020                     -61931                   20200702                 00000001
SIN            2020032431     00009S750           026881-LAT                                             0000010000          00000000001000PZ                                                00013869                 2020                     -61931                   20200702                 00010000
SIN            2020032433     00001S750           026792-C12                                             0000000848          00000000024000PZ                                                00013881                 2020                     -61986                   20200703                 00000848
SIN            2020032433     00002S750           011627-C04                                             0000003400          00000000008000PZ                                                00013881                 2020                     -61986                   20200703                 00003400
SIN            2020032433     00003S750           026802-C12                                             0000000850          00000000024000PZ                                                00013881                 2020                     -61986                   20200703                 00000850
SIN            2020032433     00004S750           026813-C04                                             0000005000          00000000004000PZ                                                00013881                 2020                     -61986                   20200703                 00005000
SIN            2020032433     00005S750           011646-C04                                             0000003400          00000000008000PZ                                                00013881                 2020                     -61986                   20200703                 00003400
SIN            2020032433     00006S750           011670-C12                                             0000000850          00000000012000PZ                                                00013881                 2020                     -61986                   20200703                 00000850
SIN            2020032433     00007S750           026796-C12                                             0000000850          00000000012000PZ                                                00013881                 2020                     -61986                   20200703                 00000850
SIN            2020032433     00008S750           011664-C12                                             0000000860          00000000012000PZ                                                00013881                 2020                     -61986                   20200703                 00000860
SIN            2020032433     00009S750           011799-C04                                             0000003480          00000000012000PZ                                                00013881                 2020                     -61986                   20200703                 00003480
SIN            2020032433     00010S750           026812-C12                                             0000001000          00000000012000PZ                                                00013881                 2020                     -61986                   20200703                 00001000
SIN            2020032433     00011S750           026798-C12                                             0000000870          00000000012000PZ                                                00013881                 2020                     -61986                   20200703                 00000870
SIN            2020032433     00012S750           026854-C04                                             0000005000          00000000008000PZ                                                00013881                 2020                     -61986                   20200703                 00005000
SIN            2020032433     00013S750           022378-VIS                                             0000000001          00000000001000PZ                                                00013881                 2020                     -61986                   20200703                 00000001
SIN            2020032434     00001S750           026983-VIS                                             0000000200          00000000005000PZ                                                00011271                 2020                                              20200610                 00000200
SIN            2020032435     00001S750           026968-VIS                                             0000001300          00000000010000PZ                                                00013728                 2020                                              20200706                 00001300
SIN            2020032435     00002S750           026970-VIS                                             0000001300          00000000010000PZ                                                00013728                 2020                                              20200706                 00001300
SIN            2020032435     00003S750           026971-VIS                                             0000000200          00000000010000PZ                                                00013728                 2020                                              20200706                 00000200
SIN            2020032435     00004S750           026989-VIS                                             0000000200          00000000005000PZ                                                00013728                 2020                                              20200706                 00000200
SIN            2020032436     00001S750           015243-VIS                                             0000013200          00000000010000PZ                                                00013878                 2020                     -62035                   20200706                 00013200
SIN            2020032436     00002S750           026848-VIS                                             0000010350          00000000010000PZ                                                00013878                 2020                     -62035                   20200706                 00010350
SIN            2020032436     00003S750           026712-C24                                             0000001000          00000000072000PZ                                                00013878                 2020                     -62035                   20200706                 00001000
SIN            2020032436     00004S750           022378-VIS                                             0000000001          00000000001000PZ                                                00013878                 2020                     -62035                   20200706                 00000001
SIN            2020032437     00001S750           026724-C12                                             0000000846          00000000024000PZ                                                00013767                 2020                     -61999                   20200704                 00000846
SIN            2020032437     00002S750           026853-C12                                             0000000865          00000000012000PZ                                                00013767                 2020                     -61999                   20200704                 00000865
SIN            2020032437     00003S750           022378-VIS                                             0000000001          00000000001000PZ                                                00013767                 2020                     -61999                   20200704                 00000001
SIN            2020032438     00001S750           026848-VIS                                             0000010350          00000000003000PZ                                                00013766                 2020                     -61997                   20200704                 00010350
SIN            2020032438     00002S750           012787-VIS                                             0000007575          00000000005000PZ                                                00013766                 2020                     -61997                   20200704                 00007575
SIN            2020032438     00003S750           026881-LAT                                             0000010000          00000000005000PZ                                                00013766                 2020                     -61997                   20200704                 00010000
SIN            2020032438     00004S750           022378-VIS                                             0000000001          00000000001000PZ                                                00013766                 2020                     -61997                   20200704                 00000001
SIN            2020032438     00005S750           012805-VIS                                             0000017253          00000000002000PZ                                                00013766                 2020                     -61997                   20200704                 00017253
SIN            2020032438     00006S750           013496-VIS                                             0000012300          00000000002000PZ                                                00013766                 2020                     -61997                   20200704                 00012300
SIN            2020032438     00007S750           013495-VIS                                             0000011775          00000000005000PZ                                                00013766                 2020                     -61997                   20200704                 00011775
SIN            2020032440     00001S750           009697-C12                                             0000000852          00000000048000PZ                                                00013581                 2020                     2000828-61924            20200702                 00000852
SIN            2020032442     00001S750           017094-LAT                                             0000016820          00000000002000PZ                                                00013857                 2020                     277/20-62014             20200706                 00016820
SIN            2020032442     00002S750           021744-FTO                                             0000170000          00000000001000PZ                                                00013857                 2020                     277/20-62014             20200706                 00170000
SIN            2020032442     00003S750           014654-C12                                             0000000855          00000000036000PZ                                                00013857                 2020                     277/20-62014             20200706                 00000855
SIN            2020032442     00004S750           014650-C12                                             0000000853          00000000036000PZ                                                00013857                 2020                     277/20-62014             20200706                 00000853
SIN            2020032442     00005S750           009697-C12                                             0000000851          00000000012000PZ                                                00013857                 2020                     277/20-62014             20200706                 00000851
SIN            2020032442     00006S750           008743-C12                                             0000000868          00000000072000PZ                                                00013857                 2020                     277/20-62014             20200706                 00000868
SIN            2020032442     00007S750           008771-C12                                             0000000850          00000000072000PZ                                                00013857                 2020                     277/20-62014             20200706                 00000850
SIN            2020032443     00001S750           022449-FTO                                             0000170000          00000000001000PZ                                                00013882                 2020                     -61993                   20200704                 00170000
SIN            2020032443     00002S750           022536-C12                                             0000000880          00000000024000PZ                                                00013882                 2020                     -61993                   20200704                 00000880
SIN            2020032443     00003S750           022530-C12                                             0000000870          00000000144000PZ                                                00013882                 2020                     -61993                   20200704                 00000870
SIN            2020032443     00004S750           022450-FTO                                             0000174000          00000000001000PZ                                                00013882                 2020                     -61993                   20200704                 00174000
SIN            2020032444     00001S750           022537-C12                                             0000000880          00000000048000PZ                                                00013882                 2020                     -61993                   20200704                 00000880
SIN            2020032444     00002S750           022378-VIS                                             0000000001          00000000001000PZ                                                00013882                 2020                     -61993                   20200704                 00000001
SIN            2020032445     00001S750           010517-C12                                             0000000870          00000000036000PZ                                                00013723                 2020                     9-61985                  20200703                 00000870
SIN            2020032445     00002S750           010516-C04                                             0000003480          00000000040000PZ                                                00013723                 2020                     9-61985                  20200703                 00003480
SIN            2020032445     00003S750           010512-C04                                             0000003440          00000000020000PZ                                                00013723                 2020                     9-61985                  20200703                 00003440
SIN            2020032445     00004S750           010539-C12                                             0000000860          00000000024000PZ                                                00013723                 2020                     9-61985                  20200703                 00000860
SIN            2020032445     00005S750           010505-C12                                             0000000850          00000000024000PZ                                                00013723                 2020                     9-61985                  20200703                 00000850
SIN            2020032445     00006S750           010509-C12                                             0000000850          00000000024000PZ                                                00013723                 2020                     9-61985                  20200703                 00000850
SIN            2020032445     00007S750           015699-C12                                             0000000850          00000000012000PZ                                                00013723                 2020                     9-61985                  20200703                 00000850
SIN            2020032445     00008S750           022378-VIS                                             0000000001          00000000001000PZ                                                00013723                 2020                     9-61985                  20200703                 00000001
SIN            2020032446     00001S750           010520-C04                                             0000003440          00000000032000PZ                                                00013877                 2020                     -62034                   20200706                 00003440
SIN            2020032446     00002S750           010521-C12                                             0000000860          00000000084000PZ                                                00013877                 2020                     -62034                   20200706                 00000860
SIN            2020032446     00003S750           010517-C12                                             0000000870          00000000240000PZ                                                00013877                 2020                     -62034                   20200706                 00000870
SIN            2020032446     00004S750           022378-VIS                                             0000000001          00000000001000PZ                                                00013877                 2020                     -62034                   20200706                 00000001
SIN            2020032447     00001S750           013484-VIS                                             0000030900          00000000022000PZ                                                00013718                 2020                     -61935                   20200702                 00030900
SIN            2020032447     00002S750           013488-VIS                                             0000039825          00000000018000PZ                                                00013718                 2020                     -61935                   20200702                 00039825
SIN            2020032447     00003S750           022378-VIS                                             0000000001          00000000001000PZ                                                00013718                 2020                     -61935                   20200702                 00000001
SIN            2020032447     00004S750           013484-VIS                                             0000030900          00000000002000PZ                                                00013718                 2020                     -61935                   20200702                 00030900
SIN            2020032447     00005S750           013488-VIS                                             0000039825          00000000002000PZ                                                00013718                 2020                     -61935                   20200702                 00039825
SIN            2020032448     00001S750           026792-C12                                             0000000848          00000000588000PZ                                                00013868                 2020                     -61848                   20200701                 00000848
SIN            2020032449     00001S750           026792-C12                                             0000000848          00000000072000PZ                                                00013868                 2020                     -61848                   20200701                 00000848
SIN            2020032449     00002S750           022378-VIS                                             0000000001          00000000001000PZ                                                00013868                 2020                     -61848                   20200701                 00000001
SIN            2020032449     00003S750           026708-C12                                             0000000848          00000000024000PZ                                                00013876                 2020                     -62033                   20200706                 00000848
SIN            2020032450     00001S750           026972-VIS                                             0000000200          00000000001000PZ                                                00012857                 2020                      10000067590             20200625                 00000200
SIN            2020032450     00002S750           026969-VIS                                             0000000200          00000000001000PZ                                                00012857                 2020                      10000067590             20200625                 00000200
SIN            2020032450     00003S750           026973-VIS                                             0000000200          00000000006000PZ                                                00012857                 2020                      10000067590             20200625                 00000200
SIN            2020032452     00001S750           026971-VIS                                             0000000200          00000000002000PZ                                                00013637                 2020                     10000100230              20200702                 00000200
SIN            2020032452     00002S750           026986-VIS                                             0000000200          00000000001000PZ                                                00013637                 2020                     10000100230              20200702                 00000200
SIN            2020032452     00003S750           026987-VIS                                             0000000200          00000000001000PZ                                                00013637                 2020                     10000100230              20200702                 00000200
SIN            2020032460     00001S750           014546-FTO                                             0000170000          00000000001000PZ                                                00013721                 2020                     -61979                   20200703                 00170000
SIN            2020032460     00002S750           026792-C12                                             0000000848          00000000060000PZ                                                00013721                 2020                     -61979                   20200703                 00000848
SIN            2020032460     00003S750           022378-VIS                                             0000000001          00000000001000PZ                                                00013721                 2020                     -61979                   20200703                 00000001
SIN            2020032461     00001S750           026855-C12                                             0000000865          00000000036000PZ                                                00010763                 2020                     -60626                   20200604                 00000865
SIN            2020032462     00001S750           027070-CU1                                             0000868000          00000000001000PZ                                                00013865                 2020                     10205717216 IT1019315-62020200706                 00868000
SIN            2020032463     00001S750           027071-FTO                                             0000180540          00000000001000PZ                                                00013866                 2020                     10205717211 IT1019308-62020200706                 00180540
SIN            2020032464     00001S750           026724-C12                                             0000000846          00000000060000PZ                                                00013870                 2020                     -61934                   20200702                 00000846
SIN            2020032464     00002S750           009721-C12                                             0000000870          00000000288000PZ                                                00013870                 2020                     -61934                   20200702                 00000870
SIN            2020032464     00003S750           022378-VIS                                             0000000001          00000000001000PZ                                                00013870                 2020                     -61934                   20200702                 00000001
SIN            2020032464     00004S750           009721-C12                                             0000000870          00000000024000PZ                                                00013870                 2020                     -61934                   20200702                 00000870
SIN            2020032728     00001S750           009440-LAT                                             0000017840          00000000002000PZ                                                00013884                 2020                                              20200706                 00017840
SIN            2020032728     00002S750           008752-LAT                                             0000017820          00000000004000PZ                                                00013884                 2020                                              20200706                 00017820
SIN            2020032786     00001S750           008795-FTO                                             0000180540          00000000001000PZ                                                00013916                 2020                     0611-62043               20200706                 00180540
SIN            2020032787     00001S750           017327-LAT                                             0000017600          00000000006000PZ                                                00013910                 2020                     0604-62032               20200706                 00017600
SIN            2020032787     00002S750           014134-LAT                                             0000017440          00000000017000PZ                                                00013910                 2020                     0604-62032               20200706                 00017440
SIN            2020032788     00001S750           017323-FTO                                             0000180960          00000000001000PZ                                                00013914                 2020                     0608-62040               20200706                 00180960
SIN            2020032789     00001S750           008938-FTO                                             0000182830          00000000001000PZ                                                00013920                 2020                     0615-62057               20200706                 00182830
SIN            2020032790     00001S750           009725-C12                                             0000000868          00000000048000PZ                                                00013911                 2020                     0605-62037               20200706                 00000868
SIN            2020032790     00002S750           009727-C12                                             0000000850          00000000024000PZ                                                00013911                 2020                     0605-62037               20200706                 00000850
SIN            2020032790     00003S750           009411-C24                                             0000000400          00000000024000PZ                                                00013911                 2020                     0605-62037               20200706                 00000400
SIN            2020032790     00004S750           014141-C12                                             0000000865          00000000048000PZ                                                00013911                 2020                     0605-62037               20200706                 00000865
SIN            2020032791     00001S750           010293-LAT                                             0000018000          00000000010000PZ                                                00013915                 2020                     0609-62041               20200706                 00018000
SIN            2020032792     00001S750           021745-FTO                                             0000170000          00000000001000PZ                                                00013912                 2020                     0606-62038               20200706                 00170000
SIN            2020032792     00002S750           017095-FTO                                             0000174920          00000000001000PZ                                                00013912                 2020                     0606-62038               20200706                 00174920
SIN            2020032793     00001S750           017355-FTO                                             0000178880          00000000001000PZ                                                00013918                 2020                     0613-62045               20200706                 00178880
SIN            2020032794     00001S750           021744-FTO                                             0000170000          00000000001000PZ                                                00013913                 2020                     0607-62039               20200706                 00170000
SIN            2020032795     00001S750           010113-FTO                                             0000182208          00000000001000PZ                                                00013919                 2020                     GU20067/05-62052         20200706                 00182208
SIN            2020032795     00002S750           008754-LAT                                             0000017800          00000000001000PZ                                                00013921                 2020                     GU202067/06-62060        20200706                 00017800
SIN            2020032795     00003S750           010112-LAT                                             0000017440          00000000002000PZ                                                00013921                 2020                     GU202067/06-62060        20200706                 00017440
SIN            2020032795     00004S750           009478-FTO                                             0000176800          00000000001000PZ                                                00013921                 2020                     GU202067/06-62060        20200706                 00176800
SIN            2020032796     00001S750           016640-C04                                             0000004265          00000000004000PZ                                                00008220                 2020                     2000513-59544            20200507                 00004265
SIN            2020032797     00001S750           011891-LAT                                             0000017200          00000000001000PZ                                                00013236                 2020                     10205717091 IT1019175-61720200630                 00017200
SIN            2020032797     00002S750           007924-VIS                                             0000000001          00000000001000PZ                                                00013236                 2020                     10205717091 IT1019175-61720200630                 00000001
