SIN            2019064446     00001S750           015098-VIS                                             0000008400          00000000001000PZ                                                00027061                 2019                     116355                   20190923                 00008400
SIN            2019064446     00002S750           015099-VIS                                             0000009660          00000000013000PZ                                                00027061                 2019                     116355                   20190923                 00009660
SIN            2019064446     00003S750           015100-VIS                                             0000011000          00000000014000PZ                                                00027061                 2019                     116355                   20190923                 00011000
SIN            2019064446     00004S750           015101-VIS                                             0000011400          00000000025000PZ                                                00027061                 2019                     116355                   20190923                 00011400
SIN            2019064446     00005S750           015102-VIS                                             0000013500          00000000005000PZ                                                00027061                 2019                     116355                   20190923                 00013500
SIN            2019064446     00006S750           015103-VIS                                             0000012717          00000000015000PZ                                                00027061                 2019                     116355                   20190923                 00012717
SIN            2019064446     00007S750           015104-VIS                                             0000017800          00000000013000PZ                                                00027061                 2019                     116355                   20190923                 00017800
SIN            2019064446     00008S750           015105-VIS                                             0000015358          00000000006000PZ                                                00027061                 2019                     116355                   20190923                 00015358
SIN            2019065171     00001S750           015105-VIS                                             0000015358          00000000030000PZ                                                00027304                 2019                     1892-53787               20190925                 00015358
SIN            2019065172     00001S750           021573-C12                                             0000000865          00000000012000PZ                                                00027300                 2019                     134003748                20190925                 00000865
SIN            2019065172     00002S750           021576-C04                                             0000003440          00000000008000PZ                                                00027300                 2019                     134003748                20190925                 00003440
SIN            2019065172     00003S750           021578-C04                                             0000003520          00000000004000PZ                                                00027300                 2019                     134003748                20190925                 00003520
SIN            2019065177     00001S750           026737-C12                                             0000000847          00000000012000PZ                                                00026108                 2019                     1823-53417               20190913                 00000847
SIN            2019065178     00001S750           018679-FTO                                             0000176000          00000000005000PZ                                                00027308                 2019                     1895-53795               20190925                 00176000
SIN            2019065179     00001S750           016846-VIS                                             0000014360          00000000002000PZ                                                00027303                 2019                     1891-53785               20190925                 00014360
SIN            2019065179     00002S750           026839-C24                                             0000000100          00000000024000PZ                                                00027303                 2019                     1891-53785               20190925                 00000100
SIN            2019065179     00003S750           026840-C24                                             0000000100          00000000024000PZ                                                00027303                 2019                     1891-53785               20190925                 00000100
SIN            2019065179     00004S750           026729-VIS                                             0000017730          00000000006000PZ                                                00027303                 2019                     1891-53785               20190925                 00017730
SIN            2019065179     00005S750           026732-VIS                                             0000022210          00000000006000PZ                                                00027303                 2019                     1891-53785               20190925                 00022210
SIN            2019065181     00001S750           008930-FTO                                             0000183247          00000000004000PZ                                                00027306                 2019                     1894 OF 175 -CO400       20190925                 00183247
SIN            2019065181     00002S750           026747-FTO                                             0000200000          00000000002000PZ                                                00027306                 2019                     1894 OF 175 -CO400       20190925                 00200000
SIN            2019065183     00001S750           026779-C12                                             0000000870          00000000024000PZ                                                00027301                 2019                     1890-53783               20190925                 00000870
SIN            2019065184     00001S750           022257-VIS                                             0000015200          00000000002000PZ                                                00027292                 2019                                              20190923                 00015200
SIN            2019065184     00002S750           022276-VIS                                             0000000001          00000000002000PZ                                                00027292                 2019                                              20190923                 00000001
SIN            2019065185     00001S750           026713-C12                                             0000000862          00000000012000PZ                                                00027254                 2019                     1888-53741               20190924                 00000862
SIN            2019065186     00001S750           014642-LAT                                             0000016960          00000000001000PZ                                                00027305                 2019                     1893-53788               20190925                 00016960
SIN            2019065186     00002S750           017094-LAT                                             0000016820          00000000001000PZ                                                00027305                 2019                     1893-53788               20190925                 00016820
SIN            2019065186     00003S750           014647-LAT                                             0000017020          00000000001000PZ                                                00027305                 2019                     1893-53788               20190925                 00017020
SIN            2019065186     00004S750           008741-LAT                                             0000016940          00000000001000PZ                                                00027305                 2019                     1893-53788               20190925                 00016940
SIN            2019065186     00005S750           021937-LAT                                             0000016980          00000000001000PZ                                                00027305                 2019                     1893-53788               20190925                 00016980
SIN            2019065186     00006S750           014656-LAT                                             0000017100          00000000001000PZ                                                00027305                 2019                     1893-53788               20190925                 00017100
SIN            2019065186     00007S750           021940-LAT                                             0000017020          00000000001000PZ                                                00027305                 2019                     1893-53788               20190925                 00017020
SIN            2019065187     00001S750           026766-C12                                             0000000880          00000000024000PZ                                                00027309                 2019                     1896-53797               20190925                 00000880
SIN            2019065187     00002S750           014091-C12                                             0000000854          00000000024000PZ                                                00027309                 2019                     1896-53797               20190925                 00000854
SIN            2019065187     00003S750           026779-C12                                             0000000870          00000000024000PZ                                                00027309                 2019                     1896-53797               20190925                 00000870
SIN            2019065187     00004S750           016864-C12                                             0000000850          00000000012000PZ                                                00027309                 2019                     1896-53797               20190925                 00000850
SIN            2019065187     00005S750           008495-C12                                             0000000865          00000000036000PZ                                                00027309                 2019                     1896-53797               20190925                 00000865
SIN            2019065187     00006S750           015043-VIS                                             0000010000          00000000023000PZ                                                00027309                 2019                     1896-53797               20190925                 00010000
SIN            2019065199     00001S750           013052-FTO                                             0000232128          00000000001000PZ                                                00027302                 2019                     -53784                   20190925                 00232128
SIN            2019065200     00001S750           026738-C04                                             0000004250          00000000020000PZ                                                00027290                 2019                     -53805                   20190925                 00004250
SIN            2019065200     00002S750           026867-C04                                             0000005000          00000000040000PZ                                                00027290                 2019                     -53805                   20190925                 00005000
SIN            2019065200     00003S750           022378-VIS                                             0000000001          00000000001000PZ                                                00027290                 2019                     -53805                   20190925                 00000001
SIN            2019065202     00001S750           026707-C04                                             0000003392          00000000004000PZ                                                00027285                 2019                     -53796                   20190925                 00003392
SIN            2019065202     00002S750           009445-LAT                                             0000017000          00000000002000PZ                                                00027285                 2019                     -53796                   20190925                 00017000
SIN            2019065202     00003S750           026796-C12                                             0000000890          00000000024000PZ                                                00027285                 2019                     -53796                   20190925                 00000890
SIN            2019065202     00004S750           022378-VIS                                             0000000001          00000000001000PZ                                                00027285                 2019                     -53796                   20190925                 00000001
SIN            2019065203     00001S750           026737-C12                                             0000000847          00000000012000PZ                                                00027287                 2019                     TIZIANO-53799            20190925                 00000847
SIN            2019065203     00002S750           026779-C12                                             0000000870          00000000012000PZ                                                00027287                 2019                     TIZIANO-53799            20190925                 00000870
SIN            2019065203     00003S750           026717-C12                                             0000000840          00000000012000PZ                                                00027287                 2019                     TIZIANO-53799            20190925                 00000840
SIN            2019065203     00004S750           026807-C12                                             0000001000          00000000012000PZ                                                00027287                 2019                     TIZIANO-53799            20190925                 00001000
SIN            2019065203     00005S750           026796-C12                                             0000000890          00000000024000PZ                                                00027287                 2019                     TIZIANO-53799            20190925                 00000890
SIN            2019065203     00006S750           026812-C12                                             0000001000          00000000012000PZ                                                00027287                 2019                     TIZIANO-53799            20190925                 00001000
SIN            2019065203     00007S750           026868-C04                                             0000005000          00000000008000PZ                                                00027287                 2019                     TIZIANO-53799            20190925                 00005000
SIN            2019065203     00008S750           026810-C04                                             0000005000          00000000004000PZ                                                00027287                 2019                     TIZIANO-53799            20190925                 00005000
SIN            2019065203     00009S750           026809-C12                                             0000001000          00000000024000PZ                                                00027287                 2019                     TIZIANO-53799            20190925                 00001000
SIN            2019065203     00010S750           026781-C12                                             0000001000          00000000024000PZ                                                00027287                 2019                     TIZIANO-53799            20190925                 00001000
SIN            2019065203     00011S750           026777-C04                                             0000005000          00000000016000PZ                                                00027287                 2019                     TIZIANO-53799            20190925                 00005000
SIN            2019065203     00012S750           022378-VIS                                             0000000001          00000000001000PZ                                                00027287                 2019                     TIZIANO-53799            20190925                 00000001
SIN            2019065204     00001S750           010318-LAT                                             0000017400          00000000001000PZ                                                00027284                 2019                     -53793                   20190925                 00017400
SIN            2019065204     00002S750           022368-LAT                                             0000016720          00000000001000PZ                                                00027284                 2019                     -53793                   20190925                 00016720
SIN            2019065204     00003S750           010314-LAT                                             0000017000          00000000004000PZ                                                00027284                 2019                     -53793                   20190925                 00017000
SIN            2019065204     00004S750           013866-C12                                             0000000860          00000000048000PZ                                                00027284                 2019                     -53793                   20190925                 00000860
SIN            2019065204     00005S750           013867-LAT                                             0000017200          00000000001000PZ                                                00027284                 2019                     -53793                   20190925                 00017200
SIN            2019065204     00006S750           010476-C12                                             0000000854          00000000036000PZ                                                00027284                 2019                     -53793                   20190925                 00000854
SIN            2019065204     00007S750           015393-C12                                             0000000300          00000000048000PZ                                                00027284                 2019                     -53793                   20190925                 00000300
SIN            2019065204     00008S750           015392-C12                                             0000000300          00000000048000PZ                                                00027284                 2019                     -53793                   20190925                 00000300
SIN            2019065204     00009S750           012825-C12                                             0000001126          00000000060000PZ                                                00027284                 2019                     -53793                   20190925                 00001126
SIN            2019065204     00010S750           015065-LAT                                             0000020000          00000000005000PZ                                                00027284                 2019                     -53793                   20190925                 00020000
SIN            2019065204     00011S750           012826-C12                                             0000001122          00000000060000PZ                                                00027284                 2019                     -53793                   20190925                 00001122
SIN            2019065204     00012S750           022378-VIS                                             0000000001          00000000001000PZ                                                00027284                 2019                     -53793                   20190925                 00000001
SIN            2019065205     00001S750           008746-C04                                             0000004340          00000000012000PZ                                                00025223                 2019                     -53137                   20190905                 00004340
SIN            2019065205     00002S750           016990-LAT                                             0000052080          00000000002000PZ                                                00025845                 2019                     -53349                   20190911                 00052080
SIN            2019065213     00001S750           009075-LAT                                             0000017660          00000000008000PZ                                                00024584                 2019                     -52788                   20190828                 00017660
SIN            2019065214     00001S750           026801-FTO                                             0000178350          00000000001000PZ                                                00027312                 2019                     -53810                   20190926                 00178350
SIN            2019065214     00002S750           026809-C12                                             0000001000          00000000180000PZ                                                00027312                 2019                     -53810                   20190926                 00001000
SIN            2019065214     00003S750           022378-VIS                                             0000000001          00000000001000PZ                                                00027312                 2019                     -53810                   20190926                 00000001
SIN            2019065215     00001S750           021675-C12                                             0000000850          00000000012000PZ                                                00027269                 2019                     -53761                   20190924                 00000850
SIN            2019065215     00002S750           007924-VIS                                             0000000001          00000000001000PZ                                                00027269                 2019                     -53761                   20190924                 00000001
SIN            2019065215     00003S750           022378-VIS                                             0000000001          00000000001000PZ                                                00027269                 2019                     -53761                   20190924                 00000001
SIN            2019065218     00001S750           011541-CU1                                             0000881000          00000000001000PZ                                                00027310                 2019                     903-53800                20190925                 00881000
SIN            2019065220     00001S750           026737-C12                                             0000000847          00000000120000PZ                                                00025222                 2019                     1901149-53127            20190905                 00000847
SIN            2019065220     00002S750           026737-C12                                             0000000847          00000000060000PZ                                                00025222                 2019                     1901149-53127            20190905                 00000847
SIN            2019065221     00001S750           009960-C12                                             0000000850          00000000120000PZ                                                00025353                 2019                     1901152-53169            20190906                 00000850
SIN            2019065224     00001S750           026766-C12                                             0000000880          00000000048000PZ                                                00024500                 2019                     LS190827PUR2E1ad-52770   20190827                 00000880
SIN            2019065224     00002S750           026737-C12                                             0000000847          00000000024000PZ                                                00024500                 2019                     LS190827PUR2E1ad-52770   20190827                 00000847
SIN            2019065493     00001S750           017095-FTO                                             0000174920          00000000001000PZ                                                00027062                 2019                     -53722                   20190923                 00174920
SIN            2019065493     00002S750           013994-FTO                                             0000176800          00000000001000PZ                                                00027062                 2019                     -53722                   20190923                 00176800
SIN            2019065528     00001S750           017097-C04                                             0000003480          00000000012000PZ                                                00027343                 2019                     9007597                  20190924                 00003480
SIN            2019065529     00001S750           021577-C12                                             0000000865          00000000036000PZ                                                00027057                 2019                     134002659                20190923                 00000865
SIN            2019065530     00001S750           014456-C12                                             0000000870          00000000012000PZ                                                00027054                 2019                     134003440                20190923                 00000870
SIN            2019065530     00002S750           021574-C04                                             0000003620          00000000024000PZ                                                00027054                 2019                     134003440                20190923                 00003620
SIN            2019065531     00001S750           026836-C10                                             0000000150          00000000010000PZ                                                00026286                 2019                     1829-53488               20190916                 00000150
SIN            2019065532     00001S750           009446-FTO                                             0000170000          00000000002000PZ                                                00027257                 2019                     1869-53757               20190924                 00170000
SIN            2019065533     00001S750           009446-FTO                                             0000170000          00000000002000PZ                                                00027257                 2019                     1869-53757               20190924                 00170000
SIN            2019065534     00001S750           021725-VIS                                             0000001000          00000000020000PZ                                                00024397                 2019                                              20190829                 00001000
SIN            2019065535     00001S750           022233-VIS                                             0000024381          00000000004000PZ                                                00018499                 2019                     116                      20190711                 00024381
SIN            2019065535     00002S750           022276-VIS                                             0000000001          00000000004000PZ                                                00018499                 2019                     116                      20190711                 00000001
SIN            2019065535     00003S750           022344-VIS                                             0000016280          00000000004000PZ                                                00018499                 2019                     116                      20190711                 00016280
SIN            2019065535     00004S750           022276-VIS                                             0000000001          00000000004000PZ                                                00018499                 2019                     116                      20190711                 00000001
SIN            2019065536     00001S750           026784-C12                                             0000000880          00000000012000PZ                                                00025928                 2019                     1813-53387               20190912                 00000880
SIN            2019065537     00001S750           026784-C12                                             0000000880          00000000048000PZ                                                00025291                 2019                     -52920                   20190902                 00000880
SIN            2019065537     00002S750           020523-FTO                                             0000176770          00000000003000PZ                                                00025697                 2019                     -53255                   20190909                 00176770
SIN            2019065538     00001S750           011771-C12                                             0000000870          00000000012000PZ                                                00026772                 2019                     734                      20190919                 00000870
SIN            2019065539     00001S750           026766-C12                                             0000000880          00000000360000PZ                                                00027067                 2019                     LS1909223NGR1C1ad-53697  20190923                 00000880
SIN            2019065540     00001S750           026737-C12                                             0000000847          00000001980000PZ                                                00025372                 2019                     -53168                   20190906                 00000847
SIN            2019065541     00001S750           009375-C18                                             0000000850          00000000054000PZ                                                00026930                 2019                     20_09_19-53672           20190920                 00000850
SIN            2019065541     00002S750           015070-C04                                             0000004400          00000000020000PZ                                                00026930                 2019                     20_09_19-53672           20190920                 00004400
SIN            2019065541     00003S750           009910-C12                                             0000000848          00000000060000PZ                                                00026930                 2019                     20_09_19-53672           20190920                 00000848
SIN            2019065541     00004S750           014094-LAT                                             0000008650          00000000001000PZ                                                00026930                 2019                     20_09_19-53672           20190920                 00008650
SIN            2019065542     00001S750           026796-C12                                             0000000890          00000000312000PZ                                                00024224                 2019                     -52765                   20190827                 00000890
SIN            2019065542     00002S750           026798-C12                                             0000000890          00000000240000PZ                                                00024224                 2019                     -52765                   20190827                 00000890
SIN            2019065543     00001S750           026798-C12                                             0000000890          00000000072000PZ                                                00024224                 2019                     -52765                   20190827                 00000890
SIN            2019065544     00001S750           026731-VIS                                             0000012890          00000000006000PZ                                                00026935                 2019                     -53691                   20190922                 00012890
SIN            2019065544     00002S750           026730-VIS                                             0000014890          00000000004000PZ                                                00026935                 2019                     -53691                   20190922                 00014890
SIN            2019065544     00003S750           026729-VIS                                             0000017730          00000000001000PZ                                                00026935                 2019                     -53691                   20190922                 00017730
SIN            2019065544     00004S750           026732-VIS                                             0000022210          00000000001000PZ                                                00026935                 2019                     -53691                   20190922                 00022210
SIN            2019065544     00005S750           026728-VIS                                             0000011760          00000000002000PZ                                                00026935                 2019                     -53691                   20190922                 00011760
SIN            2019065544     00006S750           022378-VIS                                             0000000001          00000000001000PZ                                                00026935                 2019                     -53691                   20190922                 00000001
SIN            2019065545     00001S750           026784-C12                                             0000000880          00000000012000PZ                                                00025703                 2019                     -53274                   20190910                 00000880
SIN            2019065546     00001S750           026738-C04                                             0000004250          00000000008000PZ                                                00027353                 2019                     -53835                   20190926                 00004250
SIN            2019065546     00002S750           015070-C04                                             0000004400          00000000040000PZ                                                00027353                 2019                     -53835                   20190926                 00004400
SIN            2019065546     00003S750           026737-C12                                             0000000847          00000000060000PZ                                                00027353                 2019                     -53835                   20190926                 00000847
SIN            2019065546     00004S750           026807-C12                                             0000001000          00000000024000PZ                                                00027353                 2019                     -53835                   20190926                 00001000
SIN            2019065546     00005S750           011648-C12                                             0000000880          00000000024000PZ                                                00027353                 2019                     -53835                   20190926                 00000880
SIN            2019065546     00006S750           022378-VIS                                             0000000001          00000000001000PZ                                                00027353                 2019                     -53835                   20190926                 00000001
SIN            2019065547     00001S750           009910-C12                                             0000000848          00000000036000PZ                                                00027278                 2019                     -53779                   20190925                 00000848
SIN            2019065548     00001S750           026855-C12                                             0000000865          00000000024000PZ                                                00027293                 2019                     -53781                   20190925                 00000865
SIN            2019065548     00002S750           022378-VIS                                             0000000001          00000000001000PZ                                                00027293                 2019                     -53781                   20190925                 00000001
SIN            2019065549     00001S750           026766-C12                                             0000000880          00000000180000PZ                                                00021000                 2019                     1-51759                  20190717                 00000880
SIN            2019065550     00001S750           019832-VIS                                             0000020300          00000000018000PZ                                                00017600                 2019                     -50532                   20190618                 00020300
SIN            2019065550     00002S750           019833-VIS                                             0000020100          00000000018000PZ                                                00017600                 2019                     -50532                   20190618                 00020100
SIN            2019065551     00001S750           022378-VIS                                             0000000001          00000000001000PZ                                                00027068                 2019                     -53698                   20190923                 00000001
SIN            2019065551     00002S750           026812-C12                                             0000001000          00000000012000PZ                                                00027068                 2019                     -53698                   20190923                 00001000
SIN            2019065552     00001S750           010501-CU1                                             0000890000          00000000010000PZ                                                00027357                 2019                                              20191004                 00890000
SIN            2019065553     00001S750           026777-C04                                             0000005000          00000000128000PZ                                                00027350                 2019                     -53828                   20190926                 00005000
SIN            2019065553     00002S750           007924-VIS                                             0000000001          00000000001000PZ                                                00027350                 2019                     -53828                   20190926                 00000001
SIN            2019065553     00003S750           022378-VIS                                             0000000001          00000000001000PZ                                                00027350                 2019                     -53828                   20190926                 00000001
SIN            2019065554     00001S750           026750-C12                                             0000000870          00000000060000PZ                                                00024223                 2019                     -52759                   20190827                 00000870
SIN            2019065555     00001S750           026728-VIS                                             0000011760          00000000003000PZ                                                00027069                 2019                     -53708                   20190923                 00011760
SIN            2019065555     00002S750           026731-VIS                                             0000012890          00000000003000PZ                                                00027069                 2019                     -53708                   20190923                 00012890
SIN            2019065555     00003S750           026730-VIS                                             0000014890          00000000003000PZ                                                00027069                 2019                     -53708                   20190923                 00014890
SIN            2019065555     00004S750           026729-VIS                                             0000017730          00000000004000PZ                                                00027069                 2019                     -53708                   20190923                 00017730
SIN            2019065555     00005S750           022378-VIS                                             0000000001          00000000001000PZ                                                00027069                 2019                     -53708                   20190923                 00000001
SIN            2019065556     00001S750           026767-FTO                                             0000182000          00000000002000PZ                                                00016707                 2019                     -50207                   20190607                 00182000
SIN            2019065557     00001S750           008870-LAT                                             0000017640          00000000001000PZ                                                00026567                 2019                     4512473030-53532         20190917                 00017640
SIN            2019065558     00001S750           000307-C10                                             0000001750          00000000020000PZ                                                00027296                 2019                     -53791                   20190925                 00001750
SIN            2019065558     00002S750           022378-VIS                                             0000000001          00000000001000PZ                                                00027296                 2019                     -53791                   20190925                 00000001
SIN            2019065559     00001S750           026750-C12                                             0000000870          00000000108000PZ                                                00027263                 2019                     -53751                   20190924                 00000870
SIN            2019065559     00002S750           022378-VIS                                             0000000001          00000000001000PZ                                                00027263                 2019                     -53751                   20190924                 00000001
SIN            2019065560     00001S750           021660-LAT                                             0000018000          00000000002000PZ                                                00027346                 2019                     -53813                   20190926                 00018000
SIN            2019065560     00002S750           010517-C12                                             0000000870          00000000036000PZ                                                00027346                 2019                     -53813                   20190926                 00000870
SIN            2019065560     00003S750           010505-C12                                             0000000850          00000000024000PZ                                                00027346                 2019                     -53813                   20190926                 00000850
SIN            2019065560     00004S750           010513-C12                                             0000000850          00000000036000PZ                                                00027346                 2019                     -53813                   20190926                 00000850
SIN            2019065560     00005S750           022378-VIS                                             0000000001          00000000001000PZ                                                00027346                 2019                     -53813                   20190926                 00000001
SIN            2019065561     00001S750           026710-C10                                             0000001710          00000000100000PZ                                                00025865                 2019                     -53041                   20190904                 00001710
SIN            2019065561     00002S750           022378-VIS                                             0000000001          00000000001000PZ                                                00025865                 2019                     -53041                   20190904                 00000001
SIN            2019065562     00001S750           026750-C12                                             0000000870          00000000060000PZ                                                00024439                 2019                     -52809                   20190828                 00000870
SIN            2019065563     00001S750           026767-FTO                                             0000182000          00000000002000PZ                                                00021008                 2019                     -51789                   20190717                 00182000
SIN            2019065564     00001S750           017365-C12                                             0000000880          00000000060000PZ                                                00027290                 2019                     -53805                   20190925                 00000880
SIN            2019065565     00001S750           026766-C12                                             0000000880          00000000360000PZ                                                00025450                 2019                     -53224                   20190909                 00000880
SIN            2019065566     00001S750           014630-FTO                                             0000208000          00000000004000PZ                                                00019948                 2019                     -51424                   20190709                 00208000
SIN            2019065567     00001S750           022004-FTO                                             0000177632          00000000001000PZ                                                00018622                 2019                     -50936                   20190628                 00177632
SIN            2019065568     00001S750           019832-VIS                                             0000020300          00000000018000PZ                                                00017601                 2019                     -50540                   20190618                 00020300
SIN            2019065568     00002S750           010316-C12                                             0000000870          00000000144000PZ                                                00024906                 2019                     -52950                   20190902                 00000870
SIN            2019065568     00003S750           010317-C04                                             0000003480          00000000052000PZ                                                00024906                 2019                     -52950                   20190902                 00003480
SIN            2019065568     00004S750           013874-FTO                                             0000170000          00000000001000PZ                                                00024906                 2019                     -52950                   20190902                 00170000
SIN            2019065568     00005S750           010318-LAT                                             0000017400          00000000009000PZ                                                00024906                 2019                     -52950                   20190902                 00017400
SIN            2019065568     00006S750           022378-VIS                                             0000000001          00000000001000PZ                                                00024906                 2019                     -52950                   20190902                 00000001
SIN            2019065569     00001S750           003886-C20                                             0000000800          00000000120000PZ                                                00024188                 2019                     -52634                   20190822                 00000800
SIN            2019065569     00002S750           026789-C12                                             0000000863          00000000048000PZ                                                00024188                 2019                     -52634                   20190822                 00000863
SIN            2019065570     00001S750           014655-FTO                                             0000177840          00000000002000PZ                                                00027317                 2019                     -53812                   20190926                 00177840
SIN            2019065571     00001S750           013484-VIS                                             0000033372          00000000010000PZ                                                00025870                 2019                     -53373                   20190912                 00033372
SIN            2019065571     00002S750           026864-C04                                             0000004000          00000000020000PZ                                                00025870                 2019                     -53373                   20190912                 00004000
SIN            2019065571     00003S750           022378-VIS                                             0000000001          00000000001000PZ                                                00025870                 2019                     -53373                   20190912                 00000001
SIN            2019065572     00001S750           026750-C12                                             0000000870          00000000012000PZ                                                00027287                 2019                     TIZIANO-53799            20190925                 00000870
SIN            2019065573     00001S750           010308-C12                                             0000000855          00000000192000PZ                                                00020277                 2019                     -51557                   20190711                 00000855
SIN            2019065573     00002S750           010309-C04                                             0000003420          00000000052000PZ                                                00020277                 2019                     -51557                   20190711                 00003420
SIN            2019065574     00001S750           019832-VIS                                             0000020300          00000000016000PZ                                                00017602                 2019                     -50541                   20190618                 00020300
SIN            2019065574     00002S750           019833-VIS                                             0000020100          00000000018000PZ                                                00017602                 2019                     -50541                   20190618                 00020100
SIN            2019065574     00003S750           010316-C12                                             0000000870          00000000576000PZ                                                00024449                 2019                     -52831                   20190829                 00000870
SIN            2019065574     00004S750           010312-C12                                             0000000850          00000000252000PZ                                                00024449                 2019                     -52831                   20190829                 00000850
SIN            2019065575     00001S750           026750-C12                                             0000000870          00000000060000PZ                                                00024474                 2019                     -52847                   20190829                 00000870
SIN            2019065576     00001S750           016991-FNO                                             0000050640          00000000002000PZ                                                00025845                 2019                     -53349                   20190911                 00050640
SIN            2019065577     00001S750           014144-C12                                             0000000865          00000000120000PZ                                                00025674                 2019                     51236                    20190909                 00000865
SIN            2019065578     00001S750           009375-C18                                             0000000880          00000000018000PZ                                                00027277                 2019                     -53778                   20190925                 00000880
SIN            2019065579     00001S750           026748-CU1                                             0000999990          00000000001000PZ                                                00027349                 2019                     -53827                   20190926                 00999990
SIN            2019065579     00002S750           022378-VIS                                             0000000001          00000000001000PZ                                                00027349                 2019                     -53827                   20190926                 00000001
SIN            2019065580     00001S750           008860-FTO                                             0000179710          00000000004000PZ                                                00027321                 2019                     -53819                   20190926                 00179710
SIN            2019065580     00002S750           008795-FTO                                             0000180540          00000000001000PZ                                                00027321                 2019                     -53819                   20190926                 00180540
SIN            2019065580     00003S750           017326-FTO                                             0000183040          00000000001000PZ                                                00027321                 2019                     -53819                   20190926                 00183040
SIN            2019065580     00004S750           021630-LAT                                             0000017960          00000000002000PZ                                                00027321                 2019                     -53819                   20190926                 00017960
SIN            2019065581     00001S750           019833-VIS                                             0000020100          00000000018000PZ                                                00017603                 2019                     -50543                   20190618                 00020100
SIN            2019065582     00001S750           010511-LAT                                             0000017000          00000000014000PZ                                                00025453                 2019                     2872-53227               20190909                 00017000
SIN            2019065582     00002S750           022378-VIS                                             0000000001          00000000001000PZ                                                00025453                 2019                     2872-53227               20190909                 00000001
SIN            2019065583     00001S750           022260-VIS                                             0000013280          00000000136000PZ                                                00017196                 2019                     208918                   20190612                 00013280
SIN            2019065583     00002S750           022442-VIS                                             0000000001          00000000136000PZ                                                00017196                 2019                     208918                   20190612                 00000001
SIN            2019065583     00003S750           022233-VIS                                             0000024381          00000000015000PZ                                                00017197                 2019                     208919                   20190612                 00024381
SIN            2019065583     00004S750           022442-VIS                                             0000000001          00000000015000PZ                                                00017197                 2019                     208919                   20190612                 00000001
SIN            2019065583     00005S750           022248-VIS                                             0000009150          00000000049000PZ                                                00017197                 2019                     208919                   20190612                 00009150
SIN            2019065583     00006S750           022442-VIS                                             0000000001          00000000049000PZ                                                00017197                 2019                     208919                   20190612                 00000001
SIN            2019065583     00007S750           022233-VIS                                             0000024381          00000000019000PZ                                                00021078                 2019                     209596                   20190702                 00024381
SIN            2019065583     00008S750           022442-VIS                                             0000000001          00000000019000PZ                                                00021078                 2019                     209596                   20190702                 00000001
SIN            2019065584     00001S750           022260-VIS                                             0000013280          00000000060000PZ                                                00017192                 2019                     184852                   20190612                 00013280
SIN            2019065584     00002S750           022442-VIS                                             0000000001          00000000060000PZ                                                00017192                 2019                     184852                   20190612                 00000001
SIN            2019065584     00003S750           022231-VIS                                             0000016281          00000000025000PZ                                                00017192                 2019                     184852                   20190612                 00016281
SIN            2019065584     00004S750           022442-VIS                                             0000000001          00000000025000PZ                                                00017192                 2019                     184852                   20190612                 00000001
SIN            2019065584     00005S750           022233-VIS                                             0000024381          00000000010000PZ                                                00017192                 2019                     184852                   20190612                 00024381
SIN            2019065584     00006S750           022442-VIS                                             0000000001          00000000010000PZ                                                00017192                 2019                     184852                   20190612                 00000001
SIN            2019065585     00001S750           008861-LAT                                             0000017480          00000000002000PZ                                                00025362                 2019                     -53178                   20190906                 00017480
SIN            2019065586     00001S750           022344-VIS                                             0000016280          00000000006000PZ                                                00019211                 2019                     -51110                   20190703                 00016280
SIN            2019065586     00002S750           022275-VIS                                             0000000001          00000000006000PZ                                                00019211                 2019                     -51110                   20190703                 00000001
SIN            2019065587     00001S750           022344-VIS                                             0000016280          00000000003000PZ                                                00026303                 2019                     -53483                   20190916                 00016280
SIN            2019065587     00002S750           022275-VIS                                             0000000001          00000000003000PZ                                                00026303                 2019                     -53483                   20190916                 00000001
SIN            2019065587     00003S750           022344-VIS                                             0000016280          00000000001000PZ                                                00026303                 2019                     -53483                   20190916                 00016280
SIN            2019065587     00004S750           022275-VIS                                             0000000001          00000000001000PZ                                                00026303                 2019                     -53483                   20190916                 00000001
SIN            2019065588     00001S750           011633-C12                                             0000000860          00000000012000PZ                                                00026784                 2019                     -53607                   20190919                 00000860
SIN            2019065589     00001S750           026766-C12                                             0000000880          00000000360000PZ                                                00022508                 2019                     -52154                   20190729                 00000880
SIN            2019065590     00001S750           026731-VIS                                             0000012890          00000000010000PZ                                                00025370                 2019                     -53165                   20190906                 00012890
SIN            2019065590     00002S750           026730-VIS                                             0000014890          00000000005000PZ                                                00025370                 2019                     -53165                   20190906                 00014890
SIN            2019065590     00003S750           026729-VIS                                             0000017730          00000000005000PZ                                                00025370                 2019                     -53165                   20190906                 00017730
SIN            2019065591     00001S750           026750-C12                                             0000000870          00000000012000PZ                                                00027078                 2019                     1-53730                  20190923                 00000870
SIN            2019065592     00001S750           013995-C12                                             0000000870          00000000120000PZ                                                00026919                 2019                     -53682                   20190921                 00000870
SIN            2019065592     00002S750           011773-C12                                             0000000860          00000000012000PZ                                                00026919                 2019                     -53682                   20190921                 00000860
SIN            2019065593     00001S750           026798-C12                                             0000000890          00000000168000PZ                                                00025249                 2019                     -53091                   20190905                 00000890
SIN            2019065593     00002S750           026798-C12                                             0000000890          00000000012000PZ                                                00025249                 2019                     -53091                   20190905                 00000890
SIN            2019065594     00001S750           010509-C12                                             0000000850          00000000024000PZ                                                00026204                 2019                     -53474                   20190916                 00000850
SIN            2019065594     00002S750           013238-LAT                                             0000022300          00000000001000PZ                                                00026204                 2019                     -53474                   20190916                 00022300
SIN            2019065594     00003S750           022378-VIS                                             0000000001          00000000001000PZ                                                00026204                 2019                     -53474                   20190916                 00000001
SIN            2019065595     00001S750           026850-VIS                                             0000015700          00000000003000PZ                                                00026925                 2019                     -53659                   20190920                 00015700
SIN            2019065595     00002S750           026770-C12                                             0000000300          00000000012000PZ                                                00026925                 2019                     -53659                   20190920                 00000300
SIN            2019065595     00003S750           022378-VIS                                             0000000001          00000000001000PZ                                                00026925                 2019                     -53659                   20190920                 00000001
SIN            2019065596     00001S750           026766-C12                                             0000000880          00000000240000PZ                                                00019195                 2019                     -51123                   20190703                 00000880
SIN            2019065597     00001S750           000279-C10                                             0000000890          00000000140000PZ                                                00027355                 2019                     -53837                   20190926                 00000890
SIN            2019065597     00002S750           022378-VIS                                             0000000001          00000000001000PZ                                                00027355                 2019                     -53837                   20190926                 00000001
SIN            2019065598     00001S750           014663-C04                                             0000003400          00000000032000PZ                                                00024584                 2019                     -52788                   20190828                 00003400
SIN            2019065599     00001S750           026766-C12                                             0000000880          00000000720000PZ                                                00027351                 2019                     6-53829                  20190926                 00000880
SIN            2019065599     00002S750           005753-C12                                             0000000880          00000000024000PZ                                                00027351                 2019                     6-53829                  20190926                 00000880
SIN            2019065599     00003S750           026754-C12                                             0000000880          00000000024000PZ                                                00027351                 2019                     6-53829                  20190926                 00000880
SIN            2019065599     00004S750           022378-VIS                                             0000000001          00000000001000PZ                                                00027351                 2019                     6-53829                  20190926                 00000001
SIN            2019065600     00001S750           019833-VIS                                             0000020100          00000000018000PZ                                                00017605                 2019                     -50547                   20190618                 00020100
SIN            2019065601     00001S750           022378-VIS                                             0000000001          00000000001000PZ                                                00024444                 2019                     -52814                   20190828                 00000001
SIN            2019065601     00002S750           026809-C12                                             0000001000          00000000048000PZ                                                00024444                 2019                     -52814                   20190828                 00001000
SIN            2019065602     00001S750           026750-C12                                             0000000870          00000000024000PZ                                                00026738                 2019                     -53596                   20190918                 00000870
SIN            2019065603     00001S750           026848-VIS                                             0000013800          00000000017000PZ                                                00025805                 2019                     -53277                   20190910                 00013800
SIN            2019065604     00001S750           000543-C18                                             0000000853          00000000108000PZ                                                00025026                 2019                     -53022                   20190903                 00000853
SIN            2019065605     00001S750           016869-C18                                             0000000840          00000000144000PZ                                                00025866                 2019                     -53344                   20190911                 00000840
SIN            2019065606     00001S750           026750-C12                                             0000000870          00000000024000PZ                                                00027271                 2019                     -53767                   20190924                 00000870
SIN            2019065607     00001S750           019833-VIS                                             0000020100          00000000015000PZ                                                00017606                 2019                     -50550                   20190618                 00020100
SIN            2019065608     00001S750           014100-C04                                             0000003480          00000000008000PZ                                                00026150                 2019                     -53465                   20190916                 00003480
SIN            2019065609     00001S750           008746-C04                                             0000004340          00000000024000PZ                                                00025924                 2019                     1901184-53370            20190912                 00004340
SIN            2019065609     00002S750           014663-C04                                             0000003400          00000000024000PZ                                                00025924                 2019                     1901184-53370            20190912                 00003400
SIN            2019065609     00003S750           009697-C12                                             0000000851          00000000060000PZ                                                00025924                 2019                     1901184-53370            20190912                 00000851
SIN            2019065610     00001S750           010515-LAT                                             0000017200          00000000003000PZ                                                00024499                 2019                     LS190827PUR1E1ad-52769   20190827                 00017200
SIN            2019065610     00002S750           026750-C12                                             0000000870          00000000012000PZ                                                00024499                 2019                     LS190827PUR1E1ad-52769   20190827                 00000870
SIN            2019065610     00003S750           010505-C12                                             0000000850          00000000012000PZ                                                00024500                 2019                     LS190827PUR2E1ad-52770   20190827                 00000850
SIN            2019065610     00004S750           010514-FTO                                             0000174000          00000000001000PZ                                                00024500                 2019                     LS190827PUR2E1ad-52770   20190827                 00174000
SIN            2019065610     00005S750           015701-C12                                             0000001000          00000000012000PZ                                                00024500                 2019                     LS190827PUR2E1ad-52770   20190827                 00001000
SIN            2019065610     00006S750           021702-LAT                                             0000022500          00000000001000PZ                                                00024500                 2019                     LS190827PUR2E1ad-52770   20190827                 00022500
SIN            2019065610     00007S750           021704-LAT                                             0000022520          00000000002000PZ                                                00024500                 2019                     LS190827PUR2E1ad-52770   20190827                 00022520
SIN            2019065610     00008S750           000307-C10                                             0000001750          00000000020000PZ                                                00024500                 2019                     LS190827PUR2E1ad-52770   20190827                 00001750
SIN            2019065610     00009S750           026733-C12                                             0000000850          00000000012000PZ                                                00024500                 2019                     LS190827PUR2E1ad-52770   20190827                 00000850
SIN            2019065610     00010S750           026870-C12                                             0000000866          00000000012000PZ                                                00024500                 2019                     LS190827PUR2E1ad-52770   20190827                 00000866
SIN            2019065610     00011S750           009375-C18                                             0000000850          00000000072000PZ                                                00024500                 2019                     LS190827PUR2E1ad-52770   20190827                 00000850
SIN            2019065610     00012S750           000542-C24                                             0000000875          00000000048000PZ                                                00024500                 2019                     LS190827PUR2E1ad-52770   20190827                 00000875
SIN            2019065610     00013S750           000543-C18                                             0000000853          00000000036000PZ                                                00024500                 2019                     LS190827PUR2E1ad-52770   20190827                 00000853
SIN            2019065610     00014S750           026752-C12                                             0000000879          00000000012000PZ                                                00024500                 2019                     LS190827PUR2E1ad-52770   20190827                 00000879
SIN            2019065610     00015S750           026766-C12                                             0000000880          00000000060000PZ                                                00024500                 2019                     LS190827PUR2E1ad-52770   20190827                 00000880
SIN            2019065611     00001S750           026766-C12                                             0000000880          00000000072000PZ                                                00024500                 2019                     LS190827PUR2E1ad-52770   20190827                 00000880
SIN            2019065611     00002S750           015070-C04                                             0000004400          00000000012000PZ                                                00024500                 2019                     LS190827PUR2E1ad-52770   20190827                 00004400
SIN            2019065611     00003S750           026750-C12                                             0000000870          00000000012000PZ                                                00024500                 2019                     LS190827PUR2E1ad-52770   20190827                 00000870
SIN            2019065613     00001S750           010094-C18                                             0000000880          00000000090000PZ                                                00027288                 2019                     250919-53801             20190925                 00000880
SIN            2019065613     00002S750           010095-C05                                             0000003512          00000000025000PZ                                                00027288                 2019                     250919-53801             20190925                 00003512
SIN            2019065613     00003S750           009926-C05                                             0000003600          00000000005000PZ                                                00027288                 2019                     250919-53801             20190925                 00003600
SIN            2019065613     00004S750           009183-C12                                             0000000867          00000000024000PZ                                                00027288                 2019                     250919-53801             20190925                 00000867
SIN            2019065613     00005S750           008434-C18                                             0000000880          00000000018000PZ                                                00027288                 2019                     250919-53801             20190925                 00000880
SIN            2019065613     00006S750           008436-C18                                             0000000880          00000000018000PZ                                                00027288                 2019                     250919-53801             20190925                 00000880
SIN            2019065613     00007S750           009939-C05                                             0000003520          00000000025000PZ                                                00027288                 2019                     250919-53801             20190925                 00003520
SIN            2019065613     00008S750           009151-C05                                             0000003600          00000000025000PZ                                                00027288                 2019                     250919-53801             20190925                 00003600
SIN            2019065613     00009S750           022378-VIS                                             0000000001          00000000001000PZ                                                00027288                 2019                     250919-53801             20190925                 00000001
SIN            2019065614     00001S750           026731-VIS                                             0000012890          00000000015000PZ                                                00025948                 2019                     -53395                   20190912                 00012890
SIN            2019065614     00002S750           026730-VIS                                             0000014890          00000000008000PZ                                                00025948                 2019                     -53395                   20190912                 00014890
SIN            2019065614     00003S750           026729-VIS                                             0000017730          00000000006000PZ                                                00025948                 2019                     -53395                   20190912                 00017730
SIN            2019065614     00004S750           026732-VIS                                             0000022210          00000000002000PZ                                                00025948                 2019                     -53395                   20190912                 00022210
SIN            2019065614     00005S750           026760-VIS                                             0000023170          00000000002000PZ                                                00025948                 2019                     -53395                   20190912                 00023170
SIN            2019065614     00006S750           022378-VIS                                             0000000001          00000000001000PZ                                                00025948                 2019                     -53395                   20190912                 00000001
SIN            2019065615     00001S750           009816-LAT                                             0000017760          00000000002000PZ                                                00026572                 2019                     -53553                   20190918                 00017760
SIN            2019065616     00001S750           026750-C12                                             0000000870          00000000120000PZ                                                00024225                 2019                     -52766                   20190827                 00000870
SIN            2019065616     00002S750           022378-VIS                                             0000000001          00000000001000PZ                                                00024225                 2019                     -52766                   20190827                 00000001
SIN            2019065617     00001S750           026784-C12                                             0000000880          00000000012000PZ                                                00025378                 2019                     -53200                   20190907                 00000880
SIN            2019065617     00002S750           026763-C04                                             0000003392          00000000004000PZ                                                00025378                 2019                     -53200                   20190907                 00003392
SIN            2019065618     00001S750           013484-VIS                                             0000035020          00000000034000PZ                                                00025157                 2019                     51554                    20190711                 00035020
SIN            2019065618     00002S750           013484-VIS                                             0000035020          00000000003000PZ                                                00025157                 2019                     51554                    20190711                 00035020
SIN            2019065619     00001S750           026778-C12                                             0000001000          00000000024000PZ                                                00027286                 2019                     -53798                   20190925                 00001000
SIN            2019065619     00002S750           022378-VIS                                             0000000001          00000000001000PZ                                                00027286                 2019                     -53798                   20190925                 00000001
SIN            2019065621     00001S750           026750-C12                                             0000000870          00000000036000PZ                                                00018269                 2019                     -50779                   20190624                 00000870
SIN            2019065622     00001S750           026738-C04                                             0000004250          00000000004000PZ                                                00026142                 2019                     -53449                   20190914                 00004250
SIN            2019065622     00002S750           009910-C12                                             0000000848          00000000024000PZ                                                00026142                 2019                     -53449                   20190914                 00000848
SIN            2019065623     00001S750           014100-C04                                             0000003480          00000000012000PZ                                                00026543                 2019                     -53519                   20190917                 00003480
SIN            2019065624     00001S750           000549-C06                                             0000000900          00000000006000PZ                                                00026210                 2019                     34652                    20190916                 00000900
SIN            2019065625     00001S750           000549-C06                                             0000000900          00000000006000PZ                                                00026983                 2019                     35428                    20190923                 00000900
SIN            2019065626     00001S750           000549-C06                                             0000000900          00000000006000PZ                                                00026984                 2019                     35358                    20190923                 00000900
SIN            2019065627     00001S750           022378-VIS                                             0000000001          00000000001000PZ                                                00025813                 2019                     -53351                   20190911                 00000001
SIN            2019065627     00002S750           021727-C05                                             0000004500          00000000025000PZ                                                00027345                 2019                     -53811                   20190926                 00004500
SIN            2019065627     00003S750           022378-VIS                                             0000000001          00000000001000PZ                                                00027345                 2019                     -53811                   20190926                 00000001
SIN            2019065628     00001S750           026766-C12                                             0000000880          00000000240000PZ                                                00025244                 2019                     -52967                   20190903                 00000880
SIN            2019065628     00002S750           026754-C12                                             0000000880          00000000036000PZ                                                00025276                 2019                     52966                    20190903                 00000880
SIN            2019065628     00003S750           011627-C04                                             0000003400          00000000004000PZ                                                00025276                 2019                     52966                    20190903                 00003400
SIN            2019065628     00004S750           011584-C04                                             0000003400          00000000008000PZ                                                00025276                 2019                     52966                    20190903                 00003400
SIN            2019065628     00005S750           011799-C04                                             0000003480          00000000012000PZ                                                00025276                 2019                     52966                    20190903                 00003480
SIN            2019065628     00006S750           014058-C04                                             0000003460          00000000012000PZ                                                00025276                 2019                     52966                    20190903                 00003460
SIN            2019065628     00007S750           026855-C12                                             0000000865          00000000048000PZ                                                00025276                 2019                     52966                    20190903                 00000865
SIN            2019065631     00001S750           026766-C12                                             0000000880          00000000360000PZ                                                00025376                 2019                     -53193                   20190906                 00000880
SIN            2019065632     00001S750           026798-C12                                             0000000890          00000000012000PZ                                                00025377                 2019                     -53196                   20190906                 00000890
SIN            2019065633     00001S750           026710-C10                                             0000001710          00000000180000PZ                                                00025248                 2019                     1-53085                  20190905                 00001710
SIN            2019065633     00002S750           022378-VIS                                             0000000001          00000000001000PZ                                                00026468                 2019                     -53546                   20190918                 00000001
SIN            2019065634     00001S750           026874-C20                                             0000000890          00000000040000PZ                                                00026388                 2019                     53472 O                  20190916                 00000890
SIN            2019065634     00002S750           026712-C24                                             0000001000          00000000048000PZ                                                00026388                 2019                     53472 O                  20190916                 00001000
SIN            2019065635     00001S750           022248-VIS                                             0000009150          00000000026000PZ                                                00020314                 2019                     45                       20190710                 00009150
SIN            2019065637     00001S750           022248-VIS                                             0000009150          00000000050000PZ                                                00022528                 2019                     2656                     20190729                 00009150
SIN            2019065637     00002S750           022248-VIS                                             0000009150          00000000004000PZ                                                00024782                 2019                     2770                     20190827                 00009150
SIN            2019065638     00001S750           010502-LAT                                             0000176300          00000000010000PZ                                                00027358                 2019                                              20191004                 00176300
SIN            2019065642     00001S750           016869-C18                                             0000000840          00000000144000PZ                                                00025866                 2019                     -53344                   20190911                 00000840
SIN            2019065644     00001S750           026766-C12                                             0000000880          00000000564000PZ                                                00027360                 2019                     -53265                   20190909                 00000880
SIN            2019065645     00001S750           026766-C12                                             0000000880          00000000036000PZ                                                00027360                 2019                     -53265                   20190909                 00000880
SIN            2019065645     00002S750           022378-VIS                                             0000000001          00000000001000PZ                                                00027360                 2019                     -53265                   20190909                 00000001
SIN            2019065649     00001S750           009910-C12                                             0000000848          00000000012000PZ                                                00027301                 2019                     1890-53783               20190925                 00000848
SIN            2019065650     00001S750           009910-C12                                             0000000848          00000000024000PZ                                                00027353                 2019                     -53835                   20190926                 00000848
SIN            2019065652     00001S750           009910-C12                                             0000000848          00000000060000PZ                                                00027348                 2019                     -53820                   20190926                 00000848
SIN            2019065653     00001S750           021538-LAT                                             0000021420          00000000010000PZ                                                00027386                 2019                     4300538010-53826         20190926                 00021420
SIN            2019065653     00002S750           008750-LAT                                             0000017200          00000000010000PZ                                                00027386                 2019                     4300538010-53826         20190926                 00017200
SIN            2019065654     00001S750           014642-LAT                                             0000016960          00000000005000PZ                                                00027388                 2019                     247/MP-53834             20190926                 00016960
SIN            2019065654     00002S750           014471-LAT                                             0000016840          00000000005000PZ                                                00027388                 2019                     247/MP-53834             20190926                 00016840
SIN            2019065654     00003S750           021940-LAT                                             0000017020          00000000005000PZ                                                00027388                 2019                     247/MP-53834             20190926                 00017020
SIN            2019065654     00004S750           021938-LAT                                             0000017000          00000000005000PZ                                                00027388                 2019                     247/MP-53834             20190926                 00017000
SIN            2019065654     00005S750           014656-LAT                                             0000017100          00000000010000PZ                                                00027388                 2019                     247/MP-53834             20190926                 00017100
