SIN            2019064446     00001S750           015098-VIS                                             0000008400          00000000001000PZ                                                00027061                 2019                     116355                   20190923                 00008400
SIN            2019064446     00002S750           015099-VIS                                             0000009660          00000000013000PZ                                                00027061                 2019                     116355                   20190923                 00009660
SIN            2019064446     00003S750           015100-VIS                                             0000011000          00000000014000PZ                                                00027061                 2019                     116355                   20190923                 00011000
SIN            2019064446     00004S750           015101-VIS                                             0000011400          00000000025000PZ                                                00027061                 2019                     116355                   20190923                 00011400
SIN            2019064446     00005S750           015102-VIS                                             0000013500          00000000005000PZ                                                00027061                 2019                     116355                   20190923                 00013500
SIN            2019064446     00006S750           015103-VIS                                             0000012717          00000000015000PZ                                                00027061                 2019                     116355                   20190923                 00012717
SIN            2019064446     00007S750           015104-VIS                                             0000017800          00000000013000PZ                                                00027061                 2019                     116355                   20190923                 00017800
SIN            2019064446     00008S750           015105-VIS                                             0000015358          00000000006000PZ                                                00027061                 2019                     116355                   20190923                 00015358
